{
  "_format": "hh-sol-artifact-1",
  "contractName": "AconomyDrop",
  "sourceName": "contracts/AconomyDrop.sol",
  "abi": [
    {
      "inputs": [
        {
          "internalType": "address",
          "name": "_pndc",
          "type": "address"
        }
      ],
      "stateMutability": "nonpayable",
      "type": "constructor"
    },
    {
      "anonymous": false,
      "inputs": [
        {
          "indexed": true,
          "internalType": "address",
          "name": "previousOwner",
          "type": "address"
        },
        {
          "indexed": true,
          "internalType": "address",
          "name": "newOwner",
          "type": "address"
        }
      ],
      "name": "OwnershipTransferred",
      "type": "event"
    },
    {
      "inputs": [],
      "name": "PNDC",
      "outputs": [
        {
          "internalType": "address",
          "name": "",
          "type": "address"
        }
      ],
      "stateMutability": "view",
      "type": "function"
    },
    {
      "inputs": [
        {
          "internalType": "uint256",
          "name": "_totalNft",
          "type": "uint256"
        },
        {
          "internalType": "string[]",
          "name": "_uri",
          "type": "string[]"
        },
        {
          "components": [
            {
              "internalType": "address payable",
              "name": "account",
              "type": "address"
            },
            {
              "internalType": "uint96",
              "name": "value",
              "type": "uint96"
            }
          ],
          "internalType": "struct LibShare.Share[][]",
          "name": "royaltiesSet",
          "type": "tuple[][]"
        }
      ],
      "name": "batchMint",
      "outputs": [],
      "stateMutability": "nonpayable",
      "type": "function"
    },
    {
      "inputs": [],
      "name": "claim",
      "outputs": [],
      "stateMutability": "nonpayable",
      "type": "function"
    },
    {
      "inputs": [
        {
          "internalType": "address",
          "name": "_claimee",
          "type": "address"
        },
        {
          "internalType": "uint256",
          "name": "_tokenId",
          "type": "uint256"
        }
      ],
      "name": "createClaim",
      "outputs": [],
      "stateMutability": "nonpayable",
      "type": "function"
    },
    {
      "inputs": [
        {
          "internalType": "address",
          "name": "",
          "type": "address"
        },
        {
          "internalType": "address",
          "name": "",
          "type": "address"
        },
        {
          "internalType": "uint256",
          "name": "",
          "type": "uint256"
        },
        {
          "internalType": "bytes",
          "name": "",
          "type": "bytes"
        }
      ],
      "name": "onERC721Received",
      "outputs": [
        {
          "internalType": "bytes4",
          "name": "",
          "type": "bytes4"
        }
      ],
      "stateMutability": "nonpayable",
      "type": "function"
    },
    {
      "inputs": [],
      "name": "owner",
      "outputs": [
        {
          "internalType": "address",
          "name": "",
          "type": "address"
        }
      ],
      "stateMutability": "view",
      "type": "function"
    },
    {
      "inputs": [],
      "name": "renounceOwnership",
      "outputs": [],
      "stateMutability": "nonpayable",
      "type": "function"
    },
    {
      "inputs": [
        {
          "internalType": "address",
          "name": "",
          "type": "address"
        },
        {
          "internalType": "uint256",
          "name": "",
          "type": "uint256"
        }
      ],
      "name": "s_userClaims",
      "outputs": [
        {
          "internalType": "uint256",
          "name": "tokenId",
          "type": "uint256"
        },
        {
          "internalType": "uint256",
          "name": "endTime",
          "type": "uint256"
        }
      ],
      "stateMutability": "view",
      "type": "function"
    },
    {
      "inputs": [
        {
          "internalType": "address",
          "name": "_to",
          "type": "address"
        },
        {
          "internalType": "string",
          "name": "_uri",
          "type": "string"
        },
        {
          "components": [
            {
              "internalType": "address payable",
              "name": "account",
              "type": "address"
            },
            {
              "internalType": "uint96",
              "name": "value",
              "type": "uint96"
            }
          ],
          "internalType": "struct LibShare.Share[]",
          "name": "royalties",
          "type": "tuple[]"
        }
      ],
      "name": "safeMint",
      "outputs": [
        {
          "internalType": "uint256",
          "name": "",
          "type": "uint256"
        }
      ],
      "stateMutability": "nonpayable",
      "type": "function"
    },
    {
      "inputs": [
        {
          "internalType": "address",
          "name": "newOwner",
          "type": "address"
        }
      ],
      "name": "transferOwnership",
      "outputs": [],
      "stateMutability": "nonpayable",
      "type": "function"
    }
  ],
  "bytecode": "0x60806040523480156200001157600080fd5b5060405162001d2d38038062001d2d833981810160405281019062000037919062000182565b620000576200004b6200009f60201b60201c565b620000a760201b60201c565b80600260006101000a81548173ffffffffffffffffffffffffffffffffffffffff021916908373ffffffffffffffffffffffffffffffffffffffff16021790555050620001fc565b600033905090565b60008060009054906101000a900473ffffffffffffffffffffffffffffffffffffffff169050816000806101000a81548173ffffffffffffffffffffffffffffffffffffffff021916908373ffffffffffffffffffffffffffffffffffffffff1602179055508173ffffffffffffffffffffffffffffffffffffffff168173ffffffffffffffffffffffffffffffffffffffff167f8be0079c531659141344cd1fd0a4f28419497f9722a3daafe3b4186f6b6457e060405160405180910390a35050565b6000815190506200017c81620001e2565b92915050565b6000602082840312156200019557600080fd5b6000620001a5848285016200016b565b91505092915050565b6000620001bb82620001c2565b9050919050565b600073ffffffffffffffffffffffffffffffffffffffff82169050919050565b620001ed81620001ae565b8114620001f957600080fd5b50565b611b21806200020c6000396000f3fe608060405234801561001057600080fd5b506004361061009e5760003560e01c80638da5cb5b116100665780638da5cb5b14610135578063a17e5eef14610153578063aedf49f71461016f578063e85b26c0146101a0578063f2fde38b146101bc5761009e565b8063150b7a02146100a35780634e71d92d146100d3578063667834a9146100dd578063715018a6146100fb57806384f47a2514610105575b600080fd5b6100bd60048036038101906100b89190610f9f565b6101d8565b6040516100ca919061152c565b60405180910390f35b6100db6101ec565b005b6100e561057a565b6040516100f29190611495565b60405180910390f35b6101036105a0565b005b61011f600480360381019061011a919061101a565b6105b4565b60405161012c9190611587565b60405180910390f35b61013d610678565b60405161014a9190611495565b60405180910390f35b61016d600480360381019061016891906110fe565b6106a1565b005b61018960048036038101906101849190611099565b61073f565b6040516101979291906115e7565b60405180910390f35b6101ba60048036038101906101b59190611099565b610780565b005b6101d660048036038101906101d19190610f4d565b6109f6565b005b600063150b7a0260e01b9050949350505050565b6000600160003373ffffffffffffffffffffffffffffffffffffffff1673ffffffffffffffffffffffffffffffffffffffff168152602001908152602001600020805490509050600081141561024157600080fd5b60005b8181101561052b57600160003373ffffffffffffffffffffffffffffffffffffffff1673ffffffffffffffffffffffffffffffffffffffff16815260200190815260200160002081815481106102c3577f4e487b7100000000000000000000000000000000000000000000000000000000600052603260045260246000fd5b90600052602060002090600202016001015442116103f957600260009054906101000a900473ffffffffffffffffffffffffffffffffffffffff1673ffffffffffffffffffffffffffffffffffffffff166342842e0e3033600160003373ffffffffffffffffffffffffffffffffffffffff1673ffffffffffffffffffffffffffffffffffffffff1681526020019081526020016000208581548110610392577f4e487b7100000000000000000000000000000000000000000000000000000000600052603260045260246000fd5b9060005260206000209060020201600001546040518463ffffffff1660e01b81526004016103c2939291906114b0565b600060405180830381600087803b1580156103dc57600080fd5b505af11580156103f0573d6000803e3d6000fd5b5050505061051a565b600260009054906101000a900473ffffffffffffffffffffffffffffffffffffffff1673ffffffffffffffffffffffffffffffffffffffff166342842e0e30610440610678565b600160003373ffffffffffffffffffffffffffffffffffffffff1673ffffffffffffffffffffffffffffffffffffffff16815260200190815260200160002085815481106104b7577f4e487b7100000000000000000000000000000000000000000000000000000000600052603260045260246000fd5b9060005260206000209060020201600001546040518463ffffffff1660e01b81526004016104e7939291906114b0565b600060405180830381600087803b15801561050157600080fd5b505af1158015610515573d6000803e3d6000fd5b505050505b806105249061195f565b9050610244565b50600160003373ffffffffffffffffffffffffffffffffffffffff1673ffffffffffffffffffffffffffffffffffffffff16815260200190815260200160002060006105779190610bc4565b50565b600260009054906101000a900473ffffffffffffffffffffffffffffffffffffffff1681565b6105a8610a7a565b6105b26000610af8565b565b60006105be610a7a565b600260009054906101000a900473ffffffffffffffffffffffffffffffffffffffff1673ffffffffffffffffffffffffffffffffffffffff166384f47a258585856040518463ffffffff1660e01b815260040161061d939291906114e7565b602060405180830381600087803b15801561063757600080fd5b505af115801561064b573d6000803e3d6000fd5b505050506040513d601f19601f8201168201806040525081019061066f91906110d5565b90509392505050565b60008060009054906101000a900473ffffffffffffffffffffffffffffffffffffffff16905090565b6106a9610a7a565b600260009054906101000a900473ffffffffffffffffffffffffffffffffffffffff1673ffffffffffffffffffffffffffffffffffffffff1663a17e5eef8484846040518463ffffffff1660e01b8152600401610708939291906115a2565b600060405180830381600087803b15801561072257600080fd5b505af1158015610736573d6000803e3d6000fd5b50505050505050565b6001602052816000526040600020818154811061075b57600080fd5b9060005260206000209060020201600091509150508060000154908060010154905082565b610788610a7a565b3373ffffffffffffffffffffffffffffffffffffffff16600260009054906101000a900473ffffffffffffffffffffffffffffffffffffffff1673ffffffffffffffffffffffffffffffffffffffff16636352211e836040518263ffffffff1660e01b81526004016107fa9190611587565b60206040518083038186803b15801561081257600080fd5b505afa158015610826573d6000803e3d6000fd5b505050506040513d601f19601f8201168201806040525081019061084a9190610f76565b73ffffffffffffffffffffffffffffffffffffffff161461086a57600080fd5b600a600160008473ffffffffffffffffffffffffffffffffffffffff1673ffffffffffffffffffffffffffffffffffffffff1681526020019081526020016000208054905011156108ba57600080fd5b600260009054906101000a900473ffffffffffffffffffffffffffffffffffffffff1673ffffffffffffffffffffffffffffffffffffffff166342842e0e3330846040518463ffffffff1660e01b8152600401610919939291906114b0565b600060405180830381600087803b15801561093357600080fd5b505af1158015610947573d6000803e3d6000fd5b5050505060006040518060400160405280838152602001621275004261096d9190611804565b8152509050600160008473ffffffffffffffffffffffffffffffffffffffff1673ffffffffffffffffffffffffffffffffffffffff16815260200190815260200160002081908060018154018082558091505060019003906000526020600020906002020160009091909190915060008201518160000155602082015181600101555050505050565b6109fe610a7a565b600073ffffffffffffffffffffffffffffffffffffffff168173ffffffffffffffffffffffffffffffffffffffff161415610a6e576040517f08c379a0000000000000000000000000000000000000000000000000000000008152600401610a6590611547565b60405180910390fd5b610a7781610af8565b50565b610a82610bbc565b73ffffffffffffffffffffffffffffffffffffffff16610aa0610678565b73ffffffffffffffffffffffffffffffffffffffff1614610af6576040517f08c379a0000000000000000000000000000000000000000000000000000000008152600401610aed90611567565b60405180910390fd5b565b60008060009054906101000a900473ffffffffffffffffffffffffffffffffffffffff169050816000806101000a81548173ffffffffffffffffffffffffffffffffffffffff021916908373ffffffffffffffffffffffffffffffffffffffff1602179055508173ffffffffffffffffffffffffffffffffffffffff168173ffffffffffffffffffffffffffffffffffffffff167f8be0079c531659141344cd1fd0a4f28419497f9722a3daafe3b4186f6b6457e060405160405180910390a35050565b600033905090565b5080546000825560020290600052602060002090810190610be59190610be8565b50565b5b80821115610c0b57600080820160009055600182016000905550600201610be9565b5090565b6000610c22610c1d84611635565b611610565b9050808382526020820190508260005b85811015610c625781358501610c488882610e44565b845260208401935060208301925050600181019050610c32565b5050509392505050565b6000610c7f610c7a84611661565b611610565b9050808382526020820190508260005b85811015610cbf5781358501610ca58882610e98565b845260208401935060208301925050600181019050610c8f565b5050509392505050565b6000610cdc610cd78461168d565b611610565b90508083825260208201905082856040860282011115610cfb57600080fd5b60005b85811015610d2b5781610d118882610ec2565b845260208401935060408301925050600181019050610cfe565b5050509392505050565b6000610d48610d43846116b9565b611610565b905082815260208101848484011115610d6057600080fd5b610d6b8482856118ec565b509392505050565b6000610d86610d81846116ea565b611610565b905082815260208101848484011115610d9e57600080fd5b610da98482856118ec565b509392505050565b600081359050610dc081611a8f565b92915050565b600081519050610dd581611a8f565b92915050565b600081359050610dea81611aa6565b92915050565b600082601f830112610e0157600080fd5b8135610e11848260208601610c0f565b91505092915050565b600082601f830112610e2b57600080fd5b8135610e3b848260208601610c6c565b91505092915050565b600082601f830112610e5557600080fd5b8135610e65848260208601610cc9565b91505092915050565b600082601f830112610e7f57600080fd5b8135610e8f848260208601610d35565b91505092915050565b600082601f830112610ea957600080fd5b8135610eb9848260208601610d73565b91505092915050565b600060408284031215610ed457600080fd5b610ede6040611610565b90506000610eee84828501610ddb565b6000830152506020610f0284828501610f38565b60208301525092915050565b600081359050610f1d81611abd565b92915050565b600081519050610f3281611abd565b92915050565b600081359050610f4781611ad4565b92915050565b600060208284031215610f5f57600080fd5b6000610f6d84828501610db1565b91505092915050565b600060208284031215610f8857600080fd5b6000610f9684828501610dc6565b91505092915050565b60008060008060808587031215610fb557600080fd5b6000610fc387828801610db1565b9450506020610fd487828801610db1565b9350506040610fe587828801610f0e565b925050606085013567ffffffffffffffff81111561100257600080fd5b61100e87828801610e6e565b91505092959194509250565b60008060006060848603121561102f57600080fd5b600061103d86828701610db1565b935050602084013567ffffffffffffffff81111561105a57600080fd5b61106686828701610e98565b925050604084013567ffffffffffffffff81111561108357600080fd5b61108f86828701610e44565b9150509250925092565b600080604083850312156110ac57600080fd5b60006110ba85828601610db1565b92505060206110cb85828601610f0e565b9150509250929050565b6000602082840312156110e757600080fd5b60006110f584828501610f23565b91505092915050565b60008060006060848603121561111357600080fd5b600061112186828701610f0e565b935050602084013567ffffffffffffffff81111561113e57600080fd5b61114a86828701610e1a565b925050604084013567ffffffffffffffff81111561116757600080fd5b61117386828701610df0565b9150509250925092565b600061118983836112c5565b905092915050565b600061119d8383611390565b905092915050565b60006111b18383611448565b60408301905092915050565b6111c68161186c565b82525050565b6111d58161185a565b82525050565b60006111e68261174b565b6111f0818561179e565b9350836020820285016112028561171b565b8060005b8581101561123e578484038952815161121f858261117d565b945061122a83611777565b925060208a01995050600181019050611206565b50829750879550505050505092915050565b600061125b82611756565b61126581856117af565b9350836020820285016112778561172b565b8060005b858110156112b357848403895281516112948582611191565b945061129f83611784565b925060208a0199505060018101905061127b565b50829750879550505050505092915050565b60006112d082611761565b6112da81856117c0565b93506112e58361173b565b8060005b838110156113165781516112fd88826111a5565b975061130883611791565b9250506001810190506112e9565b5085935050505092915050565b600061132e82611761565b61133881856117d1565b93506113438361173b565b8060005b8381101561137457815161135b88826111a5565b975061136683611791565b925050600181019050611347565b5085935050505092915050565b61138a8161187e565b82525050565b600061139b8261176c565b6113a581856117e2565b93506113b58185602086016118fb565b6113be81611a06565b840191505092915050565b60006113d48261176c565b6113de81856117f3565b93506113ee8185602086016118fb565b6113f781611a06565b840191505092915050565b600061140f6026836117f3565b915061141a82611a17565b604082019050919050565b60006114326020836117f3565b915061143d82611a66565b602082019050919050565b60408201600082015161145e60008501826111bd565b5060208201516114716020850182611486565b50505050565b611480816118ca565b82525050565b61148f816118d4565b82525050565b60006020820190506114aa60008301846111cc565b92915050565b60006060820190506114c560008301866111cc565b6114d260208301856111cc565b6114df6040830184611477565b949350505050565b60006060820190506114fc60008301866111cc565b818103602083015261150e81856113c9565b905081810360408301526115228184611323565b9050949350505050565b60006020820190506115416000830184611381565b92915050565b6000602082019050818103600083015261156081611402565b9050919050565b6000602082019050818103600083015261158081611425565b9050919050565b600060208201905061159c6000830184611477565b92915050565b60006060820190506115b76000830186611477565b81810360208301526115c98185611250565b905081810360408301526115dd81846111db565b9050949350505050565b60006040820190506115fc6000830185611477565b6116096020830184611477565b9392505050565b600061161a61162b565b9050611626828261192e565b919050565b6000604051905090565b600067ffffffffffffffff8211156116505761164f6119d7565b5b602082029050602081019050919050565b600067ffffffffffffffff82111561167c5761167b6119d7565b5b602082029050602081019050919050565b600067ffffffffffffffff8211156116a8576116a76119d7565b5b602082029050602081019050919050565b600067ffffffffffffffff8211156116d4576116d36119d7565b5b6116dd82611a06565b9050602081019050919050565b600067ffffffffffffffff821115611705576117046119d7565b5b61170e82611a06565b9050602081019050919050565b6000819050602082019050919050565b6000819050602082019050919050565b6000819050602082019050919050565b600081519050919050565b600081519050919050565b600081519050919050565b600081519050919050565b6000602082019050919050565b6000602082019050919050565b6000602082019050919050565b600082825260208201905092915050565b600082825260208201905092915050565b600082825260208201905092915050565b600082825260208201905092915050565b600082825260208201905092915050565b600082825260208201905092915050565b600061180f826118ca565b915061181a836118ca565b9250827fffffffffffffffffffffffffffffffffffffffffffffffffffffffffffffffff0382111561184f5761184e6119a8565b5b828201905092915050565b6000611865826118aa565b9050919050565b6000611877826118aa565b9050919050565b60007fffffffff0000000000000000000000000000000000000000000000000000000082169050919050565b600073ffffffffffffffffffffffffffffffffffffffff82169050919050565b6000819050919050565b60006bffffffffffffffffffffffff82169050919050565b82818337600083830152505050565b60005b838110156119195780820151818401526020810190506118fe565b83811115611928576000848401525b50505050565b61193782611a06565b810181811067ffffffffffffffff82111715611956576119556119d7565b5b80604052505050565b600061196a826118ca565b91507fffffffffffffffffffffffffffffffffffffffffffffffffffffffffffffffff82141561199d5761199c6119a8565b5b600182019050919050565b7f4e487b7100000000000000000000000000000000000000000000000000000000600052601160045260246000fd5b7f4e487b7100000000000000000000000000000000000000000000000000000000600052604160045260246000fd5b6000601f19601f8301169050919050565b7f4f776e61626c653a206e6577206f776e657220697320746865207a65726f206160008201527f6464726573730000000000000000000000000000000000000000000000000000602082015250565b7f4f776e61626c653a2063616c6c6572206973206e6f7420746865206f776e6572600082015250565b611a988161185a565b8114611aa357600080fd5b50565b611aaf8161186c565b8114611aba57600080fd5b50565b611ac6816118ca565b8114611ad157600080fd5b50565b611add816118d4565b8114611ae857600080fd5b5056fea2646970667358221220523de2bd0a0685b9064bdc3c069b8c2c1d7c31230d307b0d501a573d782d96cb64736f6c63430008020033",
  "linkReferences": {},
  "deployedLinkReferences": {}
}