{
  "_format": "hh-sol-artifact-1",
  "contractName": "TokenFactory",
  "sourceName": "contracts/TokenFactory.sol",
  "abi": [
    {
      "inputs": [
        {
          "internalType": "address",
          "name": "_collection",
          "type": "address"
        }
      ],
      "name": "addCollection",
      "outputs": [],
      "stateMutability": "nonpayable",
      "type": "function"
    },
    {
      "inputs": [
        {
          "internalType": "address",
          "name": "",
          "type": "address"
        }
      ],
      "name": "collectionToOwner",
      "outputs": [
        {
          "internalType": "address",
          "name": "",
          "type": "address"
        }
      ],
      "stateMutability": "view",
      "type": "function"
    }
  ],
  "bytecode": "0x608060405234801561001057600080fd5b50610221806100206000396000f3fe608060405234801561001057600080fd5b50600436106100365760003560e01c806340045db61461003b578063a174e77a1461006b575b600080fd5b6100556004803603810190610050919061014f565b610087565b6040516100629190610187565b60405180910390f35b6100856004803603810190610080919061014f565b6100ba565b005b60006020528060005260406000206000915054906101000a900473ffffffffffffffffffffffffffffffffffffffff1681565b336000808373ffffffffffffffffffffffffffffffffffffffff1673ffffffffffffffffffffffffffffffffffffffff16815260200190815260200160002060006101000a81548173ffffffffffffffffffffffffffffffffffffffff021916908373ffffffffffffffffffffffffffffffffffffffff16021790555050565b600081359050610149816101d4565b92915050565b60006020828403121561016157600080fd5b600061016f8482850161013a565b91505092915050565b610181816101a2565b82525050565b600060208201905061019c6000830184610178565b92915050565b60006101ad826101b4565b9050919050565b600073ffffffffffffffffffffffffffffffffffffffff82169050919050565b6101dd816101a2565b81146101e857600080fd5b5056fea264697066735822122050292d6bb7dcc03933be5e53192a175c491c59095d275ced6429d2eb97c7d91b64736f6c63430008020033",
  "linkReferences": {},
  "deployedLinkReferences": {}
}