{
  "_format": "hh-sol-artifact-1",
  "contractName": "PNDC_ERC721",
  "sourceName": "contracts/PNDC_ERC721.sol",
  "abi": [
    {
      "inputs": [
        {
          "internalType": "string",
          "name": "name",
          "type": "string"
        },
        {
          "internalType": "string",
          "name": "symbol",
          "type": "string"
        }
      ],
      "stateMutability": "nonpayable",
      "type": "constructor"
    },
    {
      "anonymous": false,
      "inputs": [
        {
          "indexed": true,
          "internalType": "address",
          "name": "owner",
          "type": "address"
        },
        {
          "indexed": true,
          "internalType": "address",
          "name": "approved",
          "type": "address"
        },
        {
          "indexed": true,
          "internalType": "uint256",
          "name": "tokenId",
          "type": "uint256"
        }
      ],
      "name": "Approval",
      "type": "event"
    },
    {
      "anonymous": false,
      "inputs": [
        {
          "indexed": true,
          "internalType": "address",
          "name": "owner",
          "type": "address"
        },
        {
          "indexed": true,
          "internalType": "address",
          "name": "operator",
          "type": "address"
        },
        {
          "indexed": false,
          "internalType": "bool",
          "name": "approved",
          "type": "bool"
        }
      ],
      "name": "ApprovalForAll",
      "type": "event"
    },
    {
      "anonymous": false,
      "inputs": [
        {
          "indexed": true,
          "internalType": "address",
          "name": "previousOwner",
          "type": "address"
        },
        {
          "indexed": true,
          "internalType": "address",
          "name": "newOwner",
          "type": "address"
        }
      ],
      "name": "OwnershipTransferred",
      "type": "event"
    },
    {
      "anonymous": false,
      "inputs": [
        {
          "indexed": false,
          "internalType": "uint256",
          "name": "tokenId",
          "type": "uint256"
        },
        {
          "components": [
            {
              "internalType": "address payable",
              "name": "account",
              "type": "address"
            },
            {
              "internalType": "uint96",
              "name": "value",
              "type": "uint96"
            }
          ],
          "indexed": false,
          "internalType": "struct LibShare.Share[]",
          "name": "royalties",
          "type": "tuple[]"
        }
      ],
      "name": "RoyaltiesSetForTokenId",
      "type": "event"
    },
    {
      "anonymous": false,
      "inputs": [
        {
          "indexed": true,
          "internalType": "address",
          "name": "from",
          "type": "address"
        },
        {
          "indexed": true,
          "internalType": "address",
          "name": "to",
          "type": "address"
        },
        {
          "indexed": true,
          "internalType": "uint256",
          "name": "tokenId",
          "type": "uint256"
        }
      ],
      "name": "Transfer",
      "type": "event"
    },
    {
      "inputs": [
        {
          "internalType": "address",
          "name": "to",
          "type": "address"
        },
        {
          "internalType": "uint256",
          "name": "tokenId",
          "type": "uint256"
        }
      ],
      "name": "approve",
      "outputs": [],
      "stateMutability": "nonpayable",
      "type": "function"
    },
    {
      "inputs": [
        {
          "internalType": "address",
          "name": "owner",
          "type": "address"
        }
      ],
      "name": "balanceOf",
      "outputs": [
        {
          "internalType": "uint256",
          "name": "",
          "type": "uint256"
        }
      ],
      "stateMutability": "view",
      "type": "function"
    },
    {
      "inputs": [
        {
          "internalType": "uint256",
          "name": "_totalNft",
          "type": "uint256"
        },
        {
          "internalType": "string[]",
          "name": "_uri",
          "type": "string[]"
        },
        {
          "components": [
            {
              "internalType": "address payable",
              "name": "account",
              "type": "address"
            },
            {
              "internalType": "uint96",
              "name": "value",
              "type": "uint96"
            }
          ],
          "internalType": "struct LibShare.Share[][]",
          "name": "royaltiesSet",
          "type": "tuple[][]"
        }
      ],
      "name": "batchMint",
      "outputs": [],
      "stateMutability": "nonpayable",
      "type": "function"
    },
    {
      "inputs": [
        {
          "internalType": "uint256",
          "name": "_tokenId",
          "type": "uint256"
        }
      ],
      "name": "burn",
      "outputs": [],
      "stateMutability": "nonpayable",
      "type": "function"
    },
    {
      "inputs": [
        {
          "internalType": "uint256",
          "name": "tokenId",
          "type": "uint256"
        }
      ],
      "name": "getApproved",
      "outputs": [
        {
          "internalType": "address",
          "name": "",
          "type": "address"
        }
      ],
      "stateMutability": "view",
      "type": "function"
    },
    {
      "inputs": [
        {
          "internalType": "uint256",
          "name": "_tokenId",
          "type": "uint256"
        }
      ],
      "name": "getRoyalties",
      "outputs": [
        {
          "components": [
            {
              "internalType": "address payable",
              "name": "account",
              "type": "address"
            },
            {
              "internalType": "uint96",
              "name": "value",
              "type": "uint96"
            }
          ],
          "internalType": "struct LibShare.Share[]",
          "name": "",
          "type": "tuple[]"
        }
      ],
      "stateMutability": "view",
      "type": "function"
    },
    {
      "inputs": [
        {
          "internalType": "address",
          "name": "owner",
          "type": "address"
        },
        {
          "internalType": "address",
          "name": "operator",
          "type": "address"
        }
      ],
      "name": "isApprovedForAll",
      "outputs": [
        {
          "internalType": "bool",
          "name": "",
          "type": "bool"
        }
      ],
      "stateMutability": "view",
      "type": "function"
    },
    {
      "inputs": [],
      "name": "name",
      "outputs": [
        {
          "internalType": "string",
          "name": "",
          "type": "string"
        }
      ],
      "stateMutability": "view",
      "type": "function"
    },
    {
      "inputs": [],
      "name": "owner",
      "outputs": [
        {
          "internalType": "address",
          "name": "",
          "type": "address"
        }
      ],
      "stateMutability": "view",
      "type": "function"
    },
    {
      "inputs": [
        {
          "internalType": "uint256",
          "name": "tokenId",
          "type": "uint256"
        }
      ],
      "name": "ownerOf",
      "outputs": [
        {
          "internalType": "address",
          "name": "",
          "type": "address"
        }
      ],
      "stateMutability": "view",
      "type": "function"
    },
    {
      "inputs": [],
      "name": "renounceOwnership",
      "outputs": [],
      "stateMutability": "nonpayable",
      "type": "function"
    },
    {
      "inputs": [
        {
          "internalType": "uint256",
          "name": "",
          "type": "uint256"
        },
        {
          "internalType": "uint256",
          "name": "",
          "type": "uint256"
        }
      ],
      "name": "royaltiesByTokenId",
      "outputs": [
        {
          "internalType": "address payable",
          "name": "account",
          "type": "address"
        },
        {
          "internalType": "uint96",
          "name": "value",
          "type": "uint96"
        }
      ],
      "stateMutability": "view",
      "type": "function"
    },
    {
      "inputs": [
        {
          "internalType": "address",
          "name": "to",
          "type": "address"
        },
        {
          "internalType": "string",
          "name": "uri",
          "type": "string"
        },
        {
          "components": [
            {
              "internalType": "address payable",
              "name": "account",
              "type": "address"
            },
            {
              "internalType": "uint96",
              "name": "value",
              "type": "uint96"
            }
          ],
          "internalType": "struct LibShare.Share[]",
          "name": "royalties",
          "type": "tuple[]"
        }
      ],
      "name": "safeMint",
      "outputs": [
        {
          "internalType": "uint256",
          "name": "",
          "type": "uint256"
        }
      ],
      "stateMutability": "nonpayable",
      "type": "function"
    },
    {
      "inputs": [
        {
          "internalType": "address",
          "name": "from",
          "type": "address"
        },
        {
          "internalType": "address",
          "name": "to",
          "type": "address"
        },
        {
          "internalType": "uint256",
          "name": "tokenId",
          "type": "uint256"
        }
      ],
      "name": "safeTransferFrom",
      "outputs": [],
      "stateMutability": "nonpayable",
      "type": "function"
    },
    {
      "inputs": [
        {
          "internalType": "address",
          "name": "from",
          "type": "address"
        },
        {
          "internalType": "address",
          "name": "to",
          "type": "address"
        },
        {
          "internalType": "uint256",
          "name": "tokenId",
          "type": "uint256"
        },
        {
          "internalType": "bytes",
          "name": "data",
          "type": "bytes"
        }
      ],
      "name": "safeTransferFrom",
      "outputs": [],
      "stateMutability": "nonpayable",
      "type": "function"
    },
    {
      "inputs": [
        {
          "internalType": "address",
          "name": "operator",
          "type": "address"
        },
        {
          "internalType": "bool",
          "name": "approved",
          "type": "bool"
        }
      ],
      "name": "setApprovalForAll",
      "outputs": [],
      "stateMutability": "nonpayable",
      "type": "function"
    },
    {
      "inputs": [
        {
          "internalType": "bytes4",
          "name": "interfaceId",
          "type": "bytes4"
        }
      ],
      "name": "supportsInterface",
      "outputs": [
        {
          "internalType": "bool",
          "name": "",
          "type": "bool"
        }
      ],
      "stateMutability": "view",
      "type": "function"
    },
    {
      "inputs": [],
      "name": "symbol",
      "outputs": [
        {
          "internalType": "string",
          "name": "",
          "type": "string"
        }
      ],
      "stateMutability": "view",
      "type": "function"
    },
    {
      "inputs": [
        {
          "internalType": "uint256",
          "name": "index",
          "type": "uint256"
        }
      ],
      "name": "tokenByIndex",
      "outputs": [
        {
          "internalType": "uint256",
          "name": "",
          "type": "uint256"
        }
      ],
      "stateMutability": "view",
      "type": "function"
    },
    {
      "inputs": [
        {
          "internalType": "address",
          "name": "owner",
          "type": "address"
        },
        {
          "internalType": "uint256",
          "name": "index",
          "type": "uint256"
        }
      ],
      "name": "tokenOfOwnerByIndex",
      "outputs": [
        {
          "internalType": "uint256",
          "name": "",
          "type": "uint256"
        }
      ],
      "stateMutability": "view",
      "type": "function"
    },
    {
      "inputs": [
        {
          "internalType": "uint256",
          "name": "tokenId",
          "type": "uint256"
        }
      ],
      "name": "tokenURI",
      "outputs": [
        {
          "internalType": "string",
          "name": "",
          "type": "string"
        }
      ],
      "stateMutability": "view",
      "type": "function"
    },
    {
      "inputs": [],
      "name": "totalSupply",
      "outputs": [
        {
          "internalType": "uint256",
          "name": "",
          "type": "uint256"
        }
      ],
      "stateMutability": "view",
      "type": "function"
    },
    {
      "inputs": [
        {
          "internalType": "address",
          "name": "from",
          "type": "address"
        },
        {
          "internalType": "address",
          "name": "to",
          "type": "address"
        },
        {
          "internalType": "uint256",
          "name": "tokenId",
          "type": "uint256"
        }
      ],
      "name": "transferFrom",
      "outputs": [],
      "stateMutability": "nonpayable",
      "type": "function"
    },
    {
      "inputs": [
        {
          "internalType": "address",
          "name": "newOwner",
          "type": "address"
        }
      ],
      "name": "transferOwnership",
      "outputs": [],
      "stateMutability": "nonpayable",
      "type": "function"
    }
  ],
  "bytecode": "0x60806040523480156200001157600080fd5b5060405162004e8638038062004e868339818101604052810190620000379190620003b0565b818181600090805190602001906200005192919062000163565b5080600190805190602001906200006a92919062000163565b5050506200008d620000816200009560201b60201c565b6200009d60201b60201c565b50506200049a565b600033905090565b6000600b60009054906101000a900473ffffffffffffffffffffffffffffffffffffffff16905081600b60006101000a81548173ffffffffffffffffffffffffffffffffffffffff021916908373ffffffffffffffffffffffffffffffffffffffff1602179055508173ffffffffffffffffffffffffffffffffffffffff168173ffffffffffffffffffffffffffffffffffffffff167f8be0079c531659141344cd1fd0a4f28419497f9722a3daafe3b4186f6b6457e060405160405180910390a35050565b828054620001719062000464565b90600052602060002090601f016020900481019282620001955760008555620001e1565b82601f10620001b057805160ff1916838001178555620001e1565b82800160010185558215620001e1579182015b82811115620001e0578251825591602001919060010190620001c3565b5b509050620001f09190620001f4565b5090565b5b808211156200020f576000816000905550600101620001f5565b5090565b6000604051905090565b600080fd5b600080fd5b600080fd5b600080fd5b6000601f19601f8301169050919050565b7f4e487b7100000000000000000000000000000000000000000000000000000000600052604160045260246000fd5b6200027c8262000231565b810181811067ffffffffffffffff821117156200029e576200029d62000242565b5b80604052505050565b6000620002b362000213565b9050620002c1828262000271565b919050565b600067ffffffffffffffff821115620002e457620002e362000242565b5b620002ef8262000231565b9050602081019050919050565b60005b838110156200031c578082015181840152602081019050620002ff565b838111156200032c576000848401525b50505050565b6000620003496200034384620002c6565b620002a7565b9050828152602081018484840111156200036857620003676200022c565b5b62000375848285620002fc565b509392505050565b600082601f83011262000395576200039462000227565b5b8151620003a784826020860162000332565b91505092915050565b60008060408385031215620003ca57620003c96200021d565b5b600083015167ffffffffffffffff811115620003eb57620003ea62000222565b5b620003f9858286016200037d565b925050602083015167ffffffffffffffff8111156200041d576200041c62000222565b5b6200042b858286016200037d565b9150509250929050565b7f4e487b7100000000000000000000000000000000000000000000000000000000600052602260045260246000fd5b600060028204905060018216806200047d57607f821691505b6020821081141562000494576200049362000435565b5b50919050565b6149dc80620004aa6000396000f3fe608060405234801561001057600080fd5b50600436106101585760003560e01c8063715018a6116100c3578063b88d4fde1161007c578063b88d4fde146103d7578063bb3bafd6146103f3578063c87b56dd14610423578063e985e9c514610453578063f2fde38b14610483578063fb2ef4a31461049f57610158565b8063715018a61461032957806384f47a25146103335780638da5cb5b1461036357806395d89b4114610381578063a17e5eef1461039f578063a22cb465146103bb57610158565b80632f745c59116101155780632f745c591461023157806342842e0e1461026157806342966c681461027d5780634f6ccce7146102995780636352211e146102c957806370a08231146102f957610158565b806301ffc9a71461015d57806306fdde031461018d578063081812fc146101ab578063095ea7b3146101db57806318160ddd146101f757806323b872dd14610215575b600080fd5b61017760048036038101906101729190612e26565b6104d0565b6040516101849190612e6e565b60405180910390f35b6101956104e2565b6040516101a29190612f22565b60405180910390f35b6101c560048036038101906101c09190612f7a565b610574565b6040516101d29190612fe8565b60405180910390f35b6101f560048036038101906101f0919061302f565b6105ba565b005b6101ff6106d2565b60405161020c919061307e565b60405180910390f35b61022f600480360381019061022a9190613099565b6106df565b005b61024b6004803603810190610246919061302f565b61073f565b604051610258919061307e565b60405180910390f35b61027b60048036038101906102769190613099565b6107e4565b005b61029760048036038101906102929190612f7a565b610804565b005b6102b360048036038101906102ae9190612f7a565b610850565b6040516102c0919061307e565b60405180910390f35b6102e360048036038101906102de9190612f7a565b6108c1565b6040516102f09190612fe8565b60405180910390f35b610313600480360381019061030e91906130ec565b610948565b604051610320919061307e565b60405180910390f35b610331610a00565b005b61034d600480360381019061034891906133ed565b610a14565b60405161035a919061307e565b60405180910390f35b61036b610a56565b6040516103789190612fe8565b60405180910390f35b610389610a80565b6040516103969190612f22565b60405180910390f35b6103b960048036038101906103b4919061363a565b610b12565b005b6103d560048036038101906103d091906136f1565b610c81565b005b6103f160048036038101906103ec91906137d2565b610c97565b005b61040d60048036038101906104089190612f7a565b610cf9565b60405161041a9190613951565b60405180910390f35b61043d60048036038101906104389190612f7a565b610dfb565b60405161044a9190612f22565b60405180910390f35b61046d60048036038101906104689190613973565b610e0d565b60405161047a9190612e6e565b60405180910390f35b61049d600480360381019061049891906130ec565b610ea1565b005b6104b960048036038101906104b491906139b3565b610f25565b6040516104c7929190613a11565b60405180910390f35b60006104db82610f9a565b9050919050565b6060600080546104f190613a69565b80601f016020809104026020016040519081016040528092919081815260200182805461051d90613a69565b801561056a5780601f1061053f5761010080835404028352916020019161056a565b820191906000526020600020905b81548152906001019060200180831161054d57829003601f168201915b5050505050905090565b600061057f82611014565b6004600083815260200190815260200160002060009054906101000a900473ffffffffffffffffffffffffffffffffffffffff169050919050565b60006105c5826108c1565b90508073ffffffffffffffffffffffffffffffffffffffff168373ffffffffffffffffffffffffffffffffffffffff161415610636576040517f08c379a000000000000000000000000000000000000000000000000000000000815260040161062d90613b0d565b60405180910390fd5b8073ffffffffffffffffffffffffffffffffffffffff1661065561105f565b73ffffffffffffffffffffffffffffffffffffffff16148061068457506106838161067e61105f565b610e0d565b5b6106c3576040517f08c379a00000000000000000000000000000000000000000000000000000000081526004016106ba90613b9f565b60405180910390fd5b6106cd8383611067565b505050565b6000600880549050905090565b6106f06106ea61105f565b82611120565b61072f576040517f08c379a000000000000000000000000000000000000000000000000000000000815260040161072690613c31565b60405180910390fd5b61073a8383836111b5565b505050565b600061074a83610948565b821061078b576040517f08c379a000000000000000000000000000000000000000000000000000000000815260040161078290613cc3565b60405180910390fd5b600660008473ffffffffffffffffffffffffffffffffffffffff1673ffffffffffffffffffffffffffffffffffffffff168152602001908152602001600020600083815260200190815260200160002054905092915050565b6107ff83838360405180602001604052806000815250610c97565b505050565b61080d816108c1565b73ffffffffffffffffffffffffffffffffffffffff163373ffffffffffffffffffffffffffffffffffffffff161461084457600080fd5b61084d816114af565b50565b600061085a6106d2565b821061089b576040517f08c379a000000000000000000000000000000000000000000000000000000000815260040161089290613d55565b60405180910390fd5b600882815481106108af576108ae613d75565b5b90600052602060002001549050919050565b6000806108cd836114bb565b9050600073ffffffffffffffffffffffffffffffffffffffff168173ffffffffffffffffffffffffffffffffffffffff16141561093f576040517f08c379a000000000000000000000000000000000000000000000000000000000815260040161093690613df0565b60405180910390fd5b80915050919050565b60008073ffffffffffffffffffffffffffffffffffffffff168273ffffffffffffffffffffffffffffffffffffffff1614156109b9576040517f08c379a00000000000000000000000000000000000000000000000000000000081526004016109b090613e82565b60405180910390fd5b600360008373ffffffffffffffffffffffffffffffffffffffff1673ffffffffffffffffffffffffffffffffffffffff168152602001908152602001600020549050919050565b610a086114f8565b610a126000611576565b565b600080610a21600c61163c565b9050610a2d818461164a565b610a37600c611926565b610a41858261193c565b610a4b818561195a565b809150509392505050565b6000600b60009054906101000a900473ffffffffffffffffffffffffffffffffffffffff16905090565b606060018054610a8f90613a69565b80601f0160208091040260200160405190810160405280929190818152602001828054610abb90613a69565b8015610b085780601f10610add57610100808354040283529160200191610b08565b820191906000526020600020905b815481529060010190602001808311610aeb57829003601f168201915b5050505050905090565b600f831115610b56576040517f08c379a0000000000000000000000000000000000000000000000000000000008152600401610b4d90613f14565b60405180910390fd5b81518314610b99576040517f08c379a0000000000000000000000000000000000000000000000000000000008152600401610b9090613fa6565b60405180910390fd5b60005b83811015610c7b573073ffffffffffffffffffffffffffffffffffffffff166384f47a2533858481518110610bd457610bd3613d75565b5b6020026020010151858581518110610bef57610bee613d75565b5b60200260200101516040518463ffffffff1660e01b8152600401610c1593929190613fc6565b602060405180830381600087803b158015610c2f57600080fd5b505af1158015610c43573d6000803e3d6000fd5b505050506040513d601f19601f82011682018060405250810190610c679190614020565b508080610c739061407c565b915050610b9c565b50505050565b610c93610c8c61105f565b83836119ce565b5050565b610ca8610ca261105f565b83611120565b610ce7576040517f08c379a0000000000000000000000000000000000000000000000000000000008152600401610cde90613c31565b60405180910390fd5b610cf384848484611b3b565b50505050565b6060600d6000838152602001908152602001600020805480602002602001604051908101604052809291908181526020016000905b82821015610df0578382906000526020600020016040518060400160405290816000820160009054906101000a900473ffffffffffffffffffffffffffffffffffffffff1673ffffffffffffffffffffffffffffffffffffffff1673ffffffffffffffffffffffffffffffffffffffff1681526020016000820160149054906101000a90046bffffffffffffffffffffffff166bffffffffffffffffffffffff166bffffffffffffffffffffffff168152505081526020019060010190610d2e565b505050509050919050565b6060610e0682611b97565b9050919050565b6000600560008473ffffffffffffffffffffffffffffffffffffffff1673ffffffffffffffffffffffffffffffffffffffff16815260200190815260200160002060008373ffffffffffffffffffffffffffffffffffffffff1673ffffffffffffffffffffffffffffffffffffffff16815260200190815260200160002060009054906101000a900460ff16905092915050565b610ea96114f8565b600073ffffffffffffffffffffffffffffffffffffffff168173ffffffffffffffffffffffffffffffffffffffff161415610f19576040517f08c379a0000000000000000000000000000000000000000000000000000000008152600401610f1090614137565b60405180910390fd5b610f2281611576565b50565b600d6020528160005260406000208181548110610f4157600080fd5b90600052602060002001600091509150508060000160009054906101000a900473ffffffffffffffffffffffffffffffffffffffff16908060000160149054906101000a90046bffffffffffffffffffffffff16905082565b60007f780e9d63000000000000000000000000000000000000000000000000000000007bffffffffffffffffffffffffffffffffffffffffffffffffffffffff1916827bffffffffffffffffffffffffffffffffffffffffffffffffffffffff1916148061100d575061100c82611caa565b5b9050919050565b61101d81611d8c565b61105c576040517f08c379a000000000000000000000000000000000000000000000000000000000815260040161105390613df0565b60405180910390fd5b50565b600033905090565b816004600083815260200190815260200160002060006101000a81548173ffffffffffffffffffffffffffffffffffffffff021916908373ffffffffffffffffffffffffffffffffffffffff160217905550808273ffffffffffffffffffffffffffffffffffffffff166110da836108c1565b73ffffffffffffffffffffffffffffffffffffffff167f8c5be1e5ebec7d5bd14f71427d1e84f3dd0314c0f7b2291e5b200ac8c7c3b92560405160405180910390a45050565b60008061112c836108c1565b90508073ffffffffffffffffffffffffffffffffffffffff168473ffffffffffffffffffffffffffffffffffffffff16148061116e575061116d8185610e0d565b5b806111ac57508373ffffffffffffffffffffffffffffffffffffffff1661119484610574565b73ffffffffffffffffffffffffffffffffffffffff16145b91505092915050565b8273ffffffffffffffffffffffffffffffffffffffff166111d5826108c1565b73ffffffffffffffffffffffffffffffffffffffff161461122b576040517f08c379a0000000000000000000000000000000000000000000000000000000008152600401611222906141c9565b60405180910390fd5b600073ffffffffffffffffffffffffffffffffffffffff168273ffffffffffffffffffffffffffffffffffffffff16141561129b576040517f08c379a00000000000000000000000000000000000000000000000000000000081526004016112929061425b565b60405180910390fd5b6112a88383836001611dcd565b8273ffffffffffffffffffffffffffffffffffffffff166112c8826108c1565b73ffffffffffffffffffffffffffffffffffffffff161461131e576040517f08c379a0000000000000000000000000000000000000000000000000000000008152600401611315906141c9565b60405180910390fd5b6004600082815260200190815260200160002060006101000a81549073ffffffffffffffffffffffffffffffffffffffff02191690556001600360008573ffffffffffffffffffffffffffffffffffffffff1673ffffffffffffffffffffffffffffffffffffffff168152602001908152602001600020600082825403925050819055506001600360008473ffffffffffffffffffffffffffffffffffffffff1673ffffffffffffffffffffffffffffffffffffffff16815260200190815260200160002060008282540192505081905550816002600083815260200190815260200160002060006101000a81548173ffffffffffffffffffffffffffffffffffffffff021916908373ffffffffffffffffffffffffffffffffffffffff160217905550808273ffffffffffffffffffffffffffffffffffffffff168473ffffffffffffffffffffffffffffffffffffffff167fddf252ad1be2c89b69c2b068fc378daa952ba7f163c4a11628f55a4df523b3ef60405160405180910390a46114aa8383836001611ddf565b505050565b6114b881611de5565b50565b60006002600083815260200190815260200160002060009054906101000a900473ffffffffffffffffffffffffffffffffffffffff169050919050565b61150061105f565b73ffffffffffffffffffffffffffffffffffffffff1661151e610a56565b73ffffffffffffffffffffffffffffffffffffffff1614611574576040517f08c379a000000000000000000000000000000000000000000000000000000000815260040161156b906142c7565b60405180910390fd5b565b6000600b60009054906101000a900473ffffffffffffffffffffffffffffffffffffffff16905081600b60006101000a81548173ffffffffffffffffffffffffffffffffffffffff021916908373ffffffffffffffffffffffffffffffffffffffff1602179055508173ffffffffffffffffffffffffffffffffffffffff168173ffffffffffffffffffffffffffffffffffffffff167f8be0079c531659141344cd1fd0a4f28419497f9722a3daafe3b4186f6b6457e060405160405180910390a35050565b600081600001549050919050565b600a8151111561165957600080fd5b600d600083815260200190815260200160002060006116789190612c59565b6000805b82518110156118a357600073ffffffffffffffffffffffffffffffffffffffff168382815181106116b0576116af613d75565b5b60200260200101516000015173ffffffffffffffffffffffffffffffffffffffff161415611713576040517f08c379a000000000000000000000000000000000000000000000000000000000815260040161170a90614359565b60405180910390fd5b600083828151811061172857611727613d75565b5b6020026020010151602001516bffffffffffffffffffffffff161415611783576040517f08c379a000000000000000000000000000000000000000000000000000000000815260040161177a906143c5565b60405180910390fd5b600d60008581526020019081526020016000208382815181106117a9576117a8613d75565b5b60200260200101519080600181540180825580915050600190039060005260206000200160009091909190915060008201518160000160006101000a81548173ffffffffffffffffffffffffffffffffffffffff021916908373ffffffffffffffffffffffffffffffffffffffff16021790555060208201518160000160146101000a8154816bffffffffffffffffffffffff02191690836bffffffffffffffffffffffff160217905550505082818151811061186957611868613d75565b5b6020026020010151602001516bffffffffffffffffffffffff168261188e91906143e5565b9150808061189b9061407c565b91505061167c565b5061271081106118e8576040517f08c379a00000000000000000000000000000000000000000000000000000000081526004016118df90614487565b60405180910390fd5b7fe23425cf56a81561c420f592eb54f21107c562f26c8c78c4a20d26920d244e6683836040516119199291906144a7565b60405180910390a1505050565b6001816000016000828254019250508190555050565b611956828260405180602001604052806000815250611e38565b5050565b61196382611d8c565b6119a2576040517f08c379a000000000000000000000000000000000000000000000000000000000815260040161199990614549565b60405180910390fd5b80600a600084815260200190815260200160002090805190602001906119c9929190612c7a565b505050565b8173ffffffffffffffffffffffffffffffffffffffff168373ffffffffffffffffffffffffffffffffffffffff161415611a3d576040517f08c379a0000000000000000000000000000000000000000000000000000000008152600401611a34906145b5565b60405180910390fd5b80600560008573ffffffffffffffffffffffffffffffffffffffff1673ffffffffffffffffffffffffffffffffffffffff16815260200190815260200160002060008473ffffffffffffffffffffffffffffffffffffffff1673ffffffffffffffffffffffffffffffffffffffff16815260200190815260200160002060006101000a81548160ff0219169083151502179055508173ffffffffffffffffffffffffffffffffffffffff168373ffffffffffffffffffffffffffffffffffffffff167f17307eab39ab6107e8899845ad3d59bd9653f200f220920489ca2b5937696c3183604051611b2e9190612e6e565b60405180910390a3505050565b611b468484846111b5565b611b5284848484611e93565b611b91576040517f08c379a0000000000000000000000000000000000000000000000000000000008152600401611b8890614647565b60405180910390fd5b50505050565b6060611ba282611014565b6000600a60008481526020019081526020016000208054611bc290613a69565b80601f0160208091040260200160405190810160405280929190818152602001828054611bee90613a69565b8015611c3b5780601f10611c1057610100808354040283529160200191611c3b565b820191906000526020600020905b815481529060010190602001808311611c1e57829003601f168201915b505050505090506000611c4c61202a565b9050600081511415611c62578192505050611ca5565b600082511115611c97578082604051602001611c7f9291906146a3565b60405160208183030381529060405292505050611ca5565b611ca084612041565b925050505b919050565b60007f80ac58cd000000000000000000000000000000000000000000000000000000007bffffffffffffffffffffffffffffffffffffffffffffffffffffffff1916827bffffffffffffffffffffffffffffffffffffffffffffffffffffffff19161480611d7557507f5b5e139f000000000000000000000000000000000000000000000000000000007bffffffffffffffffffffffffffffffffffffffffffffffffffffffff1916827bffffffffffffffffffffffffffffffffffffffffffffffffffffffff1916145b80611d855750611d84826120a9565b5b9050919050565b60008073ffffffffffffffffffffffffffffffffffffffff16611dae836114bb565b73ffffffffffffffffffffffffffffffffffffffff1614159050919050565b611dd984848484612113565b50505050565b50505050565b611dee81612273565b6000600a60008381526020019081526020016000208054611e0e90613a69565b905014611e3557600a60008281526020019081526020016000206000611e349190612d00565b5b50565b611e4283836123c1565b611e4f6000848484611e93565b611e8e576040517f08c379a0000000000000000000000000000000000000000000000000000000008152600401611e8590614647565b60405180910390fd5b505050565b6000611eb48473ffffffffffffffffffffffffffffffffffffffff166125df565b1561201d578373ffffffffffffffffffffffffffffffffffffffff1663150b7a02611edd61105f565b8786866040518563ffffffff1660e01b8152600401611eff949392919061471c565b602060405180830381600087803b158015611f1957600080fd5b505af1925050508015611f4a57506040513d601f19601f82011682018060405250810190611f47919061477d565b60015b611fcd573d8060008114611f7a576040519150601f19603f3d011682016040523d82523d6000602084013e611f7f565b606091505b50600081511415611fc5576040517f08c379a0000000000000000000000000000000000000000000000000000000008152600401611fbc90614647565b60405180910390fd5b805181602001fd5b63150b7a0260e01b7bffffffffffffffffffffffffffffffffffffffffffffffffffffffff1916817bffffffffffffffffffffffffffffffffffffffffffffffffffffffff191614915050612022565b600190505b949350505050565b606060405180602001604052806000815250905090565b606061204c82611014565b600061205661202a565b9050600081511161207657604051806020016040528060008152506120a1565b8061208084612602565b6040516020016120919291906146a3565b6040516020818303038152906040525b915050919050565b60007f01ffc9a7000000000000000000000000000000000000000000000000000000007bffffffffffffffffffffffffffffffffffffffffffffffffffffffff1916827bffffffffffffffffffffffffffffffffffffffffffffffffffffffff1916149050919050565b61211f848484846126da565b6001811115612163576040517f08c379a000000000000000000000000000000000000000000000000000000000815260040161215a9061481c565b60405180910390fd5b6000829050600073ffffffffffffffffffffffffffffffffffffffff168573ffffffffffffffffffffffffffffffffffffffff1614156121ab576121a681612800565b6121ea565b8373ffffffffffffffffffffffffffffffffffffffff168573ffffffffffffffffffffffffffffffffffffffff16146121e9576121e88582612849565b5b5b600073ffffffffffffffffffffffffffffffffffffffff168473ffffffffffffffffffffffffffffffffffffffff16141561222d57612228816129b6565b61226c565b8473ffffffffffffffffffffffffffffffffffffffff168473ffffffffffffffffffffffffffffffffffffffff161461226b5761226a8482612a87565b5b5b5050505050565b600061227e826108c1565b905061228e816000846001611dcd565b612297826108c1565b90506004600083815260200190815260200160002060006101000a81549073ffffffffffffffffffffffffffffffffffffffff02191690556001600360008373ffffffffffffffffffffffffffffffffffffffff1673ffffffffffffffffffffffffffffffffffffffff168152602001908152602001600020600082825403925050819055506002600083815260200190815260200160002060006101000a81549073ffffffffffffffffffffffffffffffffffffffff021916905581600073ffffffffffffffffffffffffffffffffffffffff168273ffffffffffffffffffffffffffffffffffffffff167fddf252ad1be2c89b69c2b068fc378daa952ba7f163c4a11628f55a4df523b3ef60405160405180910390a46123bd816000846001611ddf565b5050565b600073ffffffffffffffffffffffffffffffffffffffff168273ffffffffffffffffffffffffffffffffffffffff161415612431576040517f08c379a000000000000000000000000000000000000000000000000000000000815260040161242890614888565b60405180910390fd5b61243a81611d8c565b1561247a576040517f08c379a0000000000000000000000000000000000000000000000000000000008152600401612471906148f4565b60405180910390fd5b612488600083836001611dcd565b61249181611d8c565b156124d1576040517f08c379a00000000000000000000000000000000000000000000000000000000081526004016124c8906148f4565b60405180910390fd5b6001600360008473ffffffffffffffffffffffffffffffffffffffff1673ffffffffffffffffffffffffffffffffffffffff16815260200190815260200160002060008282540192505081905550816002600083815260200190815260200160002060006101000a81548173ffffffffffffffffffffffffffffffffffffffff021916908373ffffffffffffffffffffffffffffffffffffffff160217905550808273ffffffffffffffffffffffffffffffffffffffff16600073ffffffffffffffffffffffffffffffffffffffff167fddf252ad1be2c89b69c2b068fc378daa952ba7f163c4a11628f55a4df523b3ef60405160405180910390a46125db600083836001611ddf565b5050565b6000808273ffffffffffffffffffffffffffffffffffffffff163b119050919050565b60606000600161261184612b06565b01905060008167ffffffffffffffff8111156126305761262f613123565b5b6040519080825280601f01601f1916602001820160405280156126625781602001600182028036833780820191505090505b509050600082602001820190505b6001156126cf578080600190039150507f3031323334353637383961626364656600000000000000000000000000000000600a86061a8153600a85816126b9576126b8614914565b5b04945060008514156126ca576126cf565b612670565b819350505050919050565b60018111156127fa57600073ffffffffffffffffffffffffffffffffffffffff168473ffffffffffffffffffffffffffffffffffffffff161461276e5780600360008673ffffffffffffffffffffffffffffffffffffffff1673ffffffffffffffffffffffffffffffffffffffff16815260200190815260200160002060008282546127669190614943565b925050819055505b600073ffffffffffffffffffffffffffffffffffffffff168373ffffffffffffffffffffffffffffffffffffffff16146127f95780600360008573ffffffffffffffffffffffffffffffffffffffff1673ffffffffffffffffffffffffffffffffffffffff16815260200190815260200160002060008282546127f191906143e5565b925050819055505b5b50505050565b6008805490506009600083815260200190815260200160002081905550600881908060018154018082558091505060019003906000526020600020016000909190919091505550565b6000600161285684610948565b6128609190614943565b9050600060076000848152602001908152602001600020549050818114612945576000600660008673ffffffffffffffffffffffffffffffffffffffff1673ffffffffffffffffffffffffffffffffffffffff168152602001908152602001600020600084815260200190815260200160002054905080600660008773ffffffffffffffffffffffffffffffffffffffff1673ffffffffffffffffffffffffffffffffffffffff168152602001908152602001600020600084815260200190815260200160002081905550816007600083815260200190815260200160002081905550505b6007600084815260200190815260200160002060009055600660008573ffffffffffffffffffffffffffffffffffffffff1673ffffffffffffffffffffffffffffffffffffffff16815260200190815260200160002060008381526020019081526020016000206000905550505050565b600060016008805490506129ca9190614943565b90506000600960008481526020019081526020016000205490506000600883815481106129fa576129f9613d75565b5b906000526020600020015490508060088381548110612a1c57612a1b613d75565b5b906000526020600020018190555081600960008381526020019081526020016000208190555060096000858152602001908152602001600020600090556008805480612a6b57612a6a614977565b5b6001900381819060005260206000200160009055905550505050565b6000612a9283610948565b905081600660008573ffffffffffffffffffffffffffffffffffffffff1673ffffffffffffffffffffffffffffffffffffffff168152602001908152602001600020600083815260200190815260200160002081905550806007600084815260200190815260200160002081905550505050565b600080600090507a184f03e93ff9f4daa797ed6e38ed64bf6a1f0100000000000000008310612b64577a184f03e93ff9f4daa797ed6e38ed64bf6a1f0100000000000000008381612b5a57612b59614914565b5b0492506040810190505b6d04ee2d6d415b85acef81000000008310612ba1576d04ee2d6d415b85acef81000000008381612b9757612b96614914565b5b0492506020810190505b662386f26fc100008310612bd057662386f26fc100008381612bc657612bc5614914565b5b0492506010810190505b6305f5e1008310612bf9576305f5e1008381612bef57612bee614914565b5b0492506008810190505b6127108310612c1e576127108381612c1457612c13614914565b5b0492506004810190505b60648310612c415760648381612c3757612c36614914565b5b0492506002810190505b600a8310612c50576001810190505b80915050919050565b5080546000825590600052602060002090810190612c779190612d40565b50565b828054612c8690613a69565b90600052602060002090601f016020900481019282612ca85760008555612cef565b82601f10612cc157805160ff1916838001178555612cef565b82800160010185558215612cef579182015b82811115612cee578251825591602001919060010190612cd3565b5b509050612cfc9190612d9d565b5090565b508054612d0c90613a69565b6000825580601f10612d1e5750612d3d565b601f016020900490600052602060002090810190612d3c9190612d9d565b5b50565b5b80821115612d9957600080820160006101000a81549073ffffffffffffffffffffffffffffffffffffffff02191690556000820160146101000a8154906bffffffffffffffffffffffff021916905550600101612d41565b5090565b5b80821115612db6576000816000905550600101612d9e565b5090565b6000604051905090565b600080fd5b600080fd5b60007fffffffff0000000000000000000000000000000000000000000000000000000082169050919050565b612e0381612dce565b8114612e0e57600080fd5b50565b600081359050612e2081612dfa565b92915050565b600060208284031215612e3c57612e3b612dc4565b5b6000612e4a84828501612e11565b91505092915050565b60008115159050919050565b612e6881612e53565b82525050565b6000602082019050612e836000830184612e5f565b92915050565b600081519050919050565b600082825260208201905092915050565b60005b83811015612ec3578082015181840152602081019050612ea8565b83811115612ed2576000848401525b50505050565b6000601f19601f8301169050919050565b6000612ef482612e89565b612efe8185612e94565b9350612f0e818560208601612ea5565b612f1781612ed8565b840191505092915050565b60006020820190508181036000830152612f3c8184612ee9565b905092915050565b6000819050919050565b612f5781612f44565b8114612f6257600080fd5b50565b600081359050612f7481612f4e565b92915050565b600060208284031215612f9057612f8f612dc4565b5b6000612f9e84828501612f65565b91505092915050565b600073ffffffffffffffffffffffffffffffffffffffff82169050919050565b6000612fd282612fa7565b9050919050565b612fe281612fc7565b82525050565b6000602082019050612ffd6000830184612fd9565b92915050565b61300c81612fc7565b811461301757600080fd5b50565b60008135905061302981613003565b92915050565b6000806040838503121561304657613045612dc4565b5b60006130548582860161301a565b925050602061306585828601612f65565b9150509250929050565b61307881612f44565b82525050565b6000602082019050613093600083018461306f565b92915050565b6000806000606084860312156130b2576130b1612dc4565b5b60006130c08682870161301a565b93505060206130d18682870161301a565b92505060406130e286828701612f65565b9150509250925092565b60006020828403121561310257613101612dc4565b5b60006131108482850161301a565b91505092915050565b600080fd5b600080fd5b7f4e487b7100000000000000000000000000000000000000000000000000000000600052604160045260246000fd5b61315b82612ed8565b810181811067ffffffffffffffff8211171561317a57613179613123565b5b80604052505050565b600061318d612dba565b90506131998282613152565b919050565b600067ffffffffffffffff8211156131b9576131b8613123565b5b6131c282612ed8565b9050602081019050919050565b82818337600083830152505050565b60006131f16131ec8461319e565b613183565b90508281526020810184848401111561320d5761320c61311e565b5b6132188482856131cf565b509392505050565b600082601f83011261323557613234613119565b5b81356132458482602086016131de565b91505092915050565b600067ffffffffffffffff82111561326957613268613123565b5b602082029050602081019050919050565b600080fd5b600080fd5b600061328f82612fa7565b9050919050565b61329f81613284565b81146132aa57600080fd5b50565b6000813590506132bc81613296565b92915050565b60006bffffffffffffffffffffffff82169050919050565b6132e3816132c2565b81146132ee57600080fd5b50565b600081359050613300816132da565b92915050565b60006040828403121561331c5761331b61327f565b5b6133266040613183565b90506000613336848285016132ad565b600083015250602061334a848285016132f1565b60208301525092915050565b60006133696133648461324e565b613183565b9050808382526020820190506040840283018581111561338c5761338b61327a565b5b835b818110156133b557806133a18882613306565b84526020840193505060408101905061338e565b5050509392505050565b600082601f8301126133d4576133d3613119565b5b81356133e4848260208601613356565b91505092915050565b60008060006060848603121561340657613405612dc4565b5b60006134148682870161301a565b935050602084013567ffffffffffffffff81111561343557613434612dc9565b5b61344186828701613220565b925050604084013567ffffffffffffffff81111561346257613461612dc9565b5b61346e868287016133bf565b9150509250925092565b600067ffffffffffffffff82111561349357613492613123565b5b602082029050602081019050919050565b60006134b76134b284613478565b613183565b905080838252602082019050602084028301858111156134da576134d961327a565b5b835b8181101561352157803567ffffffffffffffff8111156134ff576134fe613119565b5b80860161350c8982613220565b855260208501945050506020810190506134dc565b5050509392505050565b600082601f8301126135405761353f613119565b5b81356135508482602086016134a4565b91505092915050565b600067ffffffffffffffff82111561357457613573613123565b5b602082029050602081019050919050565b600061359861359384613559565b613183565b905080838252602082019050602084028301858111156135bb576135ba61327a565b5b835b8181101561360257803567ffffffffffffffff8111156135e0576135df613119565b5b8086016135ed89826133bf565b855260208501945050506020810190506135bd565b5050509392505050565b600082601f83011261362157613620613119565b5b8135613631848260208601613585565b91505092915050565b60008060006060848603121561365357613652612dc4565b5b600061366186828701612f65565b935050602084013567ffffffffffffffff81111561368257613681612dc9565b5b61368e8682870161352b565b925050604084013567ffffffffffffffff8111156136af576136ae612dc9565b5b6136bb8682870161360c565b9150509250925092565b6136ce81612e53565b81146136d957600080fd5b50565b6000813590506136eb816136c5565b92915050565b6000806040838503121561370857613707612dc4565b5b60006137168582860161301a565b9250506020613727858286016136dc565b9150509250929050565b600067ffffffffffffffff82111561374c5761374b613123565b5b61375582612ed8565b9050602081019050919050565b600061377561377084613731565b613183565b9050828152602081018484840111156137915761379061311e565b5b61379c8482856131cf565b509392505050565b600082601f8301126137b9576137b8613119565b5b81356137c9848260208601613762565b91505092915050565b600080600080608085870312156137ec576137eb612dc4565b5b60006137fa8782880161301a565b945050602061380b8782880161301a565b935050604061381c87828801612f65565b925050606085013567ffffffffffffffff81111561383d5761383c612dc9565b5b613849878288016137a4565b91505092959194509250565b600081519050919050565b600082825260208201905092915050565b6000819050602082019050919050565b61388a81613284565b82525050565b613899816132c2565b82525050565b6040820160008201516138b56000850182613881565b5060208201516138c86020850182613890565b50505050565b60006138da838361389f565b60408301905092915050565b6000602082019050919050565b60006138fe82613855565b6139088185613860565b935061391383613871565b8060005b8381101561394457815161392b88826138ce565b9750613936836138e6565b925050600181019050613917565b5085935050505092915050565b6000602082019050818103600083015261396b81846138f3565b905092915050565b6000806040838503121561398a57613989612dc4565b5b60006139988582860161301a565b92505060206139a98582860161301a565b9150509250929050565b600080604083850312156139ca576139c9612dc4565b5b60006139d885828601612f65565b92505060206139e985828601612f65565b9150509250929050565b6139fc81613284565b82525050565b613a0b816132c2565b82525050565b6000604082019050613a2660008301856139f3565b613a336020830184613a02565b9392505050565b7f4e487b7100000000000000000000000000000000000000000000000000000000600052602260045260246000fd5b60006002820490506001821680613a8157607f821691505b60208210811415613a9557613a94613a3a565b5b50919050565b7f4552433732313a20617070726f76616c20746f2063757272656e74206f776e6560008201527f7200000000000000000000000000000000000000000000000000000000000000602082015250565b6000613af7602183612e94565b9150613b0282613a9b565b604082019050919050565b60006020820190508181036000830152613b2681613aea565b9050919050565b7f4552433732313a20617070726f76652063616c6c6572206973206e6f7420746f60008201527f6b656e206f776e6572206f7220617070726f76656420666f7220616c6c000000602082015250565b6000613b89603d83612e94565b9150613b9482613b2d565b604082019050919050565b60006020820190508181036000830152613bb881613b7c565b9050919050565b7f4552433732313a2063616c6c6572206973206e6f7420746f6b656e206f776e6560008201527f72206f7220617070726f76656400000000000000000000000000000000000000602082015250565b6000613c1b602d83612e94565b9150613c2682613bbf565b604082019050919050565b60006020820190508181036000830152613c4a81613c0e565b9050919050565b7f455243373231456e756d657261626c653a206f776e657220696e646578206f7560008201527f74206f6620626f756e6473000000000000000000000000000000000000000000602082015250565b6000613cad602b83612e94565b9150613cb882613c51565b604082019050919050565b60006020820190508181036000830152613cdc81613ca0565b9050919050565b7f455243373231456e756d657261626c653a20676c6f62616c20696e646578206f60008201527f7574206f6620626f756e64730000000000000000000000000000000000000000602082015250565b6000613d3f602c83612e94565b9150613d4a82613ce3565b604082019050919050565b60006020820190508181036000830152613d6e81613d32565b9050919050565b7f4e487b7100000000000000000000000000000000000000000000000000000000600052603260045260246000fd5b7f4552433732313a20696e76616c696420746f6b656e2049440000000000000000600082015250565b6000613dda601883612e94565b9150613de582613da4565b602082019050919050565b60006020820190508181036000830152613e0981613dcd565b9050919050565b7f4552433732313a2061646472657373207a65726f206973206e6f74206120766160008201527f6c6964206f776e65720000000000000000000000000000000000000000000000602082015250565b6000613e6c602983612e94565b9150613e7782613e10565b604082019050919050565b60006020820190508181036000830152613e9b81613e5f565b9050919050565b7f4d696e74696e67206d6f7265207468616e203135204e66747320617265206e6f60008201527f7420616c6c6f7765000000000000000000000000000000000000000000000000602082015250565b6000613efe602883612e94565b9150613f0982613ea2565b604082019050919050565b60006020820190508181036000830152613f2d81613ef1565b9050919050565b7f757269206172726179206c656e6774682073686f756c6420626520657175616c60008201527f20746f205f746f74616c4e465400000000000000000000000000000000000000602082015250565b6000613f90602d83612e94565b9150613f9b82613f34565b604082019050919050565b60006020820190508181036000830152613fbf81613f83565b9050919050565b6000606082019050613fdb6000830186612fd9565b8181036020830152613fed8185612ee9565b9050818103604083015261400181846138f3565b9050949350505050565b60008151905061401a81612f4e565b92915050565b60006020828403121561403657614035612dc4565b5b60006140448482850161400b565b91505092915050565b7f4e487b7100000000000000000000000000000000000000000000000000000000600052601160045260246000fd5b600061408782612f44565b91507fffffffffffffffffffffffffffffffffffffffffffffffffffffffffffffffff8214156140ba576140b961404d565b5b600182019050919050565b7f4f776e61626c653a206e6577206f776e657220697320746865207a65726f206160008201527f6464726573730000000000000000000000000000000000000000000000000000602082015250565b6000614121602683612e94565b915061412c826140c5565b604082019050919050565b6000602082019050818103600083015261415081614114565b9050919050565b7f4552433732313a207472616e736665722066726f6d20696e636f72726563742060008201527f6f776e6572000000000000000000000000000000000000000000000000000000602082015250565b60006141b3602583612e94565b91506141be82614157565b604082019050919050565b600060208201905081810360008301526141e2816141a6565b9050919050565b7f4552433732313a207472616e7366657220746f20746865207a65726f2061646460008201527f7265737300000000000000000000000000000000000000000000000000000000602082015250565b6000614245602483612e94565b9150614250826141e9565b604082019050919050565b6000602082019050818103600083015261427481614238565b9050919050565b7f4f776e61626c653a2063616c6c6572206973206e6f7420746865206f776e6572600082015250565b60006142b1602083612e94565b91506142bc8261427b565b602082019050919050565b600060208201905081810360008301526142e0816142a4565b9050919050565b7f526f79616c747920726563697069656e742073686f756c64206265207072657360008201527f656e740000000000000000000000000000000000000000000000000000000000602082015250565b6000614343602383612e94565b915061434e826142e7565b604082019050919050565b6000602082019050818103600083015261437281614336565b9050919050565b7f526f79616c74792076616c75652073686f756c64206265203e20300000000000600082015250565b60006143af601b83612e94565b91506143ba82614379565b602082019050919050565b600060208201905081810360008301526143de816143a2565b9050919050565b60006143f082612f44565b91506143fb83612f44565b9250827fffffffffffffffffffffffffffffffffffffffffffffffffffffffffffffffff038211156144305761442f61404d565b5b828201905092915050565b7f53756d206f6620526f79616c74696573203e2031303025000000000000000000600082015250565b6000614471601783612e94565b915061447c8261443b565b602082019050919050565b600060208201905081810360008301526144a081614464565b9050919050565b60006040820190506144bc600083018561306f565b81810360208301526144ce81846138f3565b90509392505050565b7f45524337323155524953746f726167653a2055524920736574206f66206e6f6e60008201527f6578697374656e7420746f6b656e000000000000000000000000000000000000602082015250565b6000614533602e83612e94565b915061453e826144d7565b604082019050919050565b6000602082019050818103600083015261456281614526565b9050919050565b7f4552433732313a20617070726f766520746f2063616c6c657200000000000000600082015250565b600061459f601983612e94565b91506145aa82614569565b602082019050919050565b600060208201905081810360008301526145ce81614592565b9050919050565b7f4552433732313a207472616e7366657220746f206e6f6e20455243373231526560008201527f63656976657220696d706c656d656e7465720000000000000000000000000000602082015250565b6000614631603283612e94565b915061463c826145d5565b604082019050919050565b6000602082019050818103600083015261466081614624565b9050919050565b600081905092915050565b600061467d82612e89565b6146878185614667565b9350614697818560208601612ea5565b80840191505092915050565b60006146af8285614672565b91506146bb8284614672565b91508190509392505050565b600081519050919050565b600082825260208201905092915050565b60006146ee826146c7565b6146f881856146d2565b9350614708818560208601612ea5565b61471181612ed8565b840191505092915050565b60006080820190506147316000830187612fd9565b61473e6020830186612fd9565b61474b604083018561306f565b818103606083015261475d81846146e3565b905095945050505050565b60008151905061477781612dfa565b92915050565b60006020828403121561479357614792612dc4565b5b60006147a184828501614768565b91505092915050565b7f455243373231456e756d657261626c653a20636f6e736563757469766520747260008201527f616e7366657273206e6f7420737570706f727465640000000000000000000000602082015250565b6000614806603583612e94565b9150614811826147aa565b604082019050919050565b60006020820190508181036000830152614835816147f9565b9050919050565b7f4552433732313a206d696e7420746f20746865207a65726f2061646472657373600082015250565b6000614872602083612e94565b915061487d8261483c565b602082019050919050565b600060208201905081810360008301526148a181614865565b9050919050565b7f4552433732313a20746f6b656e20616c7265616479206d696e74656400000000600082015250565b60006148de601c83612e94565b91506148e9826148a8565b602082019050919050565b6000602082019050818103600083015261490d816148d1565b9050919050565b7f4e487b7100000000000000000000000000000000000000000000000000000000600052601260045260246000fd5b600061494e82612f44565b915061495983612f44565b92508282101561496c5761496b61404d565b5b828203905092915050565b7f4e487b7100000000000000000000000000000000000000000000000000000000600052603160045260246000fdfea2646970667358221220cd317cd9b105200166661f0c142d5ee6511cd3c97b32dcd1d807dfbaf414916864736f6c63430008090033",
  "linkReferences": {},
  "deployedLinkReferences": {}
}