{
  "_format": "hh-sol-artifact-1",
  "contractName": "PNDC_ERC721",
  "sourceName": "contracts/PNDC_ERC721.sol",
  "abi": [
    {
      "inputs": [
        {
          "internalType": "string",
          "name": "name",
          "type": "string"
        },
        {
          "internalType": "string",
          "name": "symbol",
          "type": "string"
        }
      ],
      "stateMutability": "nonpayable",
      "type": "constructor"
    },
    {
      "anonymous": false,
      "inputs": [
        {
          "indexed": true,
          "internalType": "address",
          "name": "owner",
          "type": "address"
        },
        {
          "indexed": true,
          "internalType": "address",
          "name": "approved",
          "type": "address"
        },
        {
          "indexed": true,
          "internalType": "uint256",
          "name": "tokenId",
          "type": "uint256"
        }
      ],
      "name": "Approval",
      "type": "event"
    },
    {
      "anonymous": false,
      "inputs": [
        {
          "indexed": true,
          "internalType": "address",
          "name": "owner",
          "type": "address"
        },
        {
          "indexed": true,
          "internalType": "address",
          "name": "operator",
          "type": "address"
        },
        {
          "indexed": false,
          "internalType": "bool",
          "name": "approved",
          "type": "bool"
        }
      ],
      "name": "ApprovalForAll",
      "type": "event"
    },
    {
      "anonymous": false,
      "inputs": [
        {
          "indexed": true,
          "internalType": "address",
          "name": "previousOwner",
          "type": "address"
        },
        {
          "indexed": true,
          "internalType": "address",
          "name": "newOwner",
          "type": "address"
        }
      ],
      "name": "OwnershipTransferred",
      "type": "event"
    },
    {
      "anonymous": false,
      "inputs": [
        {
          "indexed": false,
          "internalType": "uint256",
          "name": "tokenId",
          "type": "uint256"
        },
        {
          "components": [
            {
              "internalType": "address payable",
              "name": "account",
              "type": "address"
            },
            {
              "internalType": "uint96",
              "name": "value",
              "type": "uint96"
            }
          ],
          "indexed": false,
          "internalType": "struct LibShare.Share[]",
          "name": "royalties",
          "type": "tuple[]"
        }
      ],
      "name": "RoyaltiesSetForTokenId",
      "type": "event"
    },
    {
      "anonymous": false,
      "inputs": [
        {
          "indexed": true,
          "internalType": "address",
          "name": "from",
          "type": "address"
        },
        {
          "indexed": true,
          "internalType": "address",
          "name": "to",
          "type": "address"
        },
        {
          "indexed": true,
          "internalType": "uint256",
          "name": "tokenId",
          "type": "uint256"
        }
      ],
      "name": "Transfer",
      "type": "event"
    },
    {
      "inputs": [
        {
          "internalType": "address",
          "name": "to",
          "type": "address"
        },
        {
          "internalType": "uint256",
          "name": "tokenId",
          "type": "uint256"
        }
      ],
      "name": "approve",
      "outputs": [],
      "stateMutability": "nonpayable",
      "type": "function"
    },
    {
      "inputs": [
        {
          "internalType": "address",
          "name": "owner",
          "type": "address"
        }
      ],
      "name": "balanceOf",
      "outputs": [
        {
          "internalType": "uint256",
          "name": "",
          "type": "uint256"
        }
      ],
      "stateMutability": "view",
      "type": "function"
    },
    {
      "inputs": [
        {
          "internalType": "uint256",
          "name": "_totalNft",
          "type": "uint256"
        },
        {
          "internalType": "string[]",
          "name": "_uri",
          "type": "string[]"
        },
        {
          "components": [
            {
              "internalType": "address payable",
              "name": "account",
              "type": "address"
            },
            {
              "internalType": "uint96",
              "name": "value",
              "type": "uint96"
            }
          ],
          "internalType": "struct LibShare.Share[][]",
          "name": "royaltiesSet",
          "type": "tuple[][]"
        }
      ],
      "name": "batchMint",
      "outputs": [],
      "stateMutability": "nonpayable",
      "type": "function"
    },
    {
      "inputs": [
        {
          "internalType": "uint256",
          "name": "_tokenId",
          "type": "uint256"
        }
      ],
      "name": "burn",
      "outputs": [],
      "stateMutability": "nonpayable",
      "type": "function"
    },
    {
      "inputs": [
        {
          "internalType": "uint256",
          "name": "tokenId",
          "type": "uint256"
        }
      ],
      "name": "getApproved",
      "outputs": [
        {
          "internalType": "address",
          "name": "",
          "type": "address"
        }
      ],
      "stateMutability": "view",
      "type": "function"
    },
    {
      "inputs": [
        {
          "internalType": "uint256",
          "name": "_tokenId",
          "type": "uint256"
        }
      ],
      "name": "getRoyalties",
      "outputs": [
        {
          "components": [
            {
              "internalType": "address payable",
              "name": "account",
              "type": "address"
            },
            {
              "internalType": "uint96",
              "name": "value",
              "type": "uint96"
            }
          ],
          "internalType": "struct LibShare.Share[]",
          "name": "",
          "type": "tuple[]"
        }
      ],
      "stateMutability": "view",
      "type": "function"
    },
    {
      "inputs": [
        {
          "internalType": "address",
          "name": "owner",
          "type": "address"
        },
        {
          "internalType": "address",
          "name": "operator",
          "type": "address"
        }
      ],
      "name": "isApprovedForAll",
      "outputs": [
        {
          "internalType": "bool",
          "name": "",
          "type": "bool"
        }
      ],
      "stateMutability": "view",
      "type": "function"
    },
    {
      "inputs": [],
      "name": "name",
      "outputs": [
        {
          "internalType": "string",
          "name": "",
          "type": "string"
        }
      ],
      "stateMutability": "view",
      "type": "function"
    },
    {
      "inputs": [],
      "name": "owner",
      "outputs": [
        {
          "internalType": "address",
          "name": "",
          "type": "address"
        }
      ],
      "stateMutability": "view",
      "type": "function"
    },
    {
      "inputs": [
        {
          "internalType": "uint256",
          "name": "tokenId",
          "type": "uint256"
        }
      ],
      "name": "ownerOf",
      "outputs": [
        {
          "internalType": "address",
          "name": "",
          "type": "address"
        }
      ],
      "stateMutability": "view",
      "type": "function"
    },
    {
      "inputs": [],
      "name": "renounceOwnership",
      "outputs": [],
      "stateMutability": "nonpayable",
      "type": "function"
    },
    {
      "inputs": [
        {
          "internalType": "uint256",
          "name": "",
          "type": "uint256"
        },
        {
          "internalType": "uint256",
          "name": "",
          "type": "uint256"
        }
      ],
      "name": "royaltiesByTokenId",
      "outputs": [
        {
          "internalType": "address payable",
          "name": "account",
          "type": "address"
        },
        {
          "internalType": "uint96",
          "name": "value",
          "type": "uint96"
        }
      ],
      "stateMutability": "view",
      "type": "function"
    },
    {
      "inputs": [
        {
          "internalType": "address",
          "name": "to",
          "type": "address"
        },
        {
          "internalType": "string",
          "name": "uri",
          "type": "string"
        },
        {
          "components": [
            {
              "internalType": "address payable",
              "name": "account",
              "type": "address"
            },
            {
              "internalType": "uint96",
              "name": "value",
              "type": "uint96"
            }
          ],
          "internalType": "struct LibShare.Share[]",
          "name": "royalties",
          "type": "tuple[]"
        }
      ],
      "name": "safeMint",
      "outputs": [
        {
          "internalType": "uint256",
          "name": "",
          "type": "uint256"
        }
      ],
      "stateMutability": "nonpayable",
      "type": "function"
    },
    {
      "inputs": [
        {
          "internalType": "address",
          "name": "from",
          "type": "address"
        },
        {
          "internalType": "address",
          "name": "to",
          "type": "address"
        },
        {
          "internalType": "uint256",
          "name": "tokenId",
          "type": "uint256"
        }
      ],
      "name": "safeTransferFrom",
      "outputs": [],
      "stateMutability": "nonpayable",
      "type": "function"
    },
    {
      "inputs": [
        {
          "internalType": "address",
          "name": "from",
          "type": "address"
        },
        {
          "internalType": "address",
          "name": "to",
          "type": "address"
        },
        {
          "internalType": "uint256",
          "name": "tokenId",
          "type": "uint256"
        },
        {
          "internalType": "bytes",
          "name": "data",
          "type": "bytes"
        }
      ],
      "name": "safeTransferFrom",
      "outputs": [],
      "stateMutability": "nonpayable",
      "type": "function"
    },
    {
      "inputs": [
        {
          "internalType": "address",
          "name": "operator",
          "type": "address"
        },
        {
          "internalType": "bool",
          "name": "approved",
          "type": "bool"
        }
      ],
      "name": "setApprovalForAll",
      "outputs": [],
      "stateMutability": "nonpayable",
      "type": "function"
    },
    {
      "inputs": [
        {
          "internalType": "bytes4",
          "name": "interfaceId",
          "type": "bytes4"
        }
      ],
      "name": "supportsInterface",
      "outputs": [
        {
          "internalType": "bool",
          "name": "",
          "type": "bool"
        }
      ],
      "stateMutability": "view",
      "type": "function"
    },
    {
      "inputs": [],
      "name": "symbol",
      "outputs": [
        {
          "internalType": "string",
          "name": "",
          "type": "string"
        }
      ],
      "stateMutability": "view",
      "type": "function"
    },
    {
      "inputs": [
        {
          "internalType": "uint256",
          "name": "index",
          "type": "uint256"
        }
      ],
      "name": "tokenByIndex",
      "outputs": [
        {
          "internalType": "uint256",
          "name": "",
          "type": "uint256"
        }
      ],
      "stateMutability": "view",
      "type": "function"
    },
    {
      "inputs": [
        {
          "internalType": "address",
          "name": "owner",
          "type": "address"
        },
        {
          "internalType": "uint256",
          "name": "index",
          "type": "uint256"
        }
      ],
      "name": "tokenOfOwnerByIndex",
      "outputs": [
        {
          "internalType": "uint256",
          "name": "",
          "type": "uint256"
        }
      ],
      "stateMutability": "view",
      "type": "function"
    },
    {
      "inputs": [
        {
          "internalType": "uint256",
          "name": "tokenId",
          "type": "uint256"
        }
      ],
      "name": "tokenURI",
      "outputs": [
        {
          "internalType": "string",
          "name": "",
          "type": "string"
        }
      ],
      "stateMutability": "view",
      "type": "function"
    },
    {
      "inputs": [],
      "name": "totalSupply",
      "outputs": [
        {
          "internalType": "uint256",
          "name": "",
          "type": "uint256"
        }
      ],
      "stateMutability": "view",
      "type": "function"
    },
    {
      "inputs": [
        {
          "internalType": "address",
          "name": "from",
          "type": "address"
        },
        {
          "internalType": "address",
          "name": "to",
          "type": "address"
        },
        {
          "internalType": "uint256",
          "name": "tokenId",
          "type": "uint256"
        }
      ],
      "name": "transferFrom",
      "outputs": [],
      "stateMutability": "nonpayable",
      "type": "function"
    },
    {
      "inputs": [
        {
          "internalType": "address",
          "name": "newOwner",
          "type": "address"
        }
      ],
      "name": "transferOwnership",
      "outputs": [],
      "stateMutability": "nonpayable",
      "type": "function"
    }
  ],
  "bytecode": "0x60806040523480156200001157600080fd5b5060405162004f9c38038062004f9c833981810160405281019062000037919062000285565b818181600090805190602001906200005192919062000163565b5080600190805190602001906200006a92919062000163565b5050506200008d620000816200009560201b60201c565b6200009d60201b60201c565b505062000468565b600033905090565b6000600b60009054906101000a900473ffffffffffffffffffffffffffffffffffffffff16905081600b60006101000a81548173ffffffffffffffffffffffffffffffffffffffff021916908373ffffffffffffffffffffffffffffffffffffffff1602179055508173ffffffffffffffffffffffffffffffffffffffff168173ffffffffffffffffffffffffffffffffffffffff167f8be0079c531659141344cd1fd0a4f28419497f9722a3daafe3b4186f6b6457e060405160405180910390a35050565b82805462000171906200038d565b90600052602060002090601f016020900481019282620001955760008555620001e1565b82601f10620001b057805160ff1916838001178555620001e1565b82800160010185558215620001e1579182015b82811115620001e0578251825591602001919060010190620001c3565b5b509050620001f09190620001f4565b5090565b5b808211156200020f576000816000905550600101620001f5565b5090565b60006200022a620002248462000321565b620002f8565b9050828152602081018484840111156200024357600080fd5b6200025084828562000357565b509392505050565b600082601f8301126200026a57600080fd5b81516200027c84826020860162000213565b91505092915050565b600080604083850312156200029957600080fd5b600083015167ffffffffffffffff811115620002b457600080fd5b620002c28582860162000258565b925050602083015167ffffffffffffffff811115620002e057600080fd5b620002ee8582860162000258565b9150509250929050565b60006200030462000317565b9050620003128282620003c3565b919050565b6000604051905090565b600067ffffffffffffffff8211156200033f576200033e62000428565b5b6200034a8262000457565b9050602081019050919050565b60005b83811015620003775780820151818401526020810190506200035a565b8381111562000387576000848401525b50505050565b60006002820490506001821680620003a657607f821691505b60208210811415620003bd57620003bc620003f9565b5b50919050565b620003ce8262000457565b810181811067ffffffffffffffff82111715620003f057620003ef62000428565b5b80604052505050565b7f4e487b7100000000000000000000000000000000000000000000000000000000600052602260045260246000fd5b7f4e487b7100000000000000000000000000000000000000000000000000000000600052604160045260246000fd5b6000601f19601f8301169050919050565b614b2480620004786000396000f3fe608060405234801561001057600080fd5b50600436106101585760003560e01c8063715018a6116100c3578063b88d4fde1161007c578063b88d4fde146103d7578063bb3bafd6146103f3578063c87b56dd14610423578063e985e9c514610453578063f2fde38b14610483578063fb2ef4a31461049f57610158565b8063715018a61461032957806384f47a25146103335780638da5cb5b1461036357806395d89b4114610381578063a17e5eef1461039f578063a22cb465146103bb57610158565b80632f745c59116101155780632f745c591461023157806342842e0e1461026157806342966c681461027d5780634f6ccce7146102995780636352211e146102c957806370a08231146102f957610158565b806301ffc9a71461015d57806306fdde031461018d578063081812fc146101ab578063095ea7b3146101db57806318160ddd146101f757806323b872dd14610215575b600080fd5b610177600480360381019061017291906135f4565b6104d0565b6040516101849190613d21565b60405180910390f35b6101956104e2565b6040516101a29190613d3c565b60405180910390f35b6101c560048036038101906101c09190613646565b610574565b6040516101d29190613c2a565b60405180910390f35b6101f560048036038101906101f091906135b8565b6105ba565b005b6101ff6106d2565b60405161020c919061401e565b60405180910390f35b61022f600480360381019061022a9190613433565b6106df565b005b61024b600480360381019061024691906135b8565b61073f565b604051610258919061401e565b60405180910390f35b61027b60048036038101906102769190613433565b6107e4565b005b61029760048036038101906102929190613646565b610804565b005b6102b360048036038101906102ae9190613646565b610850565b6040516102c0919061401e565b60405180910390f35b6102e360048036038101906102de9190613646565b6108e7565b6040516102f09190613c2a565b60405180910390f35b610313600480360381019061030e91906133ce565b61096e565b604051610320919061401e565b60405180910390f35b610331610a26565b005b61034d60048036038101906103489190613539565b610a3a565b60405161035a919061401e565b60405180910390f35b61036b610a7c565b6040516103789190613c2a565b60405180910390f35b610389610aa6565b6040516103969190613d3c565b60405180910390f35b6103b960048036038101906103b49190613698565b610b38565b005b6103d560048036038101906103d091906134fd565b610cf3565b005b6103f160048036038101906103ec9190613482565b610d09565b005b61040d60048036038101906104089190613646565b610d6b565b60405161041a9190613cff565b60405180910390f35b61043d60048036038101906104389190613646565b610e6d565b60405161044a9190613d3c565b60405180910390f35b61046d600480360381019061046891906133f7565b610e7f565b60405161047a9190613d21565b60405180910390f35b61049d600480360381019061049891906133ce565b610f13565b005b6104b960048036038101906104b49190613717565b610f97565b6040516104c7929190613c45565b60405180910390f35b60006104db8261100c565b9050919050565b6060600080546104f19061435a565b80601f016020809104026020016040519081016040528092919081815260200182805461051d9061435a565b801561056a5780601f1061053f5761010080835404028352916020019161056a565b820191906000526020600020905b81548152906001019060200180831161054d57829003601f168201915b5050505050905090565b600061057f82611086565b6004600083815260200190815260200160002060009054906101000a900473ffffffffffffffffffffffffffffffffffffffff169050919050565b60006105c5826108e7565b90508073ffffffffffffffffffffffffffffffffffffffff168373ffffffffffffffffffffffffffffffffffffffff161415610636576040517f08c379a000000000000000000000000000000000000000000000000000000000815260040161062d90613f7e565b60405180910390fd5b8073ffffffffffffffffffffffffffffffffffffffff166106556110d1565b73ffffffffffffffffffffffffffffffffffffffff16148061068457506106838161067e6110d1565b610e7f565b5b6106c3576040517f08c379a00000000000000000000000000000000000000000000000000000000081526004016106ba90613f9e565b60405180910390fd5b6106cd83836110d9565b505050565b6000600880549050905090565b6106f06106ea6110d1565b82611192565b61072f576040517f08c379a000000000000000000000000000000000000000000000000000000000815260040161072690613d5e565b60405180910390fd5b61073a838383611227565b505050565b600061074a8361096e565b821061078b576040517f08c379a000000000000000000000000000000000000000000000000000000000815260040161078290613d7e565b60405180910390fd5b600660008473ffffffffffffffffffffffffffffffffffffffff1673ffffffffffffffffffffffffffffffffffffffff168152602001908152602001600020600083815260200190815260200160002054905092915050565b6107ff83838360405180602001604052806000815250610d09565b505050565b61080d816108e7565b73ffffffffffffffffffffffffffffffffffffffff163373ffffffffffffffffffffffffffffffffffffffff161461084457600080fd5b61084d81611521565b50565b600061085a6106d2565b821061089b576040517f08c379a000000000000000000000000000000000000000000000000000000000815260040161089290613fbe565b60405180910390fd5b600882815481106108d5577f4e487b7100000000000000000000000000000000000000000000000000000000600052603260045260246000fd5b90600052602060002001549050919050565b6000806108f38361152d565b9050600073ffffffffffffffffffffffffffffffffffffffff168173ffffffffffffffffffffffffffffffffffffffff161415610965576040517f08c379a000000000000000000000000000000000000000000000000000000000815260040161095c90613f5e565b60405180910390fd5b80915050919050565b60008073ffffffffffffffffffffffffffffffffffffffff168273ffffffffffffffffffffffffffffffffffffffff1614156109df576040517f08c379a00000000000000000000000000000000000000000000000000000000081526004016109d690613e9e565b60405180910390fd5b600360008373ffffffffffffffffffffffffffffffffffffffff1673ffffffffffffffffffffffffffffffffffffffff168152602001908152602001600020549050919050565b610a2e61156a565b610a3860006115e8565b565b600080610a47600c6116ae565b9050610a5381846116bc565b610a5d600c611a30565b610a678582611a46565b610a718185611a64565b809150509392505050565b6000600b60009054906101000a900473ffffffffffffffffffffffffffffffffffffffff16905090565b606060018054610ab59061435a565b80601f0160208091040260200160405190810160405280929190818152602001828054610ae19061435a565b8015610b2e5780601f10610b0357610100808354040283529160200191610b2e565b820191906000526020600020905b815481529060010190602001808311610b1157829003601f168201915b5050505050905090565b600f831115610b7c576040517f08c379a0000000000000000000000000000000000000000000000000000000008152600401610b7390613ebe565b60405180910390fd5b81518314610bbf576040517f08c379a0000000000000000000000000000000000000000000000000000000008152600401610bb690613e5e565b60405180910390fd5b60005b83811015610ced573073ffffffffffffffffffffffffffffffffffffffff166384f47a2533858481518110610c20577f4e487b7100000000000000000000000000000000000000000000000000000000600052603260045260246000fd5b6020026020010151858581518110610c61577f4e487b7100000000000000000000000000000000000000000000000000000000600052603260045260246000fd5b60200260200101516040518463ffffffff1660e01b8152600401610c8793929190613cba565b602060405180830381600087803b158015610ca157600080fd5b505af1158015610cb5573d6000803e3d6000fd5b505050506040513d601f19601f82011682018060405250810190610cd9919061366f565b508080610ce5906143bd565b915050610bc2565b50505050565b610d05610cfe6110d1565b8383611ad8565b5050565b610d1a610d146110d1565b83611192565b610d59576040517f08c379a0000000000000000000000000000000000000000000000000000000008152600401610d5090613d5e565b60405180910390fd5b610d6584848484611c45565b50505050565b6060600d6000838152602001908152602001600020805480602002602001604051908101604052809291908181526020016000905b82821015610e62578382906000526020600020016040518060400160405290816000820160009054906101000a900473ffffffffffffffffffffffffffffffffffffffff1673ffffffffffffffffffffffffffffffffffffffff1673ffffffffffffffffffffffffffffffffffffffff1681526020016000820160149054906101000a90046bffffffffffffffffffffffff166bffffffffffffffffffffffff166bffffffffffffffffffffffff168152505081526020019060010190610da0565b505050509050919050565b6060610e7882611ca1565b9050919050565b6000600560008473ffffffffffffffffffffffffffffffffffffffff1673ffffffffffffffffffffffffffffffffffffffff16815260200190815260200160002060008373ffffffffffffffffffffffffffffffffffffffff1673ffffffffffffffffffffffffffffffffffffffff16815260200190815260200160002060009054906101000a900460ff16905092915050565b610f1b61156a565b600073ffffffffffffffffffffffffffffffffffffffff168173ffffffffffffffffffffffffffffffffffffffff161415610f8b576040517f08c379a0000000000000000000000000000000000000000000000000000000008152600401610f8290613dbe565b60405180910390fd5b610f94816115e8565b50565b600d6020528160005260406000208181548110610fb357600080fd5b90600052602060002001600091509150508060000160009054906101000a900473ffffffffffffffffffffffffffffffffffffffff16908060000160149054906101000a90046bffffffffffffffffffffffff16905082565b60007f780e9d63000000000000000000000000000000000000000000000000000000007bffffffffffffffffffffffffffffffffffffffffffffffffffffffff1916827bffffffffffffffffffffffffffffffffffffffffffffffffffffffff1916148061107f575061107e82611db4565b5b9050919050565b61108f81611e96565b6110ce576040517f08c379a00000000000000000000000000000000000000000000000000000000081526004016110c590613f5e565b60405180910390fd5b50565b600033905090565b816004600083815260200190815260200160002060006101000a81548173ffffffffffffffffffffffffffffffffffffffff021916908373ffffffffffffffffffffffffffffffffffffffff160217905550808273ffffffffffffffffffffffffffffffffffffffff1661114c836108e7565b73ffffffffffffffffffffffffffffffffffffffff167f8c5be1e5ebec7d5bd14f71427d1e84f3dd0314c0f7b2291e5b200ac8c7c3b92560405160405180910390a45050565b60008061119e836108e7565b90508073ffffffffffffffffffffffffffffffffffffffff168473ffffffffffffffffffffffffffffffffffffffff1614806111e057506111df8185610e7f565b5b8061121e57508373ffffffffffffffffffffffffffffffffffffffff1661120684610574565b73ffffffffffffffffffffffffffffffffffffffff16145b91505092915050565b8273ffffffffffffffffffffffffffffffffffffffff16611247826108e7565b73ffffffffffffffffffffffffffffffffffffffff161461129d576040517f08c379a000000000000000000000000000000000000000000000000000000000815260040161129490613dde565b60405180910390fd5b600073ffffffffffffffffffffffffffffffffffffffff168273ffffffffffffffffffffffffffffffffffffffff16141561130d576040517f08c379a000000000000000000000000000000000000000000000000000000000815260040161130490613e1e565b60405180910390fd5b61131a8383836001611ed7565b8273ffffffffffffffffffffffffffffffffffffffff1661133a826108e7565b73ffffffffffffffffffffffffffffffffffffffff1614611390576040517f08c379a000000000000000000000000000000000000000000000000000000000815260040161138790613dde565b60405180910390fd5b6004600082815260200190815260200160002060006101000a81549073ffffffffffffffffffffffffffffffffffffffff02191690556001600360008573ffffffffffffffffffffffffffffffffffffffff1673ffffffffffffffffffffffffffffffffffffffff168152602001908152602001600020600082825403925050819055506001600360008473ffffffffffffffffffffffffffffffffffffffff1673ffffffffffffffffffffffffffffffffffffffff16815260200190815260200160002060008282540192505081905550816002600083815260200190815260200160002060006101000a81548173ffffffffffffffffffffffffffffffffffffffff021916908373ffffffffffffffffffffffffffffffffffffffff160217905550808273ffffffffffffffffffffffffffffffffffffffff168473ffffffffffffffffffffffffffffffffffffffff167fddf252ad1be2c89b69c2b068fc378daa952ba7f163c4a11628f55a4df523b3ef60405160405180910390a461151c8383836001611ee9565b505050565b61152a81611eef565b50565b60006002600083815260200190815260200160002060009054906101000a900473ffffffffffffffffffffffffffffffffffffffff169050919050565b6115726110d1565b73ffffffffffffffffffffffffffffffffffffffff16611590610a7c565b73ffffffffffffffffffffffffffffffffffffffff16146115e6576040517f08c379a00000000000000000000000000000000000000000000000000000000081526004016115dd90613f3e565b60405180910390fd5b565b6000600b60009054906101000a900473ffffffffffffffffffffffffffffffffffffffff16905081600b60006101000a81548173ffffffffffffffffffffffffffffffffffffffff021916908373ffffffffffffffffffffffffffffffffffffffff1602179055508173ffffffffffffffffffffffffffffffffffffffff168173ffffffffffffffffffffffffffffffffffffffff167f8be0079c531659141344cd1fd0a4f28419497f9722a3daafe3b4186f6b6457e060405160405180910390a35050565b600081600001549050919050565b600a815111156116cb57600080fd5b600d600083815260200190815260200160002060006116ea9190612f05565b6000805b82518110156119ad57600073ffffffffffffffffffffffffffffffffffffffff16838281518110611748577f4e487b7100000000000000000000000000000000000000000000000000000000600052603260045260246000fd5b60200260200101516000015173ffffffffffffffffffffffffffffffffffffffff1614156117ab576040517f08c379a00000000000000000000000000000000000000000000000000000000081526004016117a290613e7e565b60405180910390fd5b60008382815181106117e6577f4e487b7100000000000000000000000000000000000000000000000000000000600052603260045260246000fd5b6020026020010151602001516bffffffffffffffffffffffff161415611841576040517f08c379a000000000000000000000000000000000000000000000000000000000815260040161183890613ffe565b60405180910390fd5b600d600085815260200190815260200160002083828151811061188d577f4e487b7100000000000000000000000000000000000000000000000000000000600052603260045260246000fd5b60200260200101519080600181540180825580915050600190039060005260206000200160009091909190915060008201518160000160006101000a81548173ffffffffffffffffffffffffffffffffffffffff021916908373ffffffffffffffffffffffffffffffffffffffff16021790555060208201518160000160146101000a8154816bffffffffffffffffffffffff02191690836bffffffffffffffffffffffff1602179055505050828181518110611973577f4e487b7100000000000000000000000000000000000000000000000000000000600052603260045260246000fd5b6020026020010151602001516bffffffffffffffffffffffff168261199891906141f0565b915080806119a5906143bd565b9150506116ee565b5061271081106119f2576040517f08c379a00000000000000000000000000000000000000000000000000000000081526004016119e990613f1e565b60405180910390fd5b7fe23425cf56a81561c420f592eb54f21107c562f26c8c78c4a20d26920d244e668383604051611a23929190614039565b60405180910390a1505050565b6001816000016000828254019250508190555050565b611a60828260405180602001604052806000815250611f42565b5050565b611a6d82611e96565b611aac576040517f08c379a0000000000000000000000000000000000000000000000000000000008152600401611aa390613ede565b60405180910390fd5b80600a60008481526020019081526020016000209080519060200190611ad3929190612f26565b505050565b8173ffffffffffffffffffffffffffffffffffffffff168373ffffffffffffffffffffffffffffffffffffffff161415611b47576040517f08c379a0000000000000000000000000000000000000000000000000000000008152600401611b3e90613e3e565b60405180910390fd5b80600560008573ffffffffffffffffffffffffffffffffffffffff1673ffffffffffffffffffffffffffffffffffffffff16815260200190815260200160002060008473ffffffffffffffffffffffffffffffffffffffff1673ffffffffffffffffffffffffffffffffffffffff16815260200190815260200160002060006101000a81548160ff0219169083151502179055508173ffffffffffffffffffffffffffffffffffffffff168373ffffffffffffffffffffffffffffffffffffffff167f17307eab39ab6107e8899845ad3d59bd9653f200f220920489ca2b5937696c3183604051611c389190613d21565b60405180910390a3505050565b611c50848484611227565b611c5c84848484611f9d565b611c9b576040517f08c379a0000000000000000000000000000000000000000000000000000000008152600401611c9290613d9e565b60405180910390fd5b50505050565b6060611cac82611086565b6000600a60008481526020019081526020016000208054611ccc9061435a565b80601f0160208091040260200160405190810160405280929190818152602001828054611cf89061435a565b8015611d455780601f10611d1a57610100808354040283529160200191611d45565b820191906000526020600020905b815481529060010190602001808311611d2857829003601f168201915b505050505090506000611d56612134565b9050600081511415611d6c578192505050611daf565b600082511115611da1578082604051602001611d89929190613c06565b60405160208183030381529060405292505050611daf565b611daa8461214b565b925050505b919050565b60007f80ac58cd000000000000000000000000000000000000000000000000000000007bffffffffffffffffffffffffffffffffffffffffffffffffffffffff1916827bffffffffffffffffffffffffffffffffffffffffffffffffffffffff19161480611e7f57507f5b5e139f000000000000000000000000000000000000000000000000000000007bffffffffffffffffffffffffffffffffffffffffffffffffffffffff1916827bffffffffffffffffffffffffffffffffffffffffffffffffffffffff1916145b80611e8f5750611e8e826121b3565b5b9050919050565b60008073ffffffffffffffffffffffffffffffffffffffff16611eb88361152d565b73ffffffffffffffffffffffffffffffffffffffff1614159050919050565b611ee38484848461221d565b50505050565b50505050565b611ef88161237d565b6000600a60008381526020019081526020016000208054611f189061435a565b905014611f3f57600a60008281526020019081526020016000206000611f3e9190612fac565b5b50565b611f4c83836124cb565b611f596000848484611f9d565b611f98576040517f08c379a0000000000000000000000000000000000000000000000000000000008152600401611f8f90613d9e565b60405180910390fd5b505050565b6000611fbe8473ffffffffffffffffffffffffffffffffffffffff166126e9565b15612127578373ffffffffffffffffffffffffffffffffffffffff1663150b7a02611fe76110d1565b8786866040518563ffffffff1660e01b81526004016120099493929190613c6e565b602060405180830381600087803b15801561202357600080fd5b505af192505050801561205457506040513d601f19601f82011682018060405250810190612051919061361d565b60015b6120d7573d8060008114612084576040519150601f19603f3d011682016040523d82523d6000602084013e612089565b606091505b506000815114156120cf576040517f08c379a00000000000000000000000000000000000000000000000000000000081526004016120c690613d9e565b60405180910390fd5b805181602001fd5b63150b7a0260e01b7bffffffffffffffffffffffffffffffffffffffffffffffffffffffff1916817bffffffffffffffffffffffffffffffffffffffffffffffffffffffff19161491505061212c565b600190505b949350505050565b606060405180602001604052806000815250905090565b606061215682611086565b6000612160612134565b9050600081511161218057604051806020016040528060008152506121ab565b8061218a8461270c565b60405160200161219b929190613c06565b6040516020818303038152906040525b915050919050565b60007f01ffc9a7000000000000000000000000000000000000000000000000000000007bffffffffffffffffffffffffffffffffffffffffffffffffffffffff1916827bffffffffffffffffffffffffffffffffffffffffffffffffffffffff1916149050919050565b61222984848484612830565b600181111561226d576040517f08c379a000000000000000000000000000000000000000000000000000000000815260040161226490613fde565b60405180910390fd5b6000829050600073ffffffffffffffffffffffffffffffffffffffff168573ffffffffffffffffffffffffffffffffffffffff1614156122b5576122b081612956565b6122f4565b8373ffffffffffffffffffffffffffffffffffffffff168573ffffffffffffffffffffffffffffffffffffffff16146122f3576122f2858261299f565b5b5b600073ffffffffffffffffffffffffffffffffffffffff168473ffffffffffffffffffffffffffffffffffffffff1614156123375761233281612b0c565b612376565b8473ffffffffffffffffffffffffffffffffffffffff168473ffffffffffffffffffffffffffffffffffffffff1614612375576123748482612c4f565b5b5b5050505050565b6000612388826108e7565b9050612398816000846001611ed7565b6123a1826108e7565b90506004600083815260200190815260200160002060006101000a81549073ffffffffffffffffffffffffffffffffffffffff02191690556001600360008373ffffffffffffffffffffffffffffffffffffffff1673ffffffffffffffffffffffffffffffffffffffff168152602001908152602001600020600082825403925050819055506002600083815260200190815260200160002060006101000a81549073ffffffffffffffffffffffffffffffffffffffff021916905581600073ffffffffffffffffffffffffffffffffffffffff168273ffffffffffffffffffffffffffffffffffffffff167fddf252ad1be2c89b69c2b068fc378daa952ba7f163c4a11628f55a4df523b3ef60405160405180910390a46124c7816000846001611ee9565b5050565b600073ffffffffffffffffffffffffffffffffffffffff168273ffffffffffffffffffffffffffffffffffffffff16141561253b576040517f08c379a000000000000000000000000000000000000000000000000000000000815260040161253290613efe565b60405180910390fd5b61254481611e96565b15612584576040517f08c379a000000000000000000000000000000000000000000000000000000000815260040161257b90613dfe565b60405180910390fd5b612592600083836001611ed7565b61259b81611e96565b156125db576040517f08c379a00000000000000000000000000000000000000000000000000000000081526004016125d290613dfe565b60405180910390fd5b6001600360008473ffffffffffffffffffffffffffffffffffffffff1673ffffffffffffffffffffffffffffffffffffffff16815260200190815260200160002060008282540192505081905550816002600083815260200190815260200160002060006101000a81548173ffffffffffffffffffffffffffffffffffffffff021916908373ffffffffffffffffffffffffffffffffffffffff160217905550808273ffffffffffffffffffffffffffffffffffffffff16600073ffffffffffffffffffffffffffffffffffffffff167fddf252ad1be2c89b69c2b068fc378daa952ba7f163c4a11628f55a4df523b3ef60405160405180910390a46126e5600083836001611ee9565b5050565b6000808273ffffffffffffffffffffffffffffffffffffffff163b119050919050565b60606000600161271b84612cce565b01905060008167ffffffffffffffff811115612760577f4e487b7100000000000000000000000000000000000000000000000000000000600052604160045260246000fd5b6040519080825280601f01601f1916602001820160405280156127925781602001600182028036833780820191505090505b509050600082602001820190505b600115612825578080600190039150507f3031323334353637383961626364656600000000000000000000000000000000600a86061a8153600a858161280f577f4e487b7100000000000000000000000000000000000000000000000000000000600052601260045260246000fd5b049450600085141561282057612825565b6127a0565b819350505050919050565b600181111561295057600073ffffffffffffffffffffffffffffffffffffffff168473ffffffffffffffffffffffffffffffffffffffff16146128c45780600360008673ffffffffffffffffffffffffffffffffffffffff1673ffffffffffffffffffffffffffffffffffffffff16815260200190815260200160002060008282546128bc9190614246565b925050819055505b600073ffffffffffffffffffffffffffffffffffffffff168373ffffffffffffffffffffffffffffffffffffffff161461294f5780600360008573ffffffffffffffffffffffffffffffffffffffff1673ffffffffffffffffffffffffffffffffffffffff168152602001908152602001600020600082825461294791906141f0565b925050819055505b5b50505050565b6008805490506009600083815260200190815260200160002081905550600881908060018154018082558091505060019003906000526020600020016000909190919091505550565b600060016129ac8461096e565b6129b69190614246565b9050600060076000848152602001908152602001600020549050818114612a9b576000600660008673ffffffffffffffffffffffffffffffffffffffff1673ffffffffffffffffffffffffffffffffffffffff168152602001908152602001600020600084815260200190815260200160002054905080600660008773ffffffffffffffffffffffffffffffffffffffff1673ffffffffffffffffffffffffffffffffffffffff168152602001908152602001600020600084815260200190815260200160002081905550816007600083815260200190815260200160002081905550505b6007600084815260200190815260200160002060009055600660008573ffffffffffffffffffffffffffffffffffffffff1673ffffffffffffffffffffffffffffffffffffffff16815260200190815260200160002060008381526020019081526020016000206000905550505050565b60006001600880549050612b209190614246565b9050600060096000848152602001908152602001600020549050600060088381548110612b76577f4e487b7100000000000000000000000000000000000000000000000000000000600052603260045260246000fd5b906000526020600020015490508060088381548110612bbe577f4e487b7100000000000000000000000000000000000000000000000000000000600052603260045260246000fd5b906000526020600020018190555081600960008381526020019081526020016000208190555060096000858152602001908152602001600020600090556008805480612c33577f4e487b7100000000000000000000000000000000000000000000000000000000600052603160045260246000fd5b6001900381819060005260206000200160009055905550505050565b6000612c5a8361096e565b905081600660008573ffffffffffffffffffffffffffffffffffffffff1673ffffffffffffffffffffffffffffffffffffffff168152602001908152602001600020600083815260200190815260200160002081905550806007600084815260200190815260200160002081905550505050565b600080600090507a184f03e93ff9f4daa797ed6e38ed64bf6a1f0100000000000000008310612d52577a184f03e93ff9f4daa797ed6e38ed64bf6a1f0100000000000000008381612d48577f4e487b7100000000000000000000000000000000000000000000000000000000600052601260045260246000fd5b0492506040810190505b6d04ee2d6d415b85acef81000000008310612db5576d04ee2d6d415b85acef81000000008381612dab577f4e487b7100000000000000000000000000000000000000000000000000000000600052601260045260246000fd5b0492506020810190505b662386f26fc100008310612e0a57662386f26fc100008381612e00577f4e487b7100000000000000000000000000000000000000000000000000000000600052601260045260246000fd5b0492506010810190505b6305f5e1008310612e59576305f5e1008381612e4f577f4e487b7100000000000000000000000000000000000000000000000000000000600052601260045260246000fd5b0492506008810190505b6127108310612ea4576127108381612e9a577f4e487b7100000000000000000000000000000000000000000000000000000000600052601260045260246000fd5b0492506004810190505b60648310612eed5760648381612ee3577f4e487b7100000000000000000000000000000000000000000000000000000000600052601260045260246000fd5b0492506002810190505b600a8310612efc576001810190505b80915050919050565b5080546000825590600052602060002090810190612f239190612fec565b50565b828054612f329061435a565b90600052602060002090601f016020900481019282612f545760008555612f9b565b82601f10612f6d57805160ff1916838001178555612f9b565b82800160010185558215612f9b579182015b82811115612f9a578251825591602001919060010190612f7f565b5b509050612fa89190613049565b5090565b508054612fb89061435a565b6000825580601f10612fca5750612fe9565b601f016020900490600052602060002090810190612fe89190613049565b5b50565b5b8082111561304557600080820160006101000a81549073ffffffffffffffffffffffffffffffffffffffff02191690556000820160146101000a8154906bffffffffffffffffffffffff021916905550600101612fed565b5090565b5b8082111561306257600081600090555060010161304a565b5090565b60006130796130748461408e565b614069565b9050808382526020820190508260005b858110156130b9578135850161309f8882613286565b845260208401935060208301925050600181019050613089565b5050509392505050565b60006130d66130d1846140ba565b614069565b9050808382526020820190508260005b8581101561311657813585016130fc8882613319565b8452602084019350602083019250506001810190506130e6565b5050509392505050565b600061313361312e846140e6565b614069565b9050808382526020820190508285604086028201111561315257600080fd5b60005b8581101561318257816131688882613343565b845260208401935060408301925050600181019050613155565b5050509392505050565b600061319f61319a84614112565b614069565b9050828152602081018484840111156131b757600080fd5b6131c2848285614318565b509392505050565b60006131dd6131d884614143565b614069565b9050828152602081018484840111156131f557600080fd5b613200848285614318565b509392505050565b60008135905061321781614a64565b92915050565b60008135905061322c81614a7b565b92915050565b600082601f83011261324357600080fd5b8135613253848260208601613066565b91505092915050565b600082601f83011261326d57600080fd5b813561327d8482602086016130c3565b91505092915050565b600082601f83011261329757600080fd5b81356132a7848260208601613120565b91505092915050565b6000813590506132bf81614a92565b92915050565b6000813590506132d481614aa9565b92915050565b6000815190506132e981614aa9565b92915050565b600082601f83011261330057600080fd5b813561331084826020860161318c565b91505092915050565b600082601f83011261332a57600080fd5b813561333a8482602086016131ca565b91505092915050565b60006040828403121561335557600080fd5b61335f6040614069565b9050600061336f8482850161321d565b6000830152506020613383848285016133b9565b60208301525092915050565b60008135905061339e81614ac0565b92915050565b6000815190506133b381614ac0565b92915050565b6000813590506133c881614ad7565b92915050565b6000602082840312156133e057600080fd5b60006133ee84828501613208565b91505092915050565b6000806040838503121561340a57600080fd5b600061341885828601613208565b925050602061342985828601613208565b9150509250929050565b60008060006060848603121561344857600080fd5b600061345686828701613208565b935050602061346786828701613208565b92505060406134788682870161338f565b9150509250925092565b6000806000806080858703121561349857600080fd5b60006134a687828801613208565b94505060206134b787828801613208565b93505060406134c88782880161338f565b925050606085013567ffffffffffffffff8111156134e557600080fd5b6134f1878288016132ef565b91505092959194509250565b6000806040838503121561351057600080fd5b600061351e85828601613208565b925050602061352f858286016132b0565b9150509250929050565b60008060006060848603121561354e57600080fd5b600061355c86828701613208565b935050602084013567ffffffffffffffff81111561357957600080fd5b61358586828701613319565b925050604084013567ffffffffffffffff8111156135a257600080fd5b6135ae86828701613286565b9150509250925092565b600080604083850312156135cb57600080fd5b60006135d985828601613208565b92505060206135ea8582860161338f565b9150509250929050565b60006020828403121561360657600080fd5b6000613614848285016132c5565b91505092915050565b60006020828403121561362f57600080fd5b600061363d848285016132da565b91505092915050565b60006020828403121561365857600080fd5b60006136668482850161338f565b91505092915050565b60006020828403121561368157600080fd5b600061368f848285016133a4565b91505092915050565b6000806000606084860312156136ad57600080fd5b60006136bb8682870161338f565b935050602084013567ffffffffffffffff8111156136d857600080fd5b6136e48682870161325c565b925050604084013567ffffffffffffffff81111561370157600080fd5b61370d86828701613232565b9150509250925092565b6000806040838503121561372a57600080fd5b60006137388582860161338f565b92505060206137498582860161338f565b9150509250929050565b600061375f8383613baa565b60408301905092915050565b6137748161428c565b82525050565b6137838161428c565b82525050565b6137928161427a565b82525050565b60006137a382614184565b6137ad81856141b2565b93506137b883614174565b8060005b838110156137e95781516137d08882613753565b97506137db836141a5565b9250506001810190506137bc565b5085935050505092915050565b6137ff8161429e565b82525050565b60006138108261418f565b61381a81856141c3565b935061382a818560208601614327565b61383381614493565b840191505092915050565b60006138498261419a565b61385381856141d4565b9350613863818560208601614327565b61386c81614493565b840191505092915050565b60006138828261419a565b61388c81856141e5565b935061389c818560208601614327565b80840191505092915050565b60006138b5602d836141d4565b91506138c0826144a4565b604082019050919050565b60006138d8602b836141d4565b91506138e3826144f3565b604082019050919050565b60006138fb6032836141d4565b915061390682614542565b604082019050919050565b600061391e6026836141d4565b915061392982614591565b604082019050919050565b60006139416025836141d4565b915061394c826145e0565b604082019050919050565b6000613964601c836141d4565b915061396f8261462f565b602082019050919050565b60006139876024836141d4565b915061399282614658565b604082019050919050565b60006139aa6019836141d4565b91506139b5826146a7565b602082019050919050565b60006139cd602d836141d4565b91506139d8826146d0565b604082019050919050565b60006139f06023836141d4565b91506139fb8261471f565b604082019050919050565b6000613a136029836141d4565b9150613a1e8261476e565b604082019050919050565b6000613a366028836141d4565b9150613a41826147bd565b604082019050919050565b6000613a59602e836141d4565b9150613a648261480c565b604082019050919050565b6000613a7c6020836141d4565b9150613a878261485b565b602082019050919050565b6000613a9f6017836141d4565b9150613aaa82614884565b602082019050919050565b6000613ac26020836141d4565b9150613acd826148ad565b602082019050919050565b6000613ae56018836141d4565b9150613af0826148d6565b602082019050919050565b6000613b086021836141d4565b9150613b13826148ff565b604082019050919050565b6000613b2b603d836141d4565b9150613b368261494e565b604082019050919050565b6000613b4e602c836141d4565b9150613b598261499d565b604082019050919050565b6000613b716035836141d4565b9150613b7c826149ec565b604082019050919050565b6000613b94601b836141d4565b9150613b9f82614a3b565b602082019050919050565b604082016000820151613bc0600085018261376b565b506020820151613bd36020850182613be8565b50505050565b613be2816142f6565b82525050565b613bf181614300565b82525050565b613c0081614300565b82525050565b6000613c128285613877565b9150613c1e8284613877565b91508190509392505050565b6000602082019050613c3f6000830184613789565b92915050565b6000604082019050613c5a600083018561377a565b613c676020830184613bf7565b9392505050565b6000608082019050613c836000830187613789565b613c906020830186613789565b613c9d6040830185613bd9565b8181036060830152613caf8184613805565b905095945050505050565b6000606082019050613ccf6000830186613789565b8181036020830152613ce1818561383e565b90508181036040830152613cf58184613798565b9050949350505050565b60006020820190508181036000830152613d198184613798565b905092915050565b6000602082019050613d3660008301846137f6565b92915050565b60006020820190508181036000830152613d56818461383e565b905092915050565b60006020820190508181036000830152613d77816138a8565b9050919050565b60006020820190508181036000830152613d97816138cb565b9050919050565b60006020820190508181036000830152613db7816138ee565b9050919050565b60006020820190508181036000830152613dd781613911565b9050919050565b60006020820190508181036000830152613df781613934565b9050919050565b60006020820190508181036000830152613e1781613957565b9050919050565b60006020820190508181036000830152613e378161397a565b9050919050565b60006020820190508181036000830152613e578161399d565b9050919050565b60006020820190508181036000830152613e77816139c0565b9050919050565b60006020820190508181036000830152613e97816139e3565b9050919050565b60006020820190508181036000830152613eb781613a06565b9050919050565b60006020820190508181036000830152613ed781613a29565b9050919050565b60006020820190508181036000830152613ef781613a4c565b9050919050565b60006020820190508181036000830152613f1781613a6f565b9050919050565b60006020820190508181036000830152613f3781613a92565b9050919050565b60006020820190508181036000830152613f5781613ab5565b9050919050565b60006020820190508181036000830152613f7781613ad8565b9050919050565b60006020820190508181036000830152613f9781613afb565b9050919050565b60006020820190508181036000830152613fb781613b1e565b9050919050565b60006020820190508181036000830152613fd781613b41565b9050919050565b60006020820190508181036000830152613ff781613b64565b9050919050565b6000602082019050818103600083015261401781613b87565b9050919050565b60006020820190506140336000830184613bd9565b92915050565b600060408201905061404e6000830185613bd9565b81810360208301526140608184613798565b90509392505050565b6000614073614084565b905061407f828261438c565b919050565b6000604051905090565b600067ffffffffffffffff8211156140a9576140a8614464565b5b602082029050602081019050919050565b600067ffffffffffffffff8211156140d5576140d4614464565b5b602082029050602081019050919050565b600067ffffffffffffffff82111561410157614100614464565b5b602082029050602081019050919050565b600067ffffffffffffffff82111561412d5761412c614464565b5b61413682614493565b9050602081019050919050565b600067ffffffffffffffff82111561415e5761415d614464565b5b61416782614493565b9050602081019050919050565b6000819050602082019050919050565b600081519050919050565b600081519050919050565b600081519050919050565b6000602082019050919050565b600082825260208201905092915050565b600082825260208201905092915050565b600082825260208201905092915050565b600081905092915050565b60006141fb826142f6565b9150614206836142f6565b9250827fffffffffffffffffffffffffffffffffffffffffffffffffffffffffffffffff0382111561423b5761423a614406565b5b828201905092915050565b6000614251826142f6565b915061425c836142f6565b92508282101561426f5761426e614406565b5b828203905092915050565b6000614285826142d6565b9050919050565b6000614297826142d6565b9050919050565b60008115159050919050565b60007fffffffff0000000000000000000000000000000000000000000000000000000082169050919050565b600073ffffffffffffffffffffffffffffffffffffffff82169050919050565b6000819050919050565b60006bffffffffffffffffffffffff82169050919050565b82818337600083830152505050565b60005b8381101561434557808201518184015260208101905061432a565b83811115614354576000848401525b50505050565b6000600282049050600182168061437257607f821691505b6020821081141561438657614385614435565b5b50919050565b61439582614493565b810181811067ffffffffffffffff821117156143b4576143b3614464565b5b80604052505050565b60006143c8826142f6565b91507fffffffffffffffffffffffffffffffffffffffffffffffffffffffffffffffff8214156143fb576143fa614406565b5b600182019050919050565b7f4e487b7100000000000000000000000000000000000000000000000000000000600052601160045260246000fd5b7f4e487b7100000000000000000000000000000000000000000000000000000000600052602260045260246000fd5b7f4e487b7100000000000000000000000000000000000000000000000000000000600052604160045260246000fd5b6000601f19601f8301169050919050565b7f4552433732313a2063616c6c6572206973206e6f7420746f6b656e206f776e6560008201527f72206f7220617070726f76656400000000000000000000000000000000000000602082015250565b7f455243373231456e756d657261626c653a206f776e657220696e646578206f7560008201527f74206f6620626f756e6473000000000000000000000000000000000000000000602082015250565b7f4552433732313a207472616e7366657220746f206e6f6e20455243373231526560008201527f63656976657220696d706c656d656e7465720000000000000000000000000000602082015250565b7f4f776e61626c653a206e6577206f776e657220697320746865207a65726f206160008201527f6464726573730000000000000000000000000000000000000000000000000000602082015250565b7f4552433732313a207472616e736665722066726f6d20696e636f72726563742060008201527f6f776e6572000000000000000000000000000000000000000000000000000000602082015250565b7f4552433732313a20746f6b656e20616c7265616479206d696e74656400000000600082015250565b7f4552433732313a207472616e7366657220746f20746865207a65726f2061646460008201527f7265737300000000000000000000000000000000000000000000000000000000602082015250565b7f4552433732313a20617070726f766520746f2063616c6c657200000000000000600082015250565b7f757269206172726179206c656e6774682073686f756c6420626520657175616c60008201527f20746f205f746f74616c4e465400000000000000000000000000000000000000602082015250565b7f526f79616c747920726563697069656e742073686f756c64206265207072657360008201527f656e740000000000000000000000000000000000000000000000000000000000602082015250565b7f4552433732313a2061646472657373207a65726f206973206e6f74206120766160008201527f6c6964206f776e65720000000000000000000000000000000000000000000000602082015250565b7f4d696e74696e67206d6f7265207468616e203135204e66747320617265206e6f60008201527f7420616c6c6f7765000000000000000000000000000000000000000000000000602082015250565b7f45524337323155524953746f726167653a2055524920736574206f66206e6f6e60008201527f6578697374656e7420746f6b656e000000000000000000000000000000000000602082015250565b7f4552433732313a206d696e7420746f20746865207a65726f2061646472657373600082015250565b7f53756d206f6620526f79616c74696573203e2031303025000000000000000000600082015250565b7f4f776e61626c653a2063616c6c6572206973206e6f7420746865206f776e6572600082015250565b7f4552433732313a20696e76616c696420746f6b656e2049440000000000000000600082015250565b7f4552433732313a20617070726f76616c20746f2063757272656e74206f776e6560008201527f7200000000000000000000000000000000000000000000000000000000000000602082015250565b7f4552433732313a20617070726f76652063616c6c6572206973206e6f7420746f60008201527f6b656e206f776e6572206f7220617070726f76656420666f7220616c6c000000602082015250565b7f455243373231456e756d657261626c653a20676c6f62616c20696e646578206f60008201527f7574206f6620626f756e64730000000000000000000000000000000000000000602082015250565b7f455243373231456e756d657261626c653a20636f6e736563757469766520747260008201527f616e7366657273206e6f7420737570706f727465640000000000000000000000602082015250565b7f526f79616c74792076616c75652073686f756c64206265203e20300000000000600082015250565b614a6d8161427a565b8114614a7857600080fd5b50565b614a848161428c565b8114614a8f57600080fd5b50565b614a9b8161429e565b8114614aa657600080fd5b50565b614ab2816142aa565b8114614abd57600080fd5b50565b614ac9816142f6565b8114614ad457600080fd5b50565b614ae081614300565b8114614aeb57600080fd5b5056fea2646970667358221220ff3f6285d0d07721a523960398f307597f5e58342e7362f091f84c54b602e36b64736f6c63430008020033",
  "linkReferences": {},
  "deployedLinkReferences": {}
}