{
  "_format": "hh-sol-artifact-1",
  "contractName": "TokenERC721",
  "sourceName": "contracts/TokenERC721.sol",
  "abi": [
    {
      "inputs": [
        {
          "internalType": "string",
          "name": "name",
          "type": "string"
        },
        {
          "internalType": "string",
          "name": "symbol",
          "type": "string"
        }
      ],
      "stateMutability": "nonpayable",
      "type": "constructor"
    },
    {
      "anonymous": false,
      "inputs": [
        {
          "indexed": true,
          "internalType": "address",
          "name": "owner",
          "type": "address"
        },
        {
          "indexed": true,
          "internalType": "address",
          "name": "approved",
          "type": "address"
        },
        {
          "indexed": true,
          "internalType": "uint256",
          "name": "tokenId",
          "type": "uint256"
        }
      ],
      "name": "Approval",
      "type": "event"
    },
    {
      "anonymous": false,
      "inputs": [
        {
          "indexed": true,
          "internalType": "address",
          "name": "owner",
          "type": "address"
        },
        {
          "indexed": true,
          "internalType": "address",
          "name": "operator",
          "type": "address"
        },
        {
          "indexed": false,
          "internalType": "bool",
          "name": "approved",
          "type": "bool"
        }
      ],
      "name": "ApprovalForAll",
      "type": "event"
    },
    {
      "anonymous": false,
      "inputs": [
        {
          "indexed": true,
          "internalType": "address",
          "name": "previousOwner",
          "type": "address"
        },
        {
          "indexed": true,
          "internalType": "address",
          "name": "newOwner",
          "type": "address"
        }
      ],
      "name": "OwnershipTransferred",
      "type": "event"
    },
    {
      "anonymous": false,
      "inputs": [
        {
          "components": [
            {
              "internalType": "address payable",
              "name": "account",
              "type": "address"
            },
            {
              "internalType": "uint96",
              "name": "value",
              "type": "uint96"
            }
          ],
          "indexed": false,
          "internalType": "struct LibShare.Share[]",
          "name": "royalties",
          "type": "tuple[]"
        }
      ],
      "name": "RoyaltiesSetForCollection",
      "type": "event"
    },
    {
      "anonymous": false,
      "inputs": [
        {
          "indexed": false,
          "internalType": "uint256",
          "name": "tokenId",
          "type": "uint256"
        },
        {
          "components": [
            {
              "internalType": "address payable",
              "name": "account",
              "type": "address"
            },
            {
              "internalType": "uint96",
              "name": "value",
              "type": "uint96"
            }
          ],
          "indexed": false,
          "internalType": "struct LibShare.Share[]",
          "name": "royalties",
          "type": "tuple[]"
        }
      ],
      "name": "RoyaltiesSetForTokenId",
      "type": "event"
    },
    {
      "anonymous": false,
      "inputs": [
        {
          "indexed": true,
          "internalType": "address",
          "name": "from",
          "type": "address"
        },
        {
          "indexed": true,
          "internalType": "address",
          "name": "to",
          "type": "address"
        },
        {
          "indexed": true,
          "internalType": "uint256",
          "name": "tokenId",
          "type": "uint256"
        }
      ],
      "name": "Transfer",
      "type": "event"
    },
    {
      "inputs": [
        {
          "internalType": "address",
          "name": "to",
          "type": "address"
        },
        {
          "internalType": "uint256",
          "name": "tokenId",
          "type": "uint256"
        }
      ],
      "name": "approve",
      "outputs": [],
      "stateMutability": "nonpayable",
      "type": "function"
    },
    {
      "inputs": [
        {
          "internalType": "address",
          "name": "owner",
          "type": "address"
        }
      ],
      "name": "balanceOf",
      "outputs": [
        {
          "internalType": "uint256",
          "name": "",
          "type": "uint256"
        }
      ],
      "stateMutability": "view",
      "type": "function"
    },
    {
      "inputs": [
        {
          "internalType": "uint256",
          "name": "_totalNft",
          "type": "uint256"
        },
        {
          "internalType": "string[]",
          "name": "_uri",
          "type": "string[]"
        },
        {
          "components": [
            {
              "internalType": "bool",
              "name": "set",
              "type": "bool"
            },
            {
              "components": [
                {
                  "internalType": "address payable",
                  "name": "account",
                  "type": "address"
                },
                {
                  "internalType": "uint96",
                  "name": "value",
                  "type": "uint96"
                }
              ],
              "internalType": "struct LibShare.Share[]",
              "name": "royalties",
              "type": "tuple[]"
            }
          ],
          "internalType": "struct TokenERC721.RoyaltiesSet",
          "name": "royaltiesSet",
          "type": "tuple"
        }
      ],
      "name": "batchMint",
      "outputs": [],
      "stateMutability": "nonpayable",
      "type": "function"
    },
    {
      "inputs": [
        {
          "internalType": "uint256",
          "name": "_tokenId",
          "type": "uint256"
        }
      ],
      "name": "burn",
      "outputs": [],
      "stateMutability": "nonpayable",
      "type": "function"
    },
    {
      "inputs": [
        {
          "internalType": "uint256",
          "name": "",
          "type": "uint256"
        }
      ],
      "name": "collectionRoyalties",
      "outputs": [
        {
          "internalType": "address payable",
          "name": "account",
          "type": "address"
        },
        {
          "internalType": "uint96",
          "name": "value",
          "type": "uint96"
        }
      ],
      "stateMutability": "view",
      "type": "function"
    },
    {
      "inputs": [
        {
          "internalType": "uint256",
          "name": "tokenId",
          "type": "uint256"
        }
      ],
      "name": "getApproved",
      "outputs": [
        {
          "internalType": "address",
          "name": "",
          "type": "address"
        }
      ],
      "stateMutability": "view",
      "type": "function"
    },
    {
      "inputs": [
        {
          "internalType": "uint256",
          "name": "_tokenId",
          "type": "uint256"
        }
      ],
      "name": "getRoyalties",
      "outputs": [
        {
          "components": [
            {
              "internalType": "address payable",
              "name": "account",
              "type": "address"
            },
            {
              "internalType": "uint96",
              "name": "value",
              "type": "uint96"
            }
          ],
          "internalType": "struct LibShare.Share[]",
          "name": "",
          "type": "tuple[]"
        }
      ],
      "stateMutability": "view",
      "type": "function"
    },
    {
      "inputs": [
        {
          "internalType": "address",
          "name": "owner",
          "type": "address"
        },
        {
          "internalType": "address",
          "name": "operator",
          "type": "address"
        }
      ],
      "name": "isApprovedForAll",
      "outputs": [
        {
          "internalType": "bool",
          "name": "",
          "type": "bool"
        }
      ],
      "stateMutability": "view",
      "type": "function"
    },
    {
      "inputs": [],
      "name": "name",
      "outputs": [
        {
          "internalType": "string",
          "name": "",
          "type": "string"
        }
      ],
      "stateMutability": "view",
      "type": "function"
    },
    {
      "inputs": [],
      "name": "owner",
      "outputs": [
        {
          "internalType": "address",
          "name": "",
          "type": "address"
        }
      ],
      "stateMutability": "view",
      "type": "function"
    },
    {
      "inputs": [
        {
          "internalType": "uint256",
          "name": "tokenId",
          "type": "uint256"
        }
      ],
      "name": "ownerOf",
      "outputs": [
        {
          "internalType": "address",
          "name": "",
          "type": "address"
        }
      ],
      "stateMutability": "view",
      "type": "function"
    },
    {
      "inputs": [],
      "name": "renounceOwnership",
      "outputs": [],
      "stateMutability": "nonpayable",
      "type": "function"
    },
    {
      "inputs": [
        {
          "internalType": "uint256",
          "name": "",
          "type": "uint256"
        }
      ],
      "name": "royaltiesByTokenId",
      "outputs": [
        {
          "internalType": "bool",
          "name": "set",
          "type": "bool"
        }
      ],
      "stateMutability": "view",
      "type": "function"
    },
    {
      "inputs": [
        {
          "internalType": "address",
          "name": "to",
          "type": "address"
        },
        {
          "internalType": "string",
          "name": "uri",
          "type": "string"
        },
        {
          "components": [
            {
              "internalType": "bool",
              "name": "set",
              "type": "bool"
            },
            {
              "components": [
                {
                  "internalType": "address payable",
                  "name": "account",
                  "type": "address"
                },
                {
                  "internalType": "uint96",
                  "name": "value",
                  "type": "uint96"
                }
              ],
              "internalType": "struct LibShare.Share[]",
              "name": "royalties",
              "type": "tuple[]"
            }
          ],
          "internalType": "struct TokenERC721.RoyaltiesSet",
          "name": "royaltiesSet",
          "type": "tuple"
        }
      ],
      "name": "safeMint",
      "outputs": [
        {
          "internalType": "uint256",
          "name": "",
          "type": "uint256"
        }
      ],
      "stateMutability": "nonpayable",
      "type": "function"
    },
    {
      "inputs": [
        {
          "internalType": "address",
          "name": "from",
          "type": "address"
        },
        {
          "internalType": "address",
          "name": "to",
          "type": "address"
        },
        {
          "internalType": "uint256",
          "name": "tokenId",
          "type": "uint256"
        }
      ],
      "name": "safeTransferFrom",
      "outputs": [],
      "stateMutability": "nonpayable",
      "type": "function"
    },
    {
      "inputs": [
        {
          "internalType": "address",
          "name": "from",
          "type": "address"
        },
        {
          "internalType": "address",
          "name": "to",
          "type": "address"
        },
        {
          "internalType": "uint256",
          "name": "tokenId",
          "type": "uint256"
        },
        {
          "internalType": "bytes",
          "name": "data",
          "type": "bytes"
        }
      ],
      "name": "safeTransferFrom",
      "outputs": [],
      "stateMutability": "nonpayable",
      "type": "function"
    },
    {
      "inputs": [
        {
          "internalType": "address",
          "name": "operator",
          "type": "address"
        },
        {
          "internalType": "bool",
          "name": "approved",
          "type": "bool"
        }
      ],
      "name": "setApprovalForAll",
      "outputs": [],
      "stateMutability": "nonpayable",
      "type": "function"
    },
    {
      "inputs": [
        {
          "internalType": "uint256",
          "name": "_tokenId",
          "type": "uint256"
        },
        {
          "components": [
            {
              "internalType": "bool",
              "name": "set",
              "type": "bool"
            },
            {
              "components": [
                {
                  "internalType": "address payable",
                  "name": "account",
                  "type": "address"
                },
                {
                  "internalType": "uint96",
                  "name": "value",
                  "type": "uint96"
                }
              ],
              "internalType": "struct LibShare.Share[]",
              "name": "royalties",
              "type": "tuple[]"
            }
          ],
          "internalType": "struct TokenERC721.RoyaltiesSet",
          "name": "royaltiesSet",
          "type": "tuple"
        }
      ],
      "name": "setRoyaltiesByTokenId",
      "outputs": [],
      "stateMutability": "nonpayable",
      "type": "function"
    },
    {
      "inputs": [
        {
          "components": [
            {
              "internalType": "address payable",
              "name": "account",
              "type": "address"
            },
            {
              "internalType": "uint96",
              "name": "value",
              "type": "uint96"
            }
          ],
          "internalType": "struct LibShare.Share[]",
          "name": "royalties",
          "type": "tuple[]"
        }
      ],
      "name": "setRoyaltiesForCollection",
      "outputs": [],
      "stateMutability": "nonpayable",
      "type": "function"
    },
    {
      "inputs": [
        {
          "internalType": "bytes4",
          "name": "interfaceId",
          "type": "bytes4"
        }
      ],
      "name": "supportsInterface",
      "outputs": [
        {
          "internalType": "bool",
          "name": "",
          "type": "bool"
        }
      ],
      "stateMutability": "view",
      "type": "function"
    },
    {
      "inputs": [],
      "name": "symbol",
      "outputs": [
        {
          "internalType": "string",
          "name": "",
          "type": "string"
        }
      ],
      "stateMutability": "view",
      "type": "function"
    },
    {
      "inputs": [
        {
          "internalType": "uint256",
          "name": "index",
          "type": "uint256"
        }
      ],
      "name": "tokenByIndex",
      "outputs": [
        {
          "internalType": "uint256",
          "name": "",
          "type": "uint256"
        }
      ],
      "stateMutability": "view",
      "type": "function"
    },
    {
      "inputs": [
        {
          "internalType": "address",
          "name": "owner",
          "type": "address"
        },
        {
          "internalType": "uint256",
          "name": "index",
          "type": "uint256"
        }
      ],
      "name": "tokenOfOwnerByIndex",
      "outputs": [
        {
          "internalType": "uint256",
          "name": "",
          "type": "uint256"
        }
      ],
      "stateMutability": "view",
      "type": "function"
    },
    {
      "inputs": [
        {
          "internalType": "uint256",
          "name": "tokenId",
          "type": "uint256"
        }
      ],
      "name": "tokenURI",
      "outputs": [
        {
          "internalType": "string",
          "name": "",
          "type": "string"
        }
      ],
      "stateMutability": "view",
      "type": "function"
    },
    {
      "inputs": [],
      "name": "totalSupply",
      "outputs": [
        {
          "internalType": "uint256",
          "name": "",
          "type": "uint256"
        }
      ],
      "stateMutability": "view",
      "type": "function"
    },
    {
      "inputs": [
        {
          "internalType": "address",
          "name": "from",
          "type": "address"
        },
        {
          "internalType": "address",
          "name": "to",
          "type": "address"
        },
        {
          "internalType": "uint256",
          "name": "tokenId",
          "type": "uint256"
        }
      ],
      "name": "transferFrom",
      "outputs": [],
      "stateMutability": "nonpayable",
      "type": "function"
    },
    {
      "inputs": [
        {
          "internalType": "address",
          "name": "newOwner",
          "type": "address"
        }
      ],
      "name": "transferOwnership",
      "outputs": [],
      "stateMutability": "nonpayable",
      "type": "function"
    }
  ],
  "bytecode": "0x60806040523480156200001157600080fd5b5060405162005023380380620050238339818101604052810190620000379190620003b0565b818181600090805190602001906200005192919062000163565b5080600190805190602001906200006a92919062000163565b5050506200008d620000816200009560201b60201c565b6200009d60201b60201c565b50506200049a565b600033905090565b6000600b60009054906101000a900473ffffffffffffffffffffffffffffffffffffffff16905081600b60006101000a81548173ffffffffffffffffffffffffffffffffffffffff021916908373ffffffffffffffffffffffffffffffffffffffff1602179055508173ffffffffffffffffffffffffffffffffffffffff168173ffffffffffffffffffffffffffffffffffffffff167f8be0079c531659141344cd1fd0a4f28419497f9722a3daafe3b4186f6b6457e060405160405180910390a35050565b828054620001719062000464565b90600052602060002090601f016020900481019282620001955760008555620001e1565b82601f10620001b057805160ff1916838001178555620001e1565b82800160010185558215620001e1579182015b82811115620001e0578251825591602001919060010190620001c3565b5b509050620001f09190620001f4565b5090565b5b808211156200020f576000816000905550600101620001f5565b5090565b6000604051905090565b600080fd5b600080fd5b600080fd5b600080fd5b6000601f19601f8301169050919050565b7f4e487b7100000000000000000000000000000000000000000000000000000000600052604160045260246000fd5b6200027c8262000231565b810181811067ffffffffffffffff821117156200029e576200029d62000242565b5b80604052505050565b6000620002b362000213565b9050620002c1828262000271565b919050565b600067ffffffffffffffff821115620002e457620002e362000242565b5b620002ef8262000231565b9050602081019050919050565b60005b838110156200031c578082015181840152602081019050620002ff565b838111156200032c576000848401525b50505050565b6000620003496200034384620002c6565b620002a7565b9050828152602081018484840111156200036857620003676200022c565b5b62000375848285620002fc565b509392505050565b600082601f83011262000395576200039462000227565b5b8151620003a784826020860162000332565b91505092915050565b60008060408385031215620003ca57620003c96200021d565b5b600083015167ffffffffffffffff811115620003eb57620003ea62000222565b5b620003f9858286016200037d565b925050602083015167ffffffffffffffff8111156200041d576200041c62000222565b5b6200042b858286016200037d565b9150509250929050565b7f4e487b7100000000000000000000000000000000000000000000000000000000600052602260045260246000fd5b600060028204905060018216806200047d57607f821691505b6020821081141562000494576200049362000435565b5b50919050565b614b7980620004aa6000396000f3fe608060405234801561001057600080fd5b50600436106101a95760003560e01c8063715018a6116100f9578063abf8350f11610097578063c7829ab811610071578063c7829ab8146104f1578063c87b56dd1461050d578063e985e9c51461053d578063f2fde38b1461056d576101a9565b8063abf8350f14610489578063b88d4fde146104a5578063bb3bafd6146104c1576101a9565b80638998c1b0116100d35780638998c1b0146104155780638da5cb5b1461043157806395d89b411461044f578063a22cb4651461046d576101a9565b8063715018a6146103ab57806375e34a14146103b55780637ef0fc3b146103e5576101a9565b80632f745c59116101665780634f6ccce7116101405780634f6ccce7146102ea5780636352211e1461031a5780636e047e801461034a57806370a082311461037b576101a9565b80632f745c591461028257806342842e0e146102b257806342966c68146102ce576101a9565b806301ffc9a7146101ae57806306fdde03146101de578063081812fc146101fc578063095ea7b31461022c57806318160ddd1461024857806323b872dd14610266575b600080fd5b6101c860048036038101906101c39190613055565b610589565b6040516101d5919061309d565b60405180910390f35b6101e661059b565b6040516101f39190613151565b60405180910390f35b610216600480360381019061021191906131a9565b61062d565b6040516102239190613217565b60405180910390f35b6102466004803603810190610241919061325e565b610673565b005b61025061078b565b60405161025d91906132ad565b60405180910390f35b610280600480360381019061027b91906132c8565b610798565b005b61029c6004803603810190610297919061325e565b6107f8565b6040516102a991906132ad565b60405180910390f35b6102cc60048036038101906102c791906132c8565b61089d565b005b6102e860048036038101906102e391906131a9565b6108bd565b005b61030460048036038101906102ff91906131a9565b610909565b60405161031191906132ad565b60405180910390f35b610334600480360381019061032f91906131a9565b61097a565b6040516103419190613217565b60405180910390f35b610364600480360381019061035f91906131a9565b610a01565b604051610372929190613363565b60405180910390f35b6103956004803603810190610390919061338c565b610a69565b6040516103a291906132ad565b60405180910390f35b6103b3610b21565b005b6103cf60048036038101906103ca9190613700565b610b35565b6040516103dc91906132ad565b60405180910390f35b6103ff60048036038101906103fa91906131a9565b610b80565b60405161040c919061309d565b60405180910390f35b61042f600480360381019061042a919061378b565b610bab565b005b610439610c83565b6040516104469190613217565b60405180910390f35b610457610cad565b6040516104649190613151565b60405180910390f35b610487600480360381019061048291906137e7565b610d3f565b005b6104a3600480360381019061049e9190613827565b610d55565b005b6104bf60048036038101906104ba9190613911565b610db0565b005b6104db60048036038101906104d691906131a9565b610e12565b6040516104e89190613a90565b60405180910390f35b61050b60048036038101906105069190613b93565b611030565b005b610527600480360381019061052291906131a9565b611109565b6040516105349190613151565b60405180910390f35b61055760048036038101906105529190613c1e565b61111b565b604051610564919061309d565b60405180910390f35b6105876004803603810190610582919061338c565b6111af565b005b600061059482611233565b9050919050565b6060600080546105aa90613c8d565b80601f01602080910402602001604051908101604052809291908181526020018280546105d690613c8d565b80156106235780601f106105f857610100808354040283529160200191610623565b820191906000526020600020905b81548152906001019060200180831161060657829003601f168201915b5050505050905090565b6000610638826112ad565b6004600083815260200190815260200160002060009054906101000a900473ffffffffffffffffffffffffffffffffffffffff169050919050565b600061067e8261097a565b90508073ffffffffffffffffffffffffffffffffffffffff168373ffffffffffffffffffffffffffffffffffffffff1614156106ef576040517f08c379a00000000000000000000000000000000000000000000000000000000081526004016106e690613d31565b60405180910390fd5b8073ffffffffffffffffffffffffffffffffffffffff1661070e6112f8565b73ffffffffffffffffffffffffffffffffffffffff16148061073d575061073c816107376112f8565b61111b565b5b61077c576040517f08c379a000000000000000000000000000000000000000000000000000000000815260040161077390613dc3565b60405180910390fd5b6107868383611300565b505050565b6000600880549050905090565b6107a96107a36112f8565b826113b9565b6107e8576040517f08c379a00000000000000000000000000000000000000000000000000000000081526004016107df90613e55565b60405180910390fd5b6107f383838361144e565b505050565b600061080383610a69565b8210610844576040517f08c379a000000000000000000000000000000000000000000000000000000000815260040161083b90613ee7565b60405180910390fd5b600660008473ffffffffffffffffffffffffffffffffffffffff1673ffffffffffffffffffffffffffffffffffffffff168152602001908152602001600020600083815260200190815260200160002054905092915050565b6108b883838360405180602001604052806000815250610db0565b505050565b6108c68161097a565b73ffffffffffffffffffffffffffffffffffffffff163373ffffffffffffffffffffffffffffffffffffffff16146108fd57600080fd5b61090681611748565b50565b600061091361078b565b8210610954576040517f08c379a000000000000000000000000000000000000000000000000000000000815260040161094b90613f79565b60405180910390fd5b6008828154811061096857610967613f99565b5b90600052602060002001549050919050565b60008061098683611754565b9050600073ffffffffffffffffffffffffffffffffffffffff168173ffffffffffffffffffffffffffffffffffffffff1614156109f8576040517f08c379a00000000000000000000000000000000000000000000000000000000081526004016109ef90614014565b60405180910390fd5b80915050919050565b600d8181548110610a1157600080fd5b906000526020600020016000915090508060000160009054906101000a900473ffffffffffffffffffffffffffffffffffffffff16908060000160149054906101000a90046bffffffffffffffffffffffff16905082565b60008073ffffffffffffffffffffffffffffffffffffffff168273ffffffffffffffffffffffffffffffffffffffff161415610ada576040517f08c379a0000000000000000000000000000000000000000000000000000000008152600401610ad1906140a6565b60405180910390fd5b600360008373ffffffffffffffffffffffffffffffffffffffff1673ffffffffffffffffffffffffffffffffffffffff168152602001908152602001600020549050919050565b610b29611791565b610b33600061180f565b565b6000610b3f611791565b6000610b4b600c6118d5565b9050610b578184610bab565b610b61600c6118e3565b610b6b85826118f9565b610b758185611917565b809150509392505050565b600e6020528060005260406000206000915090508060000160009054906101000a900460ff16905081565b610bb3611791565b600e6000838152602001908152602001600020600080820160006101000a81549060ff0219169055600182016000610beb9190612e88565b50508060000151600e600084815260200190815260200160002060000160006101000a81548160ff021916908315150217905550610c42600e6000848152602001908152602001600020600101826020015161198b565b7fe23425cf56a81561c420f592eb54f21107c562f26c8c78c4a20d26920d244e66828260200151604051610c779291906140c6565b60405180910390a15050565b6000600b60009054906101000a900473ffffffffffffffffffffffffffffffffffffffff16905090565b606060018054610cbc90613c8d565b80601f0160208091040260200160405190810160405280929190818152602001828054610ce890613c8d565b8015610d355780601f10610d0a57610100808354040283529160200191610d35565b820191906000526020600020905b815481529060010190602001808311610d1857829003601f168201915b5050505050905090565b610d51610d4a6112f8565b8383611bfd565b5050565b610d5d611791565b600d6000610d6b9190612e88565b610d76600d8261198b565b7fae4b2c10bc3ab7517f2b27ccd08736b4e63a89655740c3da759bc35135e9d37781604051610da59190613a90565b60405180910390a150565b610dc1610dbb6112f8565b836113b9565b610e00576040517f08c379a0000000000000000000000000000000000000000000000000000000008152600401610df790613e55565b60405180910390fd5b610e0c84848484611d6a565b50505050565b6060600e600083815260200190815260200160002060000160009054906101000a900460ff1615610f4057600e6000838152602001908152602001600020600101805480602002602001604051908101604052809291908181526020016000905b82821015610f35578382906000526020600020016040518060400160405290816000820160009054906101000a900473ffffffffffffffffffffffffffffffffffffffff1673ffffffffffffffffffffffffffffffffffffffff1673ffffffffffffffffffffffffffffffffffffffff1681526020016000820160149054906101000a90046bffffffffffffffffffffffff166bffffffffffffffffffffffff166bffffffffffffffffffffffff168152505081526020019060010190610e73565b50505050905061102b565b600d805480602002602001604051908101604052809291908181526020016000905b82821015611024578382906000526020600020016040518060400160405290816000820160009054906101000a900473ffffffffffffffffffffffffffffffffffffffff1673ffffffffffffffffffffffffffffffffffffffff1673ffffffffffffffffffffffffffffffffffffffff1681526020016000820160149054906101000a90046bffffffffffffffffffffffff166bffffffffffffffffffffffff166bffffffffffffffffffffffff168152505081526020019060010190610f62565b5050505090505b919050565b611038611791565b600f83111561107c576040517f08c379a000000000000000000000000000000000000000000000000000000000815260040161107390614168565b60405180910390fd5b815183146110bf576040517f08c379a00000000000000000000000000000000000000000000000000000000081526004016110b6906141fa565b60405180910390fd5b60005b83811015611103576110ef338483815181106110e1576110e0613f99565b5b602002602001015184610b35565b5080806110fb90614249565b9150506110c2565b50505050565b606061111482611dc6565b9050919050565b6000600560008473ffffffffffffffffffffffffffffffffffffffff1673ffffffffffffffffffffffffffffffffffffffff16815260200190815260200160002060008373ffffffffffffffffffffffffffffffffffffffff1673ffffffffffffffffffffffffffffffffffffffff16815260200190815260200160002060009054906101000a900460ff16905092915050565b6111b7611791565b600073ffffffffffffffffffffffffffffffffffffffff168173ffffffffffffffffffffffffffffffffffffffff161415611227576040517f08c379a000000000000000000000000000000000000000000000000000000000815260040161121e90614304565b60405180910390fd5b6112308161180f565b50565b60007f780e9d63000000000000000000000000000000000000000000000000000000007bffffffffffffffffffffffffffffffffffffffffffffffffffffffff1916827bffffffffffffffffffffffffffffffffffffffffffffffffffffffff191614806112a657506112a582611ed9565b5b9050919050565b6112b681611fbb565b6112f5576040517f08c379a00000000000000000000000000000000000000000000000000000000081526004016112ec90614014565b60405180910390fd5b50565b600033905090565b816004600083815260200190815260200160002060006101000a81548173ffffffffffffffffffffffffffffffffffffffff021916908373ffffffffffffffffffffffffffffffffffffffff160217905550808273ffffffffffffffffffffffffffffffffffffffff166113738361097a565b73ffffffffffffffffffffffffffffffffffffffff167f8c5be1e5ebec7d5bd14f71427d1e84f3dd0314c0f7b2291e5b200ac8c7c3b92560405160405180910390a45050565b6000806113c58361097a565b90508073ffffffffffffffffffffffffffffffffffffffff168473ffffffffffffffffffffffffffffffffffffffff1614806114075750611406818561111b565b5b8061144557508373ffffffffffffffffffffffffffffffffffffffff1661142d8461062d565b73ffffffffffffffffffffffffffffffffffffffff16145b91505092915050565b8273ffffffffffffffffffffffffffffffffffffffff1661146e8261097a565b73ffffffffffffffffffffffffffffffffffffffff16146114c4576040517f08c379a00000000000000000000000000000000000000000000000000000000081526004016114bb90614396565b60405180910390fd5b600073ffffffffffffffffffffffffffffffffffffffff168273ffffffffffffffffffffffffffffffffffffffff161415611534576040517f08c379a000000000000000000000000000000000000000000000000000000000815260040161152b90614428565b60405180910390fd5b6115418383836001611ffc565b8273ffffffffffffffffffffffffffffffffffffffff166115618261097a565b73ffffffffffffffffffffffffffffffffffffffff16146115b7576040517f08c379a00000000000000000000000000000000000000000000000000000000081526004016115ae90614396565b60405180910390fd5b6004600082815260200190815260200160002060006101000a81549073ffffffffffffffffffffffffffffffffffffffff02191690556001600360008573ffffffffffffffffffffffffffffffffffffffff1673ffffffffffffffffffffffffffffffffffffffff168152602001908152602001600020600082825403925050819055506001600360008473ffffffffffffffffffffffffffffffffffffffff1673ffffffffffffffffffffffffffffffffffffffff16815260200190815260200160002060008282540192505081905550816002600083815260200190815260200160002060006101000a81548173ffffffffffffffffffffffffffffffffffffffff021916908373ffffffffffffffffffffffffffffffffffffffff160217905550808273ffffffffffffffffffffffffffffffffffffffff168473ffffffffffffffffffffffffffffffffffffffff167fddf252ad1be2c89b69c2b068fc378daa952ba7f163c4a11628f55a4df523b3ef60405160405180910390a4611743838383600161200e565b505050565b61175181612014565b50565b60006002600083815260200190815260200160002060009054906101000a900473ffffffffffffffffffffffffffffffffffffffff169050919050565b6117996112f8565b73ffffffffffffffffffffffffffffffffffffffff166117b7610c83565b73ffffffffffffffffffffffffffffffffffffffff161461180d576040517f08c379a000000000000000000000000000000000000000000000000000000000815260040161180490614494565b60405180910390fd5b565b6000600b60009054906101000a900473ffffffffffffffffffffffffffffffffffffffff16905081600b60006101000a81548173ffffffffffffffffffffffffffffffffffffffff021916908373ffffffffffffffffffffffffffffffffffffffff1602179055508173ffffffffffffffffffffffffffffffffffffffff168173ffffffffffffffffffffffffffffffffffffffff167f8be0079c531659141344cd1fd0a4f28419497f9722a3daafe3b4186f6b6457e060405160405180910390a35050565b600081600001549050919050565b6001816000016000828254019250508190555050565b611913828260405180602001604052806000815250612067565b5050565b61192082611fbb565b61195f576040517f08c379a000000000000000000000000000000000000000000000000000000000815260040161195690614526565b60405180910390fd5b80600a60008481526020019081526020016000209080519060200190611986929190612ea9565b505050565b600a8151111561199a57600080fd5b6000805b8251811015611bb357600073ffffffffffffffffffffffffffffffffffffffff168382815181106119d2576119d1613f99565b5b60200260200101516000015173ffffffffffffffffffffffffffffffffffffffff161415611a35576040517f08c379a0000000000000000000000000000000000000000000000000000000008152600401611a2c906145b8565b60405180910390fd5b6000838281518110611a4a57611a49613f99565b5b6020026020010151602001516bffffffffffffffffffffffff161415611aa5576040517f08c379a0000000000000000000000000000000000000000000000000000000008152600401611a9c90614624565b60405180910390fd5b83838281518110611ab957611ab8613f99565b5b60200260200101519080600181540180825580915050600190039060005260206000200160009091909190915060008201518160000160006101000a81548173ffffffffffffffffffffffffffffffffffffffff021916908373ffffffffffffffffffffffffffffffffffffffff16021790555060208201518160000160146101000a8154816bffffffffffffffffffffffff02191690836bffffffffffffffffffffffff1602179055505050828181518110611b7957611b78613f99565b5b6020026020010151602001516bffffffffffffffffffffffff1682611b9e9190614644565b91508080611bab90614249565b91505061199e565b506127108110611bf8576040517f08c379a0000000000000000000000000000000000000000000000000000000008152600401611bef906146e6565b60405180910390fd5b505050565b8173ffffffffffffffffffffffffffffffffffffffff168373ffffffffffffffffffffffffffffffffffffffff161415611c6c576040517f08c379a0000000000000000000000000000000000000000000000000000000008152600401611c6390614752565b60405180910390fd5b80600560008573ffffffffffffffffffffffffffffffffffffffff1673ffffffffffffffffffffffffffffffffffffffff16815260200190815260200160002060008473ffffffffffffffffffffffffffffffffffffffff1673ffffffffffffffffffffffffffffffffffffffff16815260200190815260200160002060006101000a81548160ff0219169083151502179055508173ffffffffffffffffffffffffffffffffffffffff168373ffffffffffffffffffffffffffffffffffffffff167f17307eab39ab6107e8899845ad3d59bd9653f200f220920489ca2b5937696c3183604051611d5d919061309d565b60405180910390a3505050565b611d7584848461144e565b611d81848484846120c2565b611dc0576040517f08c379a0000000000000000000000000000000000000000000000000000000008152600401611db7906147e4565b60405180910390fd5b50505050565b6060611dd1826112ad565b6000600a60008481526020019081526020016000208054611df190613c8d565b80601f0160208091040260200160405190810160405280929190818152602001828054611e1d90613c8d565b8015611e6a5780601f10611e3f57610100808354040283529160200191611e6a565b820191906000526020600020905b815481529060010190602001808311611e4d57829003601f168201915b505050505090506000611e7b612259565b9050600081511415611e91578192505050611ed4565b600082511115611ec6578082604051602001611eae929190614840565b60405160208183030381529060405292505050611ed4565b611ecf84612270565b925050505b919050565b60007f80ac58cd000000000000000000000000000000000000000000000000000000007bffffffffffffffffffffffffffffffffffffffffffffffffffffffff1916827bffffffffffffffffffffffffffffffffffffffffffffffffffffffff19161480611fa457507f5b5e139f000000000000000000000000000000000000000000000000000000007bffffffffffffffffffffffffffffffffffffffffffffffffffffffff1916827bffffffffffffffffffffffffffffffffffffffffffffffffffffffff1916145b80611fb45750611fb3826122d8565b5b9050919050565b60008073ffffffffffffffffffffffffffffffffffffffff16611fdd83611754565b73ffffffffffffffffffffffffffffffffffffffff1614159050919050565b61200884848484612342565b50505050565b50505050565b61201d816124a2565b6000600a6000838152602001908152602001600020805461203d90613c8d565b90501461206457600a600082815260200190815260200160002060006120639190612f2f565b5b50565b61207183836125f0565b61207e60008484846120c2565b6120bd576040517f08c379a00000000000000000000000000000000000000000000000000000000081526004016120b4906147e4565b60405180910390fd5b505050565b60006120e38473ffffffffffffffffffffffffffffffffffffffff1661280e565b1561224c578373ffffffffffffffffffffffffffffffffffffffff1663150b7a0261210c6112f8565b8786866040518563ffffffff1660e01b815260040161212e94939291906148b9565b602060405180830381600087803b15801561214857600080fd5b505af192505050801561217957506040513d601f19601f82011682018060405250810190612176919061491a565b60015b6121fc573d80600081146121a9576040519150601f19603f3d011682016040523d82523d6000602084013e6121ae565b606091505b506000815114156121f4576040517f08c379a00000000000000000000000000000000000000000000000000000000081526004016121eb906147e4565b60405180910390fd5b805181602001fd5b63150b7a0260e01b7bffffffffffffffffffffffffffffffffffffffffffffffffffffffff1916817bffffffffffffffffffffffffffffffffffffffffffffffffffffffff191614915050612251565b600190505b949350505050565b606060405180602001604052806000815250905090565b606061227b826112ad565b6000612285612259565b905060008151116122a557604051806020016040528060008152506122d0565b806122af84612831565b6040516020016122c0929190614840565b6040516020818303038152906040525b915050919050565b60007f01ffc9a7000000000000000000000000000000000000000000000000000000007bffffffffffffffffffffffffffffffffffffffffffffffffffffffff1916827bffffffffffffffffffffffffffffffffffffffffffffffffffffffff1916149050919050565b61234e84848484612909565b6001811115612392576040517f08c379a0000000000000000000000000000000000000000000000000000000008152600401612389906149b9565b60405180910390fd5b6000829050600073ffffffffffffffffffffffffffffffffffffffff168573ffffffffffffffffffffffffffffffffffffffff1614156123da576123d581612a2f565b612419565b8373ffffffffffffffffffffffffffffffffffffffff168573ffffffffffffffffffffffffffffffffffffffff1614612418576124178582612a78565b5b5b600073ffffffffffffffffffffffffffffffffffffffff168473ffffffffffffffffffffffffffffffffffffffff16141561245c5761245781612be5565b61249b565b8473ffffffffffffffffffffffffffffffffffffffff168473ffffffffffffffffffffffffffffffffffffffff161461249a576124998482612cb6565b5b5b5050505050565b60006124ad8261097a565b90506124bd816000846001611ffc565b6124c68261097a565b90506004600083815260200190815260200160002060006101000a81549073ffffffffffffffffffffffffffffffffffffffff02191690556001600360008373ffffffffffffffffffffffffffffffffffffffff1673ffffffffffffffffffffffffffffffffffffffff168152602001908152602001600020600082825403925050819055506002600083815260200190815260200160002060006101000a81549073ffffffffffffffffffffffffffffffffffffffff021916905581600073ffffffffffffffffffffffffffffffffffffffff168273ffffffffffffffffffffffffffffffffffffffff167fddf252ad1be2c89b69c2b068fc378daa952ba7f163c4a11628f55a4df523b3ef60405160405180910390a46125ec81600084600161200e565b5050565b600073ffffffffffffffffffffffffffffffffffffffff168273ffffffffffffffffffffffffffffffffffffffff161415612660576040517f08c379a000000000000000000000000000000000000000000000000000000000815260040161265790614a25565b60405180910390fd5b61266981611fbb565b156126a9576040517f08c379a00000000000000000000000000000000000000000000000000000000081526004016126a090614a91565b60405180910390fd5b6126b7600083836001611ffc565b6126c081611fbb565b15612700576040517f08c379a00000000000000000000000000000000000000000000000000000000081526004016126f790614a91565b60405180910390fd5b6001600360008473ffffffffffffffffffffffffffffffffffffffff1673ffffffffffffffffffffffffffffffffffffffff16815260200190815260200160002060008282540192505081905550816002600083815260200190815260200160002060006101000a81548173ffffffffffffffffffffffffffffffffffffffff021916908373ffffffffffffffffffffffffffffffffffffffff160217905550808273ffffffffffffffffffffffffffffffffffffffff16600073ffffffffffffffffffffffffffffffffffffffff167fddf252ad1be2c89b69c2b068fc378daa952ba7f163c4a11628f55a4df523b3ef60405160405180910390a461280a60008383600161200e565b5050565b6000808273ffffffffffffffffffffffffffffffffffffffff163b119050919050565b60606000600161284084612d35565b01905060008167ffffffffffffffff81111561285f5761285e6133c3565b5b6040519080825280601f01601f1916602001820160405280156128915781602001600182028036833780820191505090505b509050600082602001820190505b6001156128fe578080600190039150507f3031323334353637383961626364656600000000000000000000000000000000600a86061a8153600a85816128e8576128e7614ab1565b5b04945060008514156128f9576128fe565b61289f565b819350505050919050565b6001811115612a2957600073ffffffffffffffffffffffffffffffffffffffff168473ffffffffffffffffffffffffffffffffffffffff161461299d5780600360008673ffffffffffffffffffffffffffffffffffffffff1673ffffffffffffffffffffffffffffffffffffffff16815260200190815260200160002060008282546129959190614ae0565b925050819055505b600073ffffffffffffffffffffffffffffffffffffffff168373ffffffffffffffffffffffffffffffffffffffff1614612a285780600360008573ffffffffffffffffffffffffffffffffffffffff1673ffffffffffffffffffffffffffffffffffffffff1681526020019081526020016000206000828254612a209190614644565b925050819055505b5b50505050565b6008805490506009600083815260200190815260200160002081905550600881908060018154018082558091505060019003906000526020600020016000909190919091505550565b60006001612a8584610a69565b612a8f9190614ae0565b9050600060076000848152602001908152602001600020549050818114612b74576000600660008673ffffffffffffffffffffffffffffffffffffffff1673ffffffffffffffffffffffffffffffffffffffff168152602001908152602001600020600084815260200190815260200160002054905080600660008773ffffffffffffffffffffffffffffffffffffffff1673ffffffffffffffffffffffffffffffffffffffff168152602001908152602001600020600084815260200190815260200160002081905550816007600083815260200190815260200160002081905550505b6007600084815260200190815260200160002060009055600660008573ffffffffffffffffffffffffffffffffffffffff1673ffffffffffffffffffffffffffffffffffffffff16815260200190815260200160002060008381526020019081526020016000206000905550505050565b60006001600880549050612bf99190614ae0565b9050600060096000848152602001908152602001600020549050600060088381548110612c2957612c28613f99565b5b906000526020600020015490508060088381548110612c4b57612c4a613f99565b5b906000526020600020018190555081600960008381526020019081526020016000208190555060096000858152602001908152602001600020600090556008805480612c9a57612c99614b14565b5b6001900381819060005260206000200160009055905550505050565b6000612cc183610a69565b905081600660008573ffffffffffffffffffffffffffffffffffffffff1673ffffffffffffffffffffffffffffffffffffffff168152602001908152602001600020600083815260200190815260200160002081905550806007600084815260200190815260200160002081905550505050565b600080600090507a184f03e93ff9f4daa797ed6e38ed64bf6a1f0100000000000000008310612d93577a184f03e93ff9f4daa797ed6e38ed64bf6a1f0100000000000000008381612d8957612d88614ab1565b5b0492506040810190505b6d04ee2d6d415b85acef81000000008310612dd0576d04ee2d6d415b85acef81000000008381612dc657612dc5614ab1565b5b0492506020810190505b662386f26fc100008310612dff57662386f26fc100008381612df557612df4614ab1565b5b0492506010810190505b6305f5e1008310612e28576305f5e1008381612e1e57612e1d614ab1565b5b0492506008810190505b6127108310612e4d576127108381612e4357612e42614ab1565b5b0492506004810190505b60648310612e705760648381612e6657612e65614ab1565b5b0492506002810190505b600a8310612e7f576001810190505b80915050919050565b5080546000825590600052602060002090810190612ea69190612f6f565b50565b828054612eb590613c8d565b90600052602060002090601f016020900481019282612ed75760008555612f1e565b82601f10612ef057805160ff1916838001178555612f1e565b82800160010185558215612f1e579182015b82811115612f1d578251825591602001919060010190612f02565b5b509050612f2b9190612fcc565b5090565b508054612f3b90613c8d565b6000825580601f10612f4d5750612f6c565b601f016020900490600052602060002090810190612f6b9190612fcc565b5b50565b5b80821115612fc857600080820160006101000a81549073ffffffffffffffffffffffffffffffffffffffff02191690556000820160146101000a8154906bffffffffffffffffffffffff021916905550600101612f70565b5090565b5b80821115612fe5576000816000905550600101612fcd565b5090565b6000604051905090565b600080fd5b600080fd5b60007fffffffff0000000000000000000000000000000000000000000000000000000082169050919050565b61303281612ffd565b811461303d57600080fd5b50565b60008135905061304f81613029565b92915050565b60006020828403121561306b5761306a612ff3565b5b600061307984828501613040565b91505092915050565b60008115159050919050565b61309781613082565b82525050565b60006020820190506130b2600083018461308e565b92915050565b600081519050919050565b600082825260208201905092915050565b60005b838110156130f25780820151818401526020810190506130d7565b83811115613101576000848401525b50505050565b6000601f19601f8301169050919050565b6000613123826130b8565b61312d81856130c3565b935061313d8185602086016130d4565b61314681613107565b840191505092915050565b6000602082019050818103600083015261316b8184613118565b905092915050565b6000819050919050565b61318681613173565b811461319157600080fd5b50565b6000813590506131a38161317d565b92915050565b6000602082840312156131bf576131be612ff3565b5b60006131cd84828501613194565b91505092915050565b600073ffffffffffffffffffffffffffffffffffffffff82169050919050565b6000613201826131d6565b9050919050565b613211816131f6565b82525050565b600060208201905061322c6000830184613208565b92915050565b61323b816131f6565b811461324657600080fd5b50565b60008135905061325881613232565b92915050565b6000806040838503121561327557613274612ff3565b5b600061328385828601613249565b925050602061329485828601613194565b9150509250929050565b6132a781613173565b82525050565b60006020820190506132c2600083018461329e565b92915050565b6000806000606084860312156132e1576132e0612ff3565b5b60006132ef86828701613249565b935050602061330086828701613249565b925050604061331186828701613194565b9150509250925092565b6000613326826131d6565b9050919050565b6133368161331b565b82525050565b60006bffffffffffffffffffffffff82169050919050565b61335d8161333c565b82525050565b6000604082019050613378600083018561332d565b6133856020830184613354565b9392505050565b6000602082840312156133a2576133a1612ff3565b5b60006133b084828501613249565b91505092915050565b600080fd5b600080fd5b7f4e487b7100000000000000000000000000000000000000000000000000000000600052604160045260246000fd5b6133fb82613107565b810181811067ffffffffffffffff8211171561341a576134196133c3565b5b80604052505050565b600061342d612fe9565b905061343982826133f2565b919050565b600067ffffffffffffffff821115613459576134586133c3565b5b61346282613107565b9050602081019050919050565b82818337600083830152505050565b600061349161348c8461343e565b613423565b9050828152602081018484840111156134ad576134ac6133be565b5b6134b884828561346f565b509392505050565b600082601f8301126134d5576134d46133b9565b5b81356134e584826020860161347e565b91505092915050565b600080fd5b600080fd5b61350181613082565b811461350c57600080fd5b50565b60008135905061351e816134f8565b92915050565b600067ffffffffffffffff82111561353f5761353e6133c3565b5b602082029050602081019050919050565b600080fd5b61355e8161331b565b811461356957600080fd5b50565b60008135905061357b81613555565b92915050565b61358a8161333c565b811461359557600080fd5b50565b6000813590506135a781613581565b92915050565b6000604082840312156135c3576135c26134ee565b5b6135cd6040613423565b905060006135dd8482850161356c565b60008301525060206135f184828501613598565b60208301525092915050565b600061361061360b84613524565b613423565b9050808382526020820190506040840283018581111561363357613632613550565b5b835b8181101561365c578061364888826135ad565b845260208401935050604081019050613635565b5050509392505050565b600082601f83011261367b5761367a6133b9565b5b813561368b8482602086016135fd565b91505092915050565b6000604082840312156136aa576136a96134ee565b5b6136b46040613423565b905060006136c48482850161350f565b600083015250602082013567ffffffffffffffff8111156136e8576136e76134f3565b5b6136f484828501613666565b60208301525092915050565b60008060006060848603121561371957613718612ff3565b5b600061372786828701613249565b935050602084013567ffffffffffffffff81111561374857613747612ff8565b5b613754868287016134c0565b925050604084013567ffffffffffffffff81111561377557613774612ff8565b5b61378186828701613694565b9150509250925092565b600080604083850312156137a2576137a1612ff3565b5b60006137b085828601613194565b925050602083013567ffffffffffffffff8111156137d1576137d0612ff8565b5b6137dd85828601613694565b9150509250929050565b600080604083850312156137fe576137fd612ff3565b5b600061380c85828601613249565b925050602061381d8582860161350f565b9150509250929050565b60006020828403121561383d5761383c612ff3565b5b600082013567ffffffffffffffff81111561385b5761385a612ff8565b5b61386784828501613666565b91505092915050565b600067ffffffffffffffff82111561388b5761388a6133c3565b5b61389482613107565b9050602081019050919050565b60006138b46138af84613870565b613423565b9050828152602081018484840111156138d0576138cf6133be565b5b6138db84828561346f565b509392505050565b600082601f8301126138f8576138f76133b9565b5b81356139088482602086016138a1565b91505092915050565b6000806000806080858703121561392b5761392a612ff3565b5b600061393987828801613249565b945050602061394a87828801613249565b935050604061395b87828801613194565b925050606085013567ffffffffffffffff81111561397c5761397b612ff8565b5b613988878288016138e3565b91505092959194509250565b600081519050919050565b600082825260208201905092915050565b6000819050602082019050919050565b6139c98161331b565b82525050565b6139d88161333c565b82525050565b6040820160008201516139f460008501826139c0565b506020820151613a0760208501826139cf565b50505050565b6000613a1983836139de565b60408301905092915050565b6000602082019050919050565b6000613a3d82613994565b613a47818561399f565b9350613a52836139b0565b8060005b83811015613a83578151613a6a8882613a0d565b9750613a7583613a25565b925050600181019050613a56565b5085935050505092915050565b60006020820190508181036000830152613aaa8184613a32565b905092915050565b600067ffffffffffffffff821115613acd57613acc6133c3565b5b602082029050602081019050919050565b6000613af1613aec84613ab2565b613423565b90508083825260208201905060208402830185811115613b1457613b13613550565b5b835b81811015613b5b57803567ffffffffffffffff811115613b3957613b386133b9565b5b808601613b4689826134c0565b85526020850194505050602081019050613b16565b5050509392505050565b600082601f830112613b7a57613b796133b9565b5b8135613b8a848260208601613ade565b91505092915050565b600080600060608486031215613bac57613bab612ff3565b5b6000613bba86828701613194565b935050602084013567ffffffffffffffff811115613bdb57613bda612ff8565b5b613be786828701613b65565b925050604084013567ffffffffffffffff811115613c0857613c07612ff8565b5b613c1486828701613694565b9150509250925092565b60008060408385031215613c3557613c34612ff3565b5b6000613c4385828601613249565b9250506020613c5485828601613249565b9150509250929050565b7f4e487b7100000000000000000000000000000000000000000000000000000000600052602260045260246000fd5b60006002820490506001821680613ca557607f821691505b60208210811415613cb957613cb8613c5e565b5b50919050565b7f4552433732313a20617070726f76616c20746f2063757272656e74206f776e6560008201527f7200000000000000000000000000000000000000000000000000000000000000602082015250565b6000613d1b6021836130c3565b9150613d2682613cbf565b604082019050919050565b60006020820190508181036000830152613d4a81613d0e565b9050919050565b7f4552433732313a20617070726f76652063616c6c6572206973206e6f7420746f60008201527f6b656e206f776e6572206f7220617070726f76656420666f7220616c6c000000602082015250565b6000613dad603d836130c3565b9150613db882613d51565b604082019050919050565b60006020820190508181036000830152613ddc81613da0565b9050919050565b7f4552433732313a2063616c6c6572206973206e6f7420746f6b656e206f776e6560008201527f72206f7220617070726f76656400000000000000000000000000000000000000602082015250565b6000613e3f602d836130c3565b9150613e4a82613de3565b604082019050919050565b60006020820190508181036000830152613e6e81613e32565b9050919050565b7f455243373231456e756d657261626c653a206f776e657220696e646578206f7560008201527f74206f6620626f756e6473000000000000000000000000000000000000000000602082015250565b6000613ed1602b836130c3565b9150613edc82613e75565b604082019050919050565b60006020820190508181036000830152613f0081613ec4565b9050919050565b7f455243373231456e756d657261626c653a20676c6f62616c20696e646578206f60008201527f7574206f6620626f756e64730000000000000000000000000000000000000000602082015250565b6000613f63602c836130c3565b9150613f6e82613f07565b604082019050919050565b60006020820190508181036000830152613f9281613f56565b9050919050565b7f4e487b7100000000000000000000000000000000000000000000000000000000600052603260045260246000fd5b7f4552433732313a20696e76616c696420746f6b656e2049440000000000000000600082015250565b6000613ffe6018836130c3565b915061400982613fc8565b602082019050919050565b6000602082019050818103600083015261402d81613ff1565b9050919050565b7f4552433732313a2061646472657373207a65726f206973206e6f74206120766160008201527f6c6964206f776e65720000000000000000000000000000000000000000000000602082015250565b60006140906029836130c3565b915061409b82614034565b604082019050919050565b600060208201905081810360008301526140bf81614083565b9050919050565b60006040820190506140db600083018561329e565b81810360208301526140ed8184613a32565b90509392505050565b7f4d696e74696e67206d6f7265207468616e203135204e66747320617265206e6f60008201527f7420616c6c6f7765000000000000000000000000000000000000000000000000602082015250565b60006141526028836130c3565b915061415d826140f6565b604082019050919050565b6000602082019050818103600083015261418181614145565b9050919050565b7f757269206172726179206c656e6774682073686f756c6420626520657175616c60008201527f20746f205f746f74616c4e465400000000000000000000000000000000000000602082015250565b60006141e4602d836130c3565b91506141ef82614188565b604082019050919050565b60006020820190508181036000830152614213816141d7565b9050919050565b7f4e487b7100000000000000000000000000000000000000000000000000000000600052601160045260246000fd5b600061425482613173565b91507fffffffffffffffffffffffffffffffffffffffffffffffffffffffffffffffff8214156142875761428661421a565b5b600182019050919050565b7f4f776e61626c653a206e6577206f776e657220697320746865207a65726f206160008201527f6464726573730000000000000000000000000000000000000000000000000000602082015250565b60006142ee6026836130c3565b91506142f982614292565b604082019050919050565b6000602082019050818103600083015261431d816142e1565b9050919050565b7f4552433732313a207472616e736665722066726f6d20696e636f72726563742060008201527f6f776e6572000000000000000000000000000000000000000000000000000000602082015250565b60006143806025836130c3565b915061438b82614324565b604082019050919050565b600060208201905081810360008301526143af81614373565b9050919050565b7f4552433732313a207472616e7366657220746f20746865207a65726f2061646460008201527f7265737300000000000000000000000000000000000000000000000000000000602082015250565b60006144126024836130c3565b915061441d826143b6565b604082019050919050565b6000602082019050818103600083015261444181614405565b9050919050565b7f4f776e61626c653a2063616c6c6572206973206e6f7420746865206f776e6572600082015250565b600061447e6020836130c3565b915061448982614448565b602082019050919050565b600060208201905081810360008301526144ad81614471565b9050919050565b7f45524337323155524953746f726167653a2055524920736574206f66206e6f6e60008201527f6578697374656e7420746f6b656e000000000000000000000000000000000000602082015250565b6000614510602e836130c3565b915061451b826144b4565b604082019050919050565b6000602082019050818103600083015261453f81614503565b9050919050565b7f526f79616c747920726563697069656e742073686f756c64206265207072657360008201527f656e740000000000000000000000000000000000000000000000000000000000602082015250565b60006145a26023836130c3565b91506145ad82614546565b604082019050919050565b600060208201905081810360008301526145d181614595565b9050919050565b7f526f79616c74792076616c75652073686f756c64206265203e20300000000000600082015250565b600061460e601b836130c3565b9150614619826145d8565b602082019050919050565b6000602082019050818103600083015261463d81614601565b9050919050565b600061464f82613173565b915061465a83613173565b9250827fffffffffffffffffffffffffffffffffffffffffffffffffffffffffffffffff0382111561468f5761468e61421a565b5b828201905092915050565b7f53756d206f6620526f79616c74696573203e2031303025000000000000000000600082015250565b60006146d06017836130c3565b91506146db8261469a565b602082019050919050565b600060208201905081810360008301526146ff816146c3565b9050919050565b7f4552433732313a20617070726f766520746f2063616c6c657200000000000000600082015250565b600061473c6019836130c3565b915061474782614706565b602082019050919050565b6000602082019050818103600083015261476b8161472f565b9050919050565b7f4552433732313a207472616e7366657220746f206e6f6e20455243373231526560008201527f63656976657220696d706c656d656e7465720000000000000000000000000000602082015250565b60006147ce6032836130c3565b91506147d982614772565b604082019050919050565b600060208201905081810360008301526147fd816147c1565b9050919050565b600081905092915050565b600061481a826130b8565b6148248185614804565b93506148348185602086016130d4565b80840191505092915050565b600061484c828561480f565b9150614858828461480f565b91508190509392505050565b600081519050919050565b600082825260208201905092915050565b600061488b82614864565b614895818561486f565b93506148a58185602086016130d4565b6148ae81613107565b840191505092915050565b60006080820190506148ce6000830187613208565b6148db6020830186613208565b6148e8604083018561329e565b81810360608301526148fa8184614880565b905095945050505050565b60008151905061491481613029565b92915050565b6000602082840312156149305761492f612ff3565b5b600061493e84828501614905565b91505092915050565b7f455243373231456e756d657261626c653a20636f6e736563757469766520747260008201527f616e7366657273206e6f7420737570706f727465640000000000000000000000602082015250565b60006149a36035836130c3565b91506149ae82614947565b604082019050919050565b600060208201905081810360008301526149d281614996565b9050919050565b7f4552433732313a206d696e7420746f20746865207a65726f2061646472657373600082015250565b6000614a0f6020836130c3565b9150614a1a826149d9565b602082019050919050565b60006020820190508181036000830152614a3e81614a02565b9050919050565b7f4552433732313a20746f6b656e20616c7265616479206d696e74656400000000600082015250565b6000614a7b601c836130c3565b9150614a8682614a45565b602082019050919050565b60006020820190508181036000830152614aaa81614a6e565b9050919050565b7f4e487b7100000000000000000000000000000000000000000000000000000000600052601260045260246000fd5b6000614aeb82613173565b9150614af683613173565b925082821015614b0957614b0861421a565b5b828203905092915050565b7f4e487b7100000000000000000000000000000000000000000000000000000000600052603160045260246000fdfea264697066735822122056075d5da20a86fa22a141702234ab0006bc9afffcb83d313535bc16a94a3b6e64736f6c63430008090033",
  "linkReferences": {},
  "deployedLinkReferences": {}
}