{
  "_format": "hh-sol-artifact-1",
  "contractName": "NFTDrop",
  "sourceName": "contracts/NFTDrop.sol",
  "abi": [
    {
      "inputs": [
        {
          "internalType": "address",
          "name": "_pndc",
          "type": "address"
        },
        {
          "internalType": "address",
          "name": "_factory",
          "type": "address"
        },
        {
          "internalType": "address",
          "name": "address_Forweder",
          "type": "address"
        }
      ],
      "stateMutability": "nonpayable",
      "type": "constructor"
    },
    {
      "anonymous": false,
      "inputs": [
        {
          "indexed": false,
          "internalType": "address",
          "name": "moderator",
          "type": "address"
        },
        {
          "indexed": false,
          "internalType": "address",
          "name": "claimee",
          "type": "address"
        },
        {
          "indexed": false,
          "internalType": "uint256",
          "name": "tokenId",
          "type": "uint256"
        },
        {
          "indexed": false,
          "internalType": "address",
          "name": "collection",
          "type": "address"
        },
        {
          "indexed": false,
          "internalType": "uint256",
          "name": "endTime",
          "type": "uint256"
        }
      ],
      "name": "ClaimCreated",
      "type": "event"
    },
    {
      "anonymous": false,
      "inputs": [
        {
          "indexed": true,
          "internalType": "address",
          "name": "previousOwner",
          "type": "address"
        },
        {
          "indexed": true,
          "internalType": "address",
          "name": "newOwner",
          "type": "address"
        }
      ],
      "name": "OwnershipTransferred",
      "type": "event"
    },
    {
      "anonymous": false,
      "inputs": [
        {
          "indexed": false,
          "internalType": "address",
          "name": "claimee",
          "type": "address"
        },
        {
          "indexed": false,
          "internalType": "uint256",
          "name": "tokenId",
          "type": "uint256"
        },
        {
          "indexed": false,
          "internalType": "address",
          "name": "collection",
          "type": "address"
        },
        {
          "indexed": false,
          "internalType": "bool",
          "name": "withinTime",
          "type": "bool"
        },
        {
          "indexed": false,
          "internalType": "address",
          "name": "tokenTransferredTo",
          "type": "address"
        }
      ],
      "name": "TokensClaimed",
      "type": "event"
    },
    {
      "inputs": [],
      "name": "Factory",
      "outputs": [
        {
          "internalType": "address",
          "name": "",
          "type": "address"
        }
      ],
      "stateMutability": "view",
      "type": "function"
    },
    {
      "inputs": [],
      "name": "PNDC",
      "outputs": [
        {
          "internalType": "address",
          "name": "",
          "type": "address"
        }
      ],
      "stateMutability": "view",
      "type": "function"
    },
    {
      "inputs": [
        {
          "internalType": "address",
          "name": "_mod",
          "type": "address"
        }
      ],
      "name": "addMod",
      "outputs": [],
      "stateMutability": "nonpayable",
      "type": "function"
    },
    {
      "inputs": [],
      "name": "claim",
      "outputs": [],
      "stateMutability": "payable",
      "type": "function"
    },
    {
      "inputs": [
        {
          "internalType": "address",
          "name": "_collection",
          "type": "address"
        },
        {
          "internalType": "address",
          "name": "_claimee",
          "type": "address"
        },
        {
          "internalType": "uint256",
          "name": "_tokenId",
          "type": "uint256"
        },
        {
          "internalType": "uint256",
          "name": "_time",
          "type": "uint256"
        },
        {
          "internalType": "uint256",
          "name": "_price",
          "type": "uint256"
        }
      ],
      "name": "createClaim",
      "outputs": [],
      "stateMutability": "nonpayable",
      "type": "function"
    },
    {
      "inputs": [
        {
          "internalType": "address",
          "name": "_claimee",
          "type": "address"
        }
      ],
      "name": "getClaims",
      "outputs": [
        {
          "components": [
            {
              "internalType": "address",
              "name": "moderator",
              "type": "address"
            },
            {
              "internalType": "address",
              "name": "collection",
              "type": "address"
            },
            {
              "internalType": "uint256",
              "name": "tokenId",
              "type": "uint256"
            },
            {
              "internalType": "uint256",
              "name": "endTime",
              "type": "uint256"
            },
            {
              "internalType": "uint256",
              "name": "price",
              "type": "uint256"
            }
          ],
          "internalType": "struct NFTDrop.Claim[]",
          "name": "claims",
          "type": "tuple[]"
        }
      ],
      "stateMutability": "view",
      "type": "function"
    },
    {
      "inputs": [
        {
          "internalType": "address",
          "name": "",
          "type": "address"
        },
        {
          "internalType": "uint256",
          "name": "",
          "type": "uint256"
        }
      ],
      "name": "isClaimed",
      "outputs": [
        {
          "internalType": "bool",
          "name": "",
          "type": "bool"
        }
      ],
      "stateMutability": "view",
      "type": "function"
    },
    {
      "inputs": [
        {
          "internalType": "address",
          "name": "forwarder",
          "type": "address"
        }
      ],
      "name": "isTrustedForwarder",
      "outputs": [
        {
          "internalType": "bool",
          "name": "",
          "type": "bool"
        }
      ],
      "stateMutability": "view",
      "type": "function"
    },
    {
      "inputs": [
        {
          "internalType": "address",
          "name": "",
          "type": "address"
        },
        {
          "internalType": "address",
          "name": "",
          "type": "address"
        },
        {
          "internalType": "uint256",
          "name": "",
          "type": "uint256"
        },
        {
          "internalType": "bytes",
          "name": "",
          "type": "bytes"
        }
      ],
      "name": "onERC721Received",
      "outputs": [
        {
          "internalType": "bytes4",
          "name": "",
          "type": "bytes4"
        }
      ],
      "stateMutability": "nonpayable",
      "type": "function"
    },
    {
      "inputs": [],
      "name": "owner",
      "outputs": [
        {
          "internalType": "address",
          "name": "",
          "type": "address"
        }
      ],
      "stateMutability": "view",
      "type": "function"
    },
    {
      "inputs": [
        {
          "internalType": "address",
          "name": "_mod",
          "type": "address"
        }
      ],
      "name": "removeMod",
      "outputs": [],
      "stateMutability": "nonpayable",
      "type": "function"
    },
    {
      "inputs": [],
      "name": "renounceOwnership",
      "outputs": [],
      "stateMutability": "nonpayable",
      "type": "function"
    },
    {
      "inputs": [
        {
          "internalType": "address",
          "name": "",
          "type": "address"
        }
      ],
      "name": "s_moderators",
      "outputs": [
        {
          "internalType": "bool",
          "name": "",
          "type": "bool"
        }
      ],
      "stateMutability": "view",
      "type": "function"
    },
    {
      "inputs": [
        {
          "internalType": "address",
          "name": "_to",
          "type": "address"
        },
        {
          "internalType": "string",
          "name": "_uri",
          "type": "string"
        },
        {
          "components": [
            {
              "internalType": "address payable",
              "name": "account",
              "type": "address"
            },
            {
              "internalType": "uint96",
              "name": "value",
              "type": "uint96"
            }
          ],
          "internalType": "struct LibShare.Share[]",
          "name": "royalties",
          "type": "tuple[]"
        }
      ],
      "name": "safeMint",
      "outputs": [
        {
          "internalType": "uint256",
          "name": "",
          "type": "uint256"
        }
      ],
      "stateMutability": "nonpayable",
      "type": "function"
    },
    {
      "inputs": [
        {
          "internalType": "address",
          "name": "newOwner",
          "type": "address"
        }
      ],
      "name": "transferOwnership",
      "outputs": [],
      "stateMutability": "nonpayable",
      "type": "function"
    }
  ],
  "bytecode": "0x60a06040523480156200001157600080fd5b5060405162002c8938038062002c89833981810160405281019062000037919062000346565b808073ffffffffffffffffffffffffffffffffffffffff1660808173ffffffffffffffffffffffffffffffffffffffff1681525050506200008d620000816200017060201b60201c565b6200018c60201b60201c565b82600460006101000a81548173ffffffffffffffffffffffffffffffffffffffff021916908373ffffffffffffffffffffffffffffffffffffffff16021790555081600560006101000a81548173ffffffffffffffffffffffffffffffffffffffff021916908373ffffffffffffffffffffffffffffffffffffffff1602179055506001600260003373ffffffffffffffffffffffffffffffffffffffff1673ffffffffffffffffffffffffffffffffffffffff16815260200190815260200160002060006101000a81548160ff021916908315150217905550505050620003a2565b6000620001876200025060201b620018371760201c565b905090565b60008060009054906101000a900473ffffffffffffffffffffffffffffffffffffffff169050816000806101000a81548173ffffffffffffffffffffffffffffffffffffffff021916908373ffffffffffffffffffffffffffffffffffffffff1602179055508173ffffffffffffffffffffffffffffffffffffffff168173ffffffffffffffffffffffffffffffffffffffff167f8be0079c531659141344cd1fd0a4f28419497f9722a3daafe3b4186f6b6457e060405160405180910390a35050565b600062000263336200029a60201b60201c565b156200027957601436033560601c905062000296565b6200028e620002d460201b620018691760201c565b905062000297565b5b90565b600060805173ffffffffffffffffffffffffffffffffffffffff168273ffffffffffffffffffffffffffffffffffffffff16149050919050565b600033905090565b600080fd5b600073ffffffffffffffffffffffffffffffffffffffff82169050919050565b60006200030e82620002e1565b9050919050565b620003208162000301565b81146200032c57600080fd5b50565b600081519050620003408162000315565b92915050565b600080600060608486031215620003625762000361620002dc565b5b600062000372868287016200032f565b935050602062000385868287016200032f565b925050604062000398868287016200032f565b9150509250925092565b6080516128cb620003be6000396000610f3f01526128cb6000f3fe6080604052600436106100e85760003560e01c8063667834a91161008a578063a482c9a711610059578063a482c9a7146102e7578063c83dd23114610310578063d0d46a0b1461033b578063f2fde38b14610378576100e8565b8063667834a91461023d578063715018a61461026857806384f47a251461027f5780638da5cb5b146102bc576100e8565b80634637de3c116100c65780634637de3c146101905780634e71d92d146101b9578063562beba8146101c3578063572b6c0514610200576100e8565b806301a00216146100ed578063115f858814610116578063150b7a0214610153575b600080fd5b3480156100f957600080fd5b50610114600480360381019061010f9190611ad5565b6103a1565b005b34801561012257600080fd5b5061013d60048036038101906101389190611ad5565b610461565b60405161014a9190611b1d565b60405180910390f35b34801561015f57600080fd5b5061017a60048036038101906101759190611cb4565b610481565b6040516101879190611d72565b60405180910390f35b34801561019c57600080fd5b506101b760048036038101906101b29190611ad5565b610495565b005b6101c1610555565b005b3480156101cf57600080fd5b506101ea60048036038101906101e59190611d8d565b610f0c565b6040516101f79190611b1d565b60405180910390f35b34801561020c57600080fd5b5061022760048036038101906102229190611ad5565b610f3b565b6040516102349190611b1d565b60405180910390f35b34801561024957600080fd5b50610252610f93565b60405161025f9190611ddc565b60405180910390f35b34801561027457600080fd5b5061027d610fb9565b005b34801561028b57600080fd5b506102a660048036038101906102a19190612037565b610fcd565b6040516102b391906120d1565b60405180910390f35b3480156102c857600080fd5b506102d16110df565b6040516102de9190611ddc565b60405180910390f35b3480156102f357600080fd5b5061030e600480360381019061030991906120ec565b611108565b005b34801561031c57600080fd5b50610325611625565b6040516103329190611ddc565b60405180910390f35b34801561034757600080fd5b50610362600480360381019061035d9190611ad5565b61164b565b60405161036f919061229c565b60405180910390f35b34801561038457600080fd5b5061039f600480360381019061039a9190611ad5565b6117b3565b005b6103a9611871565b60001515600260008373ffffffffffffffffffffffffffffffffffffffff1673ffffffffffffffffffffffffffffffffffffffff16815260200190815260200160002060009054906101000a900460ff1615151461040657600080fd5b6001600260008373ffffffffffffffffffffffffffffffffffffffff1673ffffffffffffffffffffffffffffffffffffffff16815260200190815260200160002060006101000a81548160ff02191690831515021790555050565b60026020528060005260406000206000915054906101000a900460ff1681565b600063150b7a0260e01b9050949350505050565b61049d611871565b60011515600260008373ffffffffffffffffffffffffffffffffffffffff1673ffffffffffffffffffffffffffffffffffffffff16815260200190815260200160002060009054906101000a900460ff161515146104fa57600080fd5b6000600260008373ffffffffffffffffffffffffffffffffffffffff1673ffffffffffffffffffffffffffffffffffffffff16815260200190815260200160002060006101000a81548160ff02191690831515021790555050565b6000600160003373ffffffffffffffffffffffffffffffffffffffff1673ffffffffffffffffffffffffffffffffffffffff16815260200190815260200160002080549050905060008114156105aa57600080fd5b6000805b828110156106a157600160003373ffffffffffffffffffffffffffffffffffffffff1673ffffffffffffffffffffffffffffffffffffffff1681526020019081526020016000208181548110610607576106066122be565b5b906000526020600020906005020160030154421161069057600160003373ffffffffffffffffffffffffffffffffffffffff1673ffffffffffffffffffffffffffffffffffffffff16815260200190815260200160002081815481106106705761066f6122be565b5b9060005260206000209060050201600401548261068d919061231c565b91505b8061069a90612372565b90506105ae565b508034146106ae57600080fd5b60005b82811015610ebc57600160003373ffffffffffffffffffffffffffffffffffffffff1673ffffffffffffffffffffffffffffffffffffffff168152602001908152602001600020818154811061070a576107096122be565b5b9060005260206000209060050201600301544211610b2f576000600160003373ffffffffffffffffffffffffffffffffffffffff1673ffffffffffffffffffffffffffffffffffffffff1681526020019081526020016000208281548110610775576107746122be565b5b906000526020600020906005020160000160009054906101000a900473ffffffffffffffffffffffffffffffffffffffff1673ffffffffffffffffffffffffffffffffffffffff16600160003373ffffffffffffffffffffffffffffffffffffffff1673ffffffffffffffffffffffffffffffffffffffff168152602001908152602001600020838154811061080e5761080d6122be565b5b90600052602060002090600502016004015460405161082c906123ec565b60006040518083038185875af1925050503d8060008114610869576040519150601f19603f3d011682016040523d82523d6000602084013e61086e565b606091505b50509050806108b2576040517f08c379a00000000000000000000000000000000000000000000000000000000081526004016108a99061245e565b60405180910390fd5b600160003373ffffffffffffffffffffffffffffffffffffffff1673ffffffffffffffffffffffffffffffffffffffff1681526020019081526020016000208281548110610903576109026122be565b5b906000526020600020906005020160010160009054906101000a900473ffffffffffffffffffffffffffffffffffffffff1673ffffffffffffffffffffffffffffffffffffffff166342842e0e3033600160003373ffffffffffffffffffffffffffffffffffffffff1673ffffffffffffffffffffffffffffffffffffffff16815260200190815260200160002086815481106109a3576109a26122be565b5b9060005260206000209060050201600201546040518463ffffffff1660e01b81526004016109d39392919061247e565b600060405180830381600087803b1580156109ed57600080fd5b505af1158015610a01573d6000803e3d6000fd5b505050507f2ab52cfc7e4fa9e5a318d33fb2addd4fea30defc5a5b32ee1176ca31b50b604f33600160003373ffffffffffffffffffffffffffffffffffffffff1673ffffffffffffffffffffffffffffffffffffffff1681526020019081526020016000208481548110610a7857610a776122be565b5b906000526020600020906005020160020154600160003373ffffffffffffffffffffffffffffffffffffffff1673ffffffffffffffffffffffffffffffffffffffff1681526020019081526020016000208581548110610adb57610ada6122be565b5b906000526020600020906005020160010160009054906101000a900473ffffffffffffffffffffffffffffffffffffffff16600133604051610b219594939291906124b5565b60405180910390a150610eab565b600160003373ffffffffffffffffffffffffffffffffffffffff1673ffffffffffffffffffffffffffffffffffffffff1681526020019081526020016000208181548110610b8057610b7f6122be565b5b906000526020600020906005020160010160009054906101000a900473ffffffffffffffffffffffffffffffffffffffff1673ffffffffffffffffffffffffffffffffffffffff166342842e0e30600160003373ffffffffffffffffffffffffffffffffffffffff1673ffffffffffffffffffffffffffffffffffffffff1681526020019081526020016000208481548110610c1f57610c1e6122be565b5b906000526020600020906005020160000160009054906101000a900473ffffffffffffffffffffffffffffffffffffffff16600160003373ffffffffffffffffffffffffffffffffffffffff1673ffffffffffffffffffffffffffffffffffffffff1681526020019081526020016000208581548110610ca257610ca16122be565b5b9060005260206000209060050201600201546040518463ffffffff1660e01b8152600401610cd29392919061247e565b600060405180830381600087803b158015610cec57600080fd5b505af1158015610d00573d6000803e3d6000fd5b505050507f2ab52cfc7e4fa9e5a318d33fb2addd4fea30defc5a5b32ee1176ca31b50b604f33600160003373ffffffffffffffffffffffffffffffffffffffff1673ffffffffffffffffffffffffffffffffffffffff1681526020019081526020016000208381548110610d7757610d766122be565b5b906000526020600020906005020160020154600160003373ffffffffffffffffffffffffffffffffffffffff1673ffffffffffffffffffffffffffffffffffffffff1681526020019081526020016000208481548110610dda57610dd96122be565b5b906000526020600020906005020160010160009054906101000a900473ffffffffffffffffffffffffffffffffffffffff166000600160003373ffffffffffffffffffffffffffffffffffffffff1673ffffffffffffffffffffffffffffffffffffffff1681526020019081526020016000208681548110610e5f57610e5e6122be565b5b906000526020600020906005020160000160009054906101000a900473ffffffffffffffffffffffffffffffffffffffff16604051610ea29594939291906124b5565b60405180910390a15b80610eb590612372565b90506106b1565b50600160003373ffffffffffffffffffffffffffffffffffffffff1673ffffffffffffffffffffffffffffffffffffffff1681526020019081526020016000206000610f0891906119c2565b5050565b60036020528160005260406000206020528060005260406000206000915091509054906101000a900460ff1681565b60007f000000000000000000000000000000000000000000000000000000000000000073ffffffffffffffffffffffffffffffffffffffff168273ffffffffffffffffffffffffffffffffffffffff16149050919050565b600460009054906101000a900473ffffffffffffffffffffffffffffffffffffffff1681565b610fc1611871565b610fcb60006118ef565b565b6000600260003373ffffffffffffffffffffffffffffffffffffffff1673ffffffffffffffffffffffffffffffffffffffff16815260200190815260200160002060009054906101000a900460ff1661102557600080fd5b600460009054906101000a900473ffffffffffffffffffffffffffffffffffffffff1673ffffffffffffffffffffffffffffffffffffffff166384f47a258585856040518463ffffffff1660e01b81526004016110849392919061267b565b602060405180830381600087803b15801561109e57600080fd5b505af11580156110b2573d6000803e3d6000fd5b505050506040513d601f19601f820116820180604052508101906110d691906126d5565b90509392505050565b60008060009054906101000a900473ffffffffffffffffffffffffffffffffffffffff16905090565b600260003373ffffffffffffffffffffffffffffffffffffffff1673ffffffffffffffffffffffffffffffffffffffff16815260200190815260200160002060009054906101000a900460ff1661115e57600080fd5b600460009054906101000a900473ffffffffffffffffffffffffffffffffffffffff1673ffffffffffffffffffffffffffffffffffffffff168573ffffffffffffffffffffffffffffffffffffffff1614806112935750600073ffffffffffffffffffffffffffffffffffffffff16600560009054906101000a900473ffffffffffffffffffffffffffffffffffffffff1673ffffffffffffffffffffffffffffffffffffffff166340045db6876040518263ffffffff1660e01b81526004016112289190611ddc565b602060405180830381600087803b15801561124257600080fd5b505af1158015611256573d6000803e3d6000fd5b505050506040513d601f19601f8201168201806040525081019061127a9190612717565b73ffffffffffffffffffffffffffffffffffffffff1614155b61129c57600080fd5b3373ffffffffffffffffffffffffffffffffffffffff168573ffffffffffffffffffffffffffffffffffffffff16636352211e856040518263ffffffff1660e01b81526004016112ec91906120d1565b60206040518083038186803b15801561130457600080fd5b505afa158015611318573d6000803e3d6000fd5b505050506040513d601f19601f8201168201806040525081019061133c9190612717565b73ffffffffffffffffffffffffffffffffffffffff161461135c57600080fd5b3373ffffffffffffffffffffffffffffffffffffffff168473ffffffffffffffffffffffffffffffffffffffff16141561139557600080fd5b600082116113a257600080fd5b600a600160008673ffffffffffffffffffffffffffffffffffffffff1673ffffffffffffffffffffffffffffffffffffffff1681526020019081526020016000208054905011156113f257600080fd5b8473ffffffffffffffffffffffffffffffffffffffff166342842e0e3330866040518463ffffffff1660e01b815260040161142f9392919061247e565b600060405180830381600087803b15801561144957600080fd5b505af115801561145d573d6000803e3d6000fd5b5050505060006040518060a001604052803373ffffffffffffffffffffffffffffffffffffffff1681526020018773ffffffffffffffffffffffffffffffffffffffff16815260200185815260200184426114b8919061231c565b8152602001838152509050600160008673ffffffffffffffffffffffffffffffffffffffff1673ffffffffffffffffffffffffffffffffffffffff16815260200190815260200160002081908060018154018082558091505060019003906000526020600020906005020160009091909190915060008201518160000160006101000a81548173ffffffffffffffffffffffffffffffffffffffff021916908373ffffffffffffffffffffffffffffffffffffffff16021790555060208201518160010160006101000a81548173ffffffffffffffffffffffffffffffffffffffff021916908373ffffffffffffffffffffffffffffffffffffffff16021790555060408201518160020155606082015181600301556080820151816004015550507ffac5a5926432925c3512e0a7abb3a0609aff9b765fdacaa1c207fd4a8b266974338686898560600151604051611615959493929190612744565b60405180910390a1505050505050565b600560009054906101000a900473ffffffffffffffffffffffffffffffffffffffff1681565b6060600160008373ffffffffffffffffffffffffffffffffffffffff1673ffffffffffffffffffffffffffffffffffffffff168152602001908152602001600020805480602002602001604051908101604052809291908181526020016000905b828210156117a857838290600052602060002090600502016040518060a00160405290816000820160009054906101000a900473ffffffffffffffffffffffffffffffffffffffff1673ffffffffffffffffffffffffffffffffffffffff1673ffffffffffffffffffffffffffffffffffffffff1681526020016001820160009054906101000a900473ffffffffffffffffffffffffffffffffffffffff1673ffffffffffffffffffffffffffffffffffffffff1673ffffffffffffffffffffffffffffffffffffffff1681526020016002820154815260200160038201548152602001600482015481525050815260200190600101906116ac565b505050509050919050565b6117bb611871565b600073ffffffffffffffffffffffffffffffffffffffff168173ffffffffffffffffffffffffffffffffffffffff16141561182b576040517f08c379a000000000000000000000000000000000000000000000000000000000815260040161182290612809565b60405180910390fd5b611834816118ef565b50565b600061184233610f3b565b1561185657601436033560601c9050611865565b61185e611869565b9050611866565b5b90565b600033905090565b6118796119b3565b73ffffffffffffffffffffffffffffffffffffffff166118976110df565b73ffffffffffffffffffffffffffffffffffffffff16146118ed576040517f08c379a00000000000000000000000000000000000000000000000000000000081526004016118e490612875565b60405180910390fd5b565b60008060009054906101000a900473ffffffffffffffffffffffffffffffffffffffff169050816000806101000a81548173ffffffffffffffffffffffffffffffffffffffff021916908373ffffffffffffffffffffffffffffffffffffffff1602179055508173ffffffffffffffffffffffffffffffffffffffff168173ffffffffffffffffffffffffffffffffffffffff167f8be0079c531659141344cd1fd0a4f28419497f9722a3daafe3b4186f6b6457e060405160405180910390a35050565b60006119bd611837565b905090565b50805460008255600502906000526020600020908101906119e391906119e6565b50565b5b80821115611a5f57600080820160006101000a81549073ffffffffffffffffffffffffffffffffffffffff02191690556001820160006101000a81549073ffffffffffffffffffffffffffffffffffffffff0219169055600282016000905560038201600090556004820160009055506005016119e7565b5090565b6000604051905090565b600080fd5b600080fd5b600073ffffffffffffffffffffffffffffffffffffffff82169050919050565b6000611aa282611a77565b9050919050565b611ab281611a97565b8114611abd57600080fd5b50565b600081359050611acf81611aa9565b92915050565b600060208284031215611aeb57611aea611a6d565b5b6000611af984828501611ac0565b91505092915050565b60008115159050919050565b611b1781611b02565b82525050565b6000602082019050611b326000830184611b0e565b92915050565b6000819050919050565b611b4b81611b38565b8114611b5657600080fd5b50565b600081359050611b6881611b42565b92915050565b600080fd5b600080fd5b6000601f19601f8301169050919050565b7f4e487b7100000000000000000000000000000000000000000000000000000000600052604160045260246000fd5b611bc182611b78565b810181811067ffffffffffffffff82111715611be057611bdf611b89565b5b80604052505050565b6000611bf3611a63565b9050611bff8282611bb8565b919050565b600067ffffffffffffffff821115611c1f57611c1e611b89565b5b611c2882611b78565b9050602081019050919050565b82818337600083830152505050565b6000611c57611c5284611c04565b611be9565b905082815260208101848484011115611c7357611c72611b73565b5b611c7e848285611c35565b509392505050565b600082601f830112611c9b57611c9a611b6e565b5b8135611cab848260208601611c44565b91505092915050565b60008060008060808587031215611cce57611ccd611a6d565b5b6000611cdc87828801611ac0565b9450506020611ced87828801611ac0565b9350506040611cfe87828801611b59565b925050606085013567ffffffffffffffff811115611d1f57611d1e611a72565b5b611d2b87828801611c86565b91505092959194509250565b60007fffffffff0000000000000000000000000000000000000000000000000000000082169050919050565b611d6c81611d37565b82525050565b6000602082019050611d876000830184611d63565b92915050565b60008060408385031215611da457611da3611a6d565b5b6000611db285828601611ac0565b9250506020611dc385828601611b59565b9150509250929050565b611dd681611a97565b82525050565b6000602082019050611df16000830184611dcd565b92915050565b600067ffffffffffffffff821115611e1257611e11611b89565b5b611e1b82611b78565b9050602081019050919050565b6000611e3b611e3684611df7565b611be9565b905082815260208101848484011115611e5757611e56611b73565b5b611e62848285611c35565b509392505050565b600082601f830112611e7f57611e7e611b6e565b5b8135611e8f848260208601611e28565b91505092915050565b600067ffffffffffffffff821115611eb357611eb2611b89565b5b602082029050602081019050919050565b600080fd5b600080fd5b6000611ed982611a77565b9050919050565b611ee981611ece565b8114611ef457600080fd5b50565b600081359050611f0681611ee0565b92915050565b60006bffffffffffffffffffffffff82169050919050565b611f2d81611f0c565b8114611f3857600080fd5b50565b600081359050611f4a81611f24565b92915050565b600060408284031215611f6657611f65611ec9565b5b611f706040611be9565b90506000611f8084828501611ef7565b6000830152506020611f9484828501611f3b565b60208301525092915050565b6000611fb3611fae84611e98565b611be9565b90508083825260208201905060408402830185811115611fd657611fd5611ec4565b5b835b81811015611fff5780611feb8882611f50565b845260208401935050604081019050611fd8565b5050509392505050565b600082601f83011261201e5761201d611b6e565b5b813561202e848260208601611fa0565b91505092915050565b6000806000606084860312156120505761204f611a6d565b5b600061205e86828701611ac0565b935050602084013567ffffffffffffffff81111561207f5761207e611a72565b5b61208b86828701611e6a565b925050604084013567ffffffffffffffff8111156120ac576120ab611a72565b5b6120b886828701612009565b9150509250925092565b6120cb81611b38565b82525050565b60006020820190506120e660008301846120c2565b92915050565b600080600080600060a0868803121561210857612107611a6d565b5b600061211688828901611ac0565b955050602061212788828901611ac0565b945050604061213888828901611b59565b935050606061214988828901611b59565b925050608061215a88828901611b59565b9150509295509295909350565b600081519050919050565b600082825260208201905092915050565b6000819050602082019050919050565b61219c81611a97565b82525050565b6121ab81611b38565b82525050565b60a0820160008201516121c76000850182612193565b5060208201516121da6020850182612193565b5060408201516121ed60408501826121a2565b50606082015161220060608501826121a2565b50608082015161221360808501826121a2565b50505050565b600061222583836121b1565b60a08301905092915050565b6000602082019050919050565b600061224982612167565b6122538185612172565b935061225e83612183565b8060005b8381101561228f5781516122768882612219565b975061228183612231565b925050600181019050612262565b5085935050505092915050565b600060208201905081810360008301526122b6818461223e565b905092915050565b7f4e487b7100000000000000000000000000000000000000000000000000000000600052603260045260246000fd5b7f4e487b7100000000000000000000000000000000000000000000000000000000600052601160045260246000fd5b600061232782611b38565b915061233283611b38565b9250827fffffffffffffffffffffffffffffffffffffffffffffffffffffffffffffffff03821115612367576123666122ed565b5b828201905092915050565b600061237d82611b38565b91507fffffffffffffffffffffffffffffffffffffffffffffffffffffffffffffffff8214156123b0576123af6122ed565b5b600182019050919050565b600081905092915050565b50565b60006123d66000836123bb565b91506123e1826123c6565b600082019050919050565b60006123f7826123c9565b9150819050919050565b600082825260208201905092915050565b7f5472616e73666572206661696c65640000000000000000000000000000000000600082015250565b6000612448600f83612401565b915061245382612412565b602082019050919050565b600060208201905081810360008301526124778161243b565b9050919050565b60006060820190506124936000830186611dcd565b6124a06020830185611dcd565b6124ad60408301846120c2565b949350505050565b600060a0820190506124ca6000830188611dcd565b6124d760208301876120c2565b6124e46040830186611dcd565b6124f16060830185611b0e565b6124fe6080830184611dcd565b9695505050505050565b600081519050919050565b60005b83811015612531578082015181840152602081019050612516565b83811115612540576000848401525b50505050565b600061255182612508565b61255b8185612401565b935061256b818560208601612513565b61257481611b78565b840191505092915050565b600081519050919050565b600082825260208201905092915050565b6000819050602082019050919050565b6125b481611ece565b82525050565b6125c381611f0c565b82525050565b6040820160008201516125df60008501826125ab565b5060208201516125f260208501826125ba565b50505050565b600061260483836125c9565b60408301905092915050565b6000602082019050919050565b60006126288261257f565b612632818561258a565b935061263d8361259b565b8060005b8381101561266e57815161265588826125f8565b975061266083612610565b925050600181019050612641565b5085935050505092915050565b60006060820190506126906000830186611dcd565b81810360208301526126a28185612546565b905081810360408301526126b6818461261d565b9050949350505050565b6000815190506126cf81611b42565b92915050565b6000602082840312156126eb576126ea611a6d565b5b60006126f9848285016126c0565b91505092915050565b60008151905061271181611aa9565b92915050565b60006020828403121561272d5761272c611a6d565b5b600061273b84828501612702565b91505092915050565b600060a0820190506127596000830188611dcd565b6127666020830187611dcd565b61277360408301866120c2565b6127806060830185611dcd565b61278d60808301846120c2565b9695505050505050565b7f4f776e61626c653a206e6577206f776e657220697320746865207a65726f206160008201527f6464726573730000000000000000000000000000000000000000000000000000602082015250565b60006127f3602683612401565b91506127fe82612797565b604082019050919050565b60006020820190508181036000830152612822816127e6565b9050919050565b7f4f776e61626c653a2063616c6c6572206973206e6f7420746865206f776e6572600082015250565b600061285f602083612401565b915061286a82612829565b602082019050919050565b6000602082019050818103600083015261288e81612852565b905091905056fea26469706673582212206a7d9ce3acc8929c9d379810544626dc4c177dd65c595421a40e6126bd8968c264736f6c63430008090033",
  "linkReferences": {},
  "deployedLinkReferences": {}
}