{
  "_format": "hh-sol-artifact-1",
  "contractName": "NFTDrop",
  "sourceName": "contracts/NFTDrop.sol",
  "abi": [
    {
      "inputs": [
        {
          "internalType": "address",
          "name": "_pndc",
          "type": "address"
        },
        {
          "internalType": "address",
          "name": "_factory",
          "type": "address"
        }
      ],
      "stateMutability": "nonpayable",
      "type": "constructor"
    },
    {
      "anonymous": false,
      "inputs": [
        {
          "indexed": false,
          "internalType": "address",
          "name": "moderator",
          "type": "address"
        },
        {
          "indexed": false,
          "internalType": "address",
          "name": "claimee",
          "type": "address"
        },
        {
          "indexed": false,
          "internalType": "uint256",
          "name": "tokenId",
          "type": "uint256"
        },
        {
          "indexed": false,
          "internalType": "address",
          "name": "collection",
          "type": "address"
        },
        {
          "indexed": false,
          "internalType": "uint256",
          "name": "endTime",
          "type": "uint256"
        }
      ],
      "name": "ClaimCreated",
      "type": "event"
    },
    {
      "anonymous": false,
      "inputs": [
        {
          "indexed": true,
          "internalType": "address",
          "name": "previousOwner",
          "type": "address"
        },
        {
          "indexed": true,
          "internalType": "address",
          "name": "newOwner",
          "type": "address"
        }
      ],
      "name": "OwnershipTransferred",
      "type": "event"
    },
    {
      "anonymous": false,
      "inputs": [
        {
          "indexed": false,
          "internalType": "address",
          "name": "claimee",
          "type": "address"
        },
        {
          "indexed": false,
          "internalType": "uint256",
          "name": "tokenId",
          "type": "uint256"
        },
        {
          "indexed": false,
          "internalType": "address",
          "name": "collection",
          "type": "address"
        },
        {
          "indexed": false,
          "internalType": "bool",
          "name": "withinTime",
          "type": "bool"
        },
        {
          "indexed": false,
          "internalType": "address",
          "name": "tokenTransferredTo",
          "type": "address"
        }
      ],
      "name": "TokensClaimed",
      "type": "event"
    },
    {
      "inputs": [],
      "name": "Factory",
      "outputs": [
        {
          "internalType": "address",
          "name": "",
          "type": "address"
        }
      ],
      "stateMutability": "view",
      "type": "function"
    },
    {
      "inputs": [],
      "name": "PNDC",
      "outputs": [
        {
          "internalType": "address",
          "name": "",
          "type": "address"
        }
      ],
      "stateMutability": "view",
      "type": "function"
    },
    {
      "inputs": [
        {
          "internalType": "address",
          "name": "_mod",
          "type": "address"
        }
      ],
      "name": "addMod",
      "outputs": [],
      "stateMutability": "nonpayable",
      "type": "function"
    },
    {
      "inputs": [],
      "name": "claim",
      "outputs": [],
      "stateMutability": "payable",
      "type": "function"
    },
    {
      "inputs": [
        {
          "internalType": "address",
          "name": "_collection",
          "type": "address"
        },
        {
          "internalType": "address",
          "name": "_claimee",
          "type": "address"
        },
        {
          "internalType": "uint256",
          "name": "_tokenId",
          "type": "uint256"
        },
        {
          "internalType": "uint256",
          "name": "_time",
          "type": "uint256"
        },
        {
          "internalType": "uint256",
          "name": "_price",
          "type": "uint256"
        }
      ],
      "name": "createClaim",
      "outputs": [],
      "stateMutability": "nonpayable",
      "type": "function"
    },
    {
      "inputs": [
        {
          "internalType": "address",
          "name": "_claimee",
          "type": "address"
        }
      ],
      "name": "getClaims",
      "outputs": [
        {
          "components": [
            {
              "internalType": "address",
              "name": "moderator",
              "type": "address"
            },
            {
              "internalType": "address",
              "name": "collection",
              "type": "address"
            },
            {
              "internalType": "uint256",
              "name": "tokenId",
              "type": "uint256"
            },
            {
              "internalType": "uint256",
              "name": "endTime",
              "type": "uint256"
            },
            {
              "internalType": "uint256",
              "name": "price",
              "type": "uint256"
            }
          ],
          "internalType": "struct NFTDrop.Claim[]",
          "name": "claims",
          "type": "tuple[]"
        }
      ],
      "stateMutability": "view",
      "type": "function"
    },
    {
      "inputs": [
        {
          "internalType": "address",
          "name": "",
          "type": "address"
        },
        {
          "internalType": "address",
          "name": "",
          "type": "address"
        },
        {
          "internalType": "uint256",
          "name": "",
          "type": "uint256"
        },
        {
          "internalType": "bytes",
          "name": "",
          "type": "bytes"
        }
      ],
      "name": "onERC721Received",
      "outputs": [
        {
          "internalType": "bytes4",
          "name": "",
          "type": "bytes4"
        }
      ],
      "stateMutability": "nonpayable",
      "type": "function"
    },
    {
      "inputs": [],
      "name": "owner",
      "outputs": [
        {
          "internalType": "address",
          "name": "",
          "type": "address"
        }
      ],
      "stateMutability": "view",
      "type": "function"
    },
    {
      "inputs": [
        {
          "internalType": "address",
          "name": "_mod",
          "type": "address"
        }
      ],
      "name": "removeMod",
      "outputs": [],
      "stateMutability": "nonpayable",
      "type": "function"
    },
    {
      "inputs": [],
      "name": "renounceOwnership",
      "outputs": [],
      "stateMutability": "nonpayable",
      "type": "function"
    },
    {
      "inputs": [
        {
          "internalType": "address",
          "name": "",
          "type": "address"
        }
      ],
      "name": "s_moderators",
      "outputs": [
        {
          "internalType": "bool",
          "name": "",
          "type": "bool"
        }
      ],
      "stateMutability": "view",
      "type": "function"
    },
    {
      "inputs": [
        {
          "internalType": "address",
          "name": "_to",
          "type": "address"
        },
        {
          "internalType": "string",
          "name": "_uri",
          "type": "string"
        },
        {
          "components": [
            {
              "internalType": "address payable",
              "name": "account",
              "type": "address"
            },
            {
              "internalType": "uint96",
              "name": "value",
              "type": "uint96"
            }
          ],
          "internalType": "struct LibShare.Share[]",
          "name": "royalties",
          "type": "tuple[]"
        }
      ],
      "name": "safeMint",
      "outputs": [
        {
          "internalType": "uint256",
          "name": "",
          "type": "uint256"
        }
      ],
      "stateMutability": "nonpayable",
      "type": "function"
    },
    {
      "inputs": [
        {
          "internalType": "address",
          "name": "newOwner",
          "type": "address"
        }
      ],
      "name": "transferOwnership",
      "outputs": [],
      "stateMutability": "nonpayable",
      "type": "function"
    }
  ],
  "bytecode": "0x60806040523480156200001157600080fd5b5060405162002b9238038062002b9283398181016040528101906200003791906200021c565b620000576200004b6200013960201b60201c565b6200014160201b60201c565b81600360006101000a81548173ffffffffffffffffffffffffffffffffffffffff021916908373ffffffffffffffffffffffffffffffffffffffff16021790555080600460006101000a81548173ffffffffffffffffffffffffffffffffffffffff021916908373ffffffffffffffffffffffffffffffffffffffff1602179055506001600260003373ffffffffffffffffffffffffffffffffffffffff1673ffffffffffffffffffffffffffffffffffffffff16815260200190815260200160002060006101000a81548160ff0219169083151502179055505050620002ab565b600033905090565b60008060009054906101000a900473ffffffffffffffffffffffffffffffffffffffff169050816000806101000a81548173ffffffffffffffffffffffffffffffffffffffff021916908373ffffffffffffffffffffffffffffffffffffffff1602179055508173ffffffffffffffffffffffffffffffffffffffff168173ffffffffffffffffffffffffffffffffffffffff167f8be0079c531659141344cd1fd0a4f28419497f9722a3daafe3b4186f6b6457e060405160405180910390a35050565b600081519050620002168162000291565b92915050565b600080604083850312156200023057600080fd5b6000620002408582860162000205565b9250506020620002538582860162000205565b9150509250929050565b60006200026a8262000271565b9050919050565b600073ffffffffffffffffffffffffffffffffffffffff82169050919050565b6200029c816200025d565b8114620002a857600080fd5b50565b6128d780620002bb6000396000f3fe6080604052600436106100c25760003560e01c8063715018a61161007f578063a482c9a711610059578063a482c9a714610247578063c83dd23114610270578063d0d46a0b1461029b578063f2fde38b146102d8576100c2565b8063715018a6146101c857806384f47a25146101df5780638da5cb5b1461021c576100c2565b806301a00216146100c7578063115f8588146100f0578063150b7a021461012d5780634637de3c1461016a5780634e71d92d14610193578063667834a91461019d575b600080fd5b3480156100d357600080fd5b506100ee60048036038101906100e99190611d65565b610301565b005b3480156100fc57600080fd5b5061011760048036038101906101129190611d65565b6103c1565b6040516101249190612385565b60405180910390f35b34801561013957600080fd5b50610154600480360381019061014f9190611db7565b6103e1565b60405161016191906123a0565b60405180910390f35b34801561017657600080fd5b50610191600480360381019061018c9190611d65565b6103f5565b005b61019b6104b5565b005b3480156101a957600080fd5b506101b26110a6565b6040516101bf9190612226565b60405180910390f35b3480156101d457600080fd5b506101dd6110cc565b005b3480156101eb57600080fd5b5061020660048036038101906102019190611ea9565b6110e0565b604051610213919061241b565b60405180910390f35b34801561022857600080fd5b506102316111f2565b60405161023e9190612226565b60405180910390f35b34801561025357600080fd5b5061026e60048036038101906102699190611e32565b61121b565b005b34801561027c57600080fd5b50610285611738565b6040516102929190612226565b60405180910390f35b3480156102a757600080fd5b506102c260048036038101906102bd9190611d65565b61175e565b6040516102cf9190612363565b60405180910390f35b3480156102e457600080fd5b506102ff60048036038101906102fa9190611d65565b6118c6565b005b61030961194a565b60001515600260008373ffffffffffffffffffffffffffffffffffffffff1673ffffffffffffffffffffffffffffffffffffffff16815260200190815260200160002060009054906101000a900460ff1615151461036657600080fd5b6001600260008373ffffffffffffffffffffffffffffffffffffffff1673ffffffffffffffffffffffffffffffffffffffff16815260200190815260200160002060006101000a81548160ff02191690831515021790555050565b60026020528060005260406000206000915054906101000a900460ff1681565b600063150b7a0260e01b9050949350505050565b6103fd61194a565b60011515600260008373ffffffffffffffffffffffffffffffffffffffff1673ffffffffffffffffffffffffffffffffffffffff16815260200190815260200160002060009054906101000a900460ff1615151461045a57600080fd5b6000600260008373ffffffffffffffffffffffffffffffffffffffff1673ffffffffffffffffffffffffffffffffffffffff16815260200190815260200160002060006101000a81548160ff02191690831515021790555050565b6000600160003373ffffffffffffffffffffffffffffffffffffffff1673ffffffffffffffffffffffffffffffffffffffff168152602001908152602001600020805490509050600081141561050a57600080fd5b6000805b8281101561064d57600160003373ffffffffffffffffffffffffffffffffffffffff1673ffffffffffffffffffffffffffffffffffffffff168152602001908152602001600020818154811061058d577f4e487b7100000000000000000000000000000000000000000000000000000000600052603260045260246000fd5b906000526020600020906005020160030154421161063c57600160003373ffffffffffffffffffffffffffffffffffffffff1673ffffffffffffffffffffffffffffffffffffffff168152602001908152602001600020818154811061061c577f4e487b7100000000000000000000000000000000000000000000000000000000600052603260045260246000fd5b906000526020600020906005020160040154826106399190612582565b91505b80610646906126e9565b905061050e565b5080341461065a57600080fd5b60005b8281101561105657600160003373ffffffffffffffffffffffffffffffffffffffff1673ffffffffffffffffffffffffffffffffffffffff16815260200190815260200160002081815481106106dc577f4e487b7100000000000000000000000000000000000000000000000000000000600052603260045260246000fd5b9060005260206000209060050201600301544211610be5576000600160003373ffffffffffffffffffffffffffffffffffffffff1673ffffffffffffffffffffffffffffffffffffffff168152602001908152602001600020828154811061076d577f4e487b7100000000000000000000000000000000000000000000000000000000600052603260045260246000fd5b906000526020600020906005020160000160009054906101000a900473ffffffffffffffffffffffffffffffffffffffff1673ffffffffffffffffffffffffffffffffffffffff16600160003373ffffffffffffffffffffffffffffffffffffffff1673ffffffffffffffffffffffffffffffffffffffff168152602001908152602001600020838154811061082c577f4e487b7100000000000000000000000000000000000000000000000000000000600052603260045260246000fd5b90600052602060002090600502016004015460405161084a90612211565b60006040518083038185875af1925050503d8060008114610887576040519150601f19603f3d011682016040523d82523d6000602084013e61088c565b606091505b50509050806108d0576040517f08c379a00000000000000000000000000000000000000000000000000000000081526004016108c7906123db565b60405180910390fd5b600160003373ffffffffffffffffffffffffffffffffffffffff1673ffffffffffffffffffffffffffffffffffffffff1681526020019081526020016000208281548110610947577f4e487b7100000000000000000000000000000000000000000000000000000000600052603260045260246000fd5b906000526020600020906005020160010160009054906101000a900473ffffffffffffffffffffffffffffffffffffffff1673ffffffffffffffffffffffffffffffffffffffff166342842e0e3033600160003373ffffffffffffffffffffffffffffffffffffffff1673ffffffffffffffffffffffffffffffffffffffff1681526020019081526020016000208681548110610a0d577f4e487b7100000000000000000000000000000000000000000000000000000000600052603260045260246000fd5b9060005260206000209060050201600201546040518463ffffffff1660e01b8152600401610a3d93929190612241565b600060405180830381600087803b158015610a5757600080fd5b505af1158015610a6b573d6000803e3d6000fd5b505050507f2ab52cfc7e4fa9e5a318d33fb2addd4fea30defc5a5b32ee1176ca31b50b604f33600160003373ffffffffffffffffffffffffffffffffffffffff1673ffffffffffffffffffffffffffffffffffffffff1681526020019081526020016000208481548110610b08577f4e487b7100000000000000000000000000000000000000000000000000000000600052603260045260246000fd5b906000526020600020906005020160020154600160003373ffffffffffffffffffffffffffffffffffffffff1673ffffffffffffffffffffffffffffffffffffffff1681526020019081526020016000208581548110610b91577f4e487b7100000000000000000000000000000000000000000000000000000000600052603260045260246000fd5b906000526020600020906005020160010160009054906101000a900473ffffffffffffffffffffffffffffffffffffffff16600133604051610bd7959493929190612310565b60405180910390a150611045565b600160003373ffffffffffffffffffffffffffffffffffffffff1673ffffffffffffffffffffffffffffffffffffffff1681526020019081526020016000208181548110610c5c577f4e487b7100000000000000000000000000000000000000000000000000000000600052603260045260246000fd5b906000526020600020906005020160010160009054906101000a900473ffffffffffffffffffffffffffffffffffffffff1673ffffffffffffffffffffffffffffffffffffffff166342842e0e30600160003373ffffffffffffffffffffffffffffffffffffffff1673ffffffffffffffffffffffffffffffffffffffff1681526020019081526020016000208481548110610d21577f4e487b7100000000000000000000000000000000000000000000000000000000600052603260045260246000fd5b906000526020600020906005020160000160009054906101000a900473ffffffffffffffffffffffffffffffffffffffff16600160003373ffffffffffffffffffffffffffffffffffffffff1673ffffffffffffffffffffffffffffffffffffffff1681526020019081526020016000208581548110610dca577f4e487b7100000000000000000000000000000000000000000000000000000000600052603260045260246000fd5b9060005260206000209060050201600201546040518463ffffffff1660e01b8152600401610dfa93929190612241565b600060405180830381600087803b158015610e1457600080fd5b505af1158015610e28573d6000803e3d6000fd5b505050507f2ab52cfc7e4fa9e5a318d33fb2addd4fea30defc5a5b32ee1176ca31b50b604f33600160003373ffffffffffffffffffffffffffffffffffffffff1673ffffffffffffffffffffffffffffffffffffffff1681526020019081526020016000208381548110610ec5577f4e487b7100000000000000000000000000000000000000000000000000000000600052603260045260246000fd5b906000526020600020906005020160020154600160003373ffffffffffffffffffffffffffffffffffffffff1673ffffffffffffffffffffffffffffffffffffffff1681526020019081526020016000208481548110610f4e577f4e487b7100000000000000000000000000000000000000000000000000000000600052603260045260246000fd5b906000526020600020906005020160010160009054906101000a900473ffffffffffffffffffffffffffffffffffffffff166000600160003373ffffffffffffffffffffffffffffffffffffffff1673ffffffffffffffffffffffffffffffffffffffff1681526020019081526020016000208681548110610ff9577f4e487b7100000000000000000000000000000000000000000000000000000000600052603260045260246000fd5b906000526020600020906005020160000160009054906101000a900473ffffffffffffffffffffffffffffffffffffffff1660405161103c959493929190612310565b60405180910390a15b8061104f906126e9565b905061065d565b50600160003373ffffffffffffffffffffffffffffffffffffffff1673ffffffffffffffffffffffffffffffffffffffff16815260200190815260200160002060006110a29190611a94565b5050565b600360009054906101000a900473ffffffffffffffffffffffffffffffffffffffff1681565b6110d461194a565b6110de60006119c8565b565b6000600260003373ffffffffffffffffffffffffffffffffffffffff1673ffffffffffffffffffffffffffffffffffffffff16815260200190815260200160002060009054906101000a900460ff1661113857600080fd5b600360009054906101000a900473ffffffffffffffffffffffffffffffffffffffff1673ffffffffffffffffffffffffffffffffffffffff166384f47a258585856040518463ffffffff1660e01b8152600401611197939291906122cb565b602060405180830381600087803b1580156111b157600080fd5b505af11580156111c5573d6000803e3d6000fd5b505050506040513d601f19601f820116820180604052508101906111e99190611f28565b90509392505050565b60008060009054906101000a900473ffffffffffffffffffffffffffffffffffffffff16905090565b600260003373ffffffffffffffffffffffffffffffffffffffff1673ffffffffffffffffffffffffffffffffffffffff16815260200190815260200160002060009054906101000a900460ff1661127157600080fd5b600360009054906101000a900473ffffffffffffffffffffffffffffffffffffffff1673ffffffffffffffffffffffffffffffffffffffff168573ffffffffffffffffffffffffffffffffffffffff1614806113a65750600073ffffffffffffffffffffffffffffffffffffffff16600460009054906101000a900473ffffffffffffffffffffffffffffffffffffffff1673ffffffffffffffffffffffffffffffffffffffff166340045db6876040518263ffffffff1660e01b815260040161133b9190612226565b602060405180830381600087803b15801561135557600080fd5b505af1158015611369573d6000803e3d6000fd5b505050506040513d601f19601f8201168201806040525081019061138d9190611d8e565b73ffffffffffffffffffffffffffffffffffffffff1614155b6113af57600080fd5b3373ffffffffffffffffffffffffffffffffffffffff168573ffffffffffffffffffffffffffffffffffffffff16636352211e856040518263ffffffff1660e01b81526004016113ff919061241b565b60206040518083038186803b15801561141757600080fd5b505afa15801561142b573d6000803e3d6000fd5b505050506040513d601f19601f8201168201806040525081019061144f9190611d8e565b73ffffffffffffffffffffffffffffffffffffffff161461146f57600080fd5b3373ffffffffffffffffffffffffffffffffffffffff168473ffffffffffffffffffffffffffffffffffffffff1614156114a857600080fd5b600082116114b557600080fd5b600a600160008673ffffffffffffffffffffffffffffffffffffffff1673ffffffffffffffffffffffffffffffffffffffff16815260200190815260200160002080549050111561150557600080fd5b8473ffffffffffffffffffffffffffffffffffffffff166342842e0e3330866040518463ffffffff1660e01b815260040161154293929190612241565b600060405180830381600087803b15801561155c57600080fd5b505af1158015611570573d6000803e3d6000fd5b5050505060006040518060a001604052803373ffffffffffffffffffffffffffffffffffffffff1681526020018773ffffffffffffffffffffffffffffffffffffffff16815260200185815260200184426115cb9190612582565b8152602001838152509050600160008673ffffffffffffffffffffffffffffffffffffffff1673ffffffffffffffffffffffffffffffffffffffff16815260200190815260200160002081908060018154018082558091505060019003906000526020600020906005020160009091909190915060008201518160000160006101000a81548173ffffffffffffffffffffffffffffffffffffffff021916908373ffffffffffffffffffffffffffffffffffffffff16021790555060208201518160010160006101000a81548173ffffffffffffffffffffffffffffffffffffffff021916908373ffffffffffffffffffffffffffffffffffffffff16021790555060408201518160020155606082015181600301556080820151816004015550507ffac5a5926432925c3512e0a7abb3a0609aff9b765fdacaa1c207fd4a8b266974338686898560600151604051611728959493929190612278565b60405180910390a1505050505050565b600460009054906101000a900473ffffffffffffffffffffffffffffffffffffffff1681565b6060600160008373ffffffffffffffffffffffffffffffffffffffff1673ffffffffffffffffffffffffffffffffffffffff168152602001908152602001600020805480602002602001604051908101604052809291908181526020016000905b828210156118bb57838290600052602060002090600502016040518060a00160405290816000820160009054906101000a900473ffffffffffffffffffffffffffffffffffffffff1673ffffffffffffffffffffffffffffffffffffffff1673ffffffffffffffffffffffffffffffffffffffff1681526020016001820160009054906101000a900473ffffffffffffffffffffffffffffffffffffffff1673ffffffffffffffffffffffffffffffffffffffff1673ffffffffffffffffffffffffffffffffffffffff1681526020016002820154815260200160038201548152602001600482015481525050815260200190600101906117bf565b505050509050919050565b6118ce61194a565b600073ffffffffffffffffffffffffffffffffffffffff168173ffffffffffffffffffffffffffffffffffffffff16141561193e576040517f08c379a0000000000000000000000000000000000000000000000000000000008152600401611935906123bb565b60405180910390fd5b611947816119c8565b50565b611952611a8c565b73ffffffffffffffffffffffffffffffffffffffff166119706111f2565b73ffffffffffffffffffffffffffffffffffffffff16146119c6576040517f08c379a00000000000000000000000000000000000000000000000000000000081526004016119bd906123fb565b60405180910390fd5b565b60008060009054906101000a900473ffffffffffffffffffffffffffffffffffffffff169050816000806101000a81548173ffffffffffffffffffffffffffffffffffffffff021916908373ffffffffffffffffffffffffffffffffffffffff1602179055508173ffffffffffffffffffffffffffffffffffffffff168173ffffffffffffffffffffffffffffffffffffffff167f8be0079c531659141344cd1fd0a4f28419497f9722a3daafe3b4186f6b6457e060405160405180910390a35050565b600033905090565b5080546000825560050290600052602060002090810190611ab59190611ab8565b50565b5b80821115611b3157600080820160006101000a81549073ffffffffffffffffffffffffffffffffffffffff02191690556001820160006101000a81549073ffffffffffffffffffffffffffffffffffffffff021916905560028201600090556003820160009055600482016000905550600501611ab9565b5090565b6000611b48611b438461245b565b612436565b90508083825260208201905082856040860282011115611b6757600080fd5b60005b85811015611b975781611b7d8882611cda565b845260208401935060408301925050600181019050611b6a565b5050509392505050565b6000611bb4611baf84612487565b612436565b905082815260208101848484011115611bcc57600080fd5b611bd7848285612676565b509392505050565b6000611bf2611bed846124b8565b612436565b905082815260208101848484011115611c0a57600080fd5b611c15848285612676565b509392505050565b600081359050611c2c81612845565b92915050565b600081519050611c4181612845565b92915050565b600081359050611c568161285c565b92915050565b600082601f830112611c6d57600080fd5b8135611c7d848260208601611b35565b91505092915050565b600082601f830112611c9757600080fd5b8135611ca7848260208601611ba1565b91505092915050565b600082601f830112611cc157600080fd5b8135611cd1848260208601611bdf565b91505092915050565b600060408284031215611cec57600080fd5b611cf66040612436565b90506000611d0684828501611c47565b6000830152506020611d1a84828501611d50565b60208301525092915050565b600081359050611d3581612873565b92915050565b600081519050611d4a81612873565b92915050565b600081359050611d5f8161288a565b92915050565b600060208284031215611d7757600080fd5b6000611d8584828501611c1d565b91505092915050565b600060208284031215611da057600080fd5b6000611dae84828501611c32565b91505092915050565b60008060008060808587031215611dcd57600080fd5b6000611ddb87828801611c1d565b9450506020611dec87828801611c1d565b9350506040611dfd87828801611d26565b925050606085013567ffffffffffffffff811115611e1a57600080fd5b611e2687828801611c86565b91505092959194509250565b600080600080600060a08688031215611e4a57600080fd5b6000611e5888828901611c1d565b9550506020611e6988828901611c1d565b9450506040611e7a88828901611d26565b9350506060611e8b88828901611d26565b9250506080611e9c88828901611d26565b9150509295509295909350565b600080600060608486031215611ebe57600080fd5b6000611ecc86828701611c1d565b935050602084013567ffffffffffffffff811115611ee957600080fd5b611ef586828701611cb0565b925050604084013567ffffffffffffffff811115611f1257600080fd5b611f1e86828701611c5c565b9150509250925092565b600060208284031215611f3a57600080fd5b6000611f4884828501611d3b565b91505092915050565b6000611f5d838361214d565b60a08301905092915050565b6000611f7583836121b5565b60408301905092915050565b611f8a816125ea565b82525050565b611f99816125d8565b82525050565b611fa8816125d8565b82525050565b6000611fb982612509565b611fc38185612544565b9350611fce836124e9565b8060005b83811015611fff578151611fe68882611f51565b9750611ff18361252a565b925050600181019050611fd2565b5085935050505092915050565b600061201782612514565b6120218185612555565b935061202c836124f9565b8060005b8381101561205d5781516120448882611f69565b975061204f83612537565b925050600181019050612030565b5085935050505092915050565b612073816125fc565b82525050565b61208281612608565b82525050565b60006120938261251f565b61209d8185612571565b93506120ad818560208601612685565b6120b681612790565b840191505092915050565b60006120ce602683612571565b91506120d9826127a1565b604082019050919050565b60006120f1600f83612571565b91506120fc826127f0565b602082019050919050565b6000612114602083612571565b915061211f82612819565b602082019050919050565b6000612137600083612566565b915061214282612842565b600082019050919050565b60a0820160008201516121636000850182611f90565b5060208201516121766020850182611f90565b50604082015161218960408501826121e4565b50606082015161219c60608501826121e4565b5060808201516121af60808501826121e4565b50505050565b6040820160008201516121cb6000850182611f81565b5060208201516121de6020850182612202565b50505050565b6121ed81612654565b82525050565b6121fc81612654565b82525050565b61220b8161265e565b82525050565b600061221c8261212a565b9150819050919050565b600060208201905061223b6000830184611f9f565b92915050565b60006060820190506122566000830186611f9f565b6122636020830185611f9f565b61227060408301846121f3565b949350505050565b600060a08201905061228d6000830188611f9f565b61229a6020830187611f9f565b6122a760408301866121f3565b6122b46060830185611f9f565b6122c160808301846121f3565b9695505050505050565b60006060820190506122e06000830186611f9f565b81810360208301526122f28185612088565b90508181036040830152612306818461200c565b9050949350505050565b600060a0820190506123256000830188611f9f565b61233260208301876121f3565b61233f6040830186611f9f565b61234c606083018561206a565b6123596080830184611f9f565b9695505050505050565b6000602082019050818103600083015261237d8184611fae565b905092915050565b600060208201905061239a600083018461206a565b92915050565b60006020820190506123b56000830184612079565b92915050565b600060208201905081810360008301526123d4816120c1565b9050919050565b600060208201905081810360008301526123f4816120e4565b9050919050565b6000602082019050818103600083015261241481612107565b9050919050565b600060208201905061243060008301846121f3565b92915050565b6000612440612451565b905061244c82826126b8565b919050565b6000604051905090565b600067ffffffffffffffff82111561247657612475612761565b5b602082029050602081019050919050565b600067ffffffffffffffff8211156124a2576124a1612761565b5b6124ab82612790565b9050602081019050919050565b600067ffffffffffffffff8211156124d3576124d2612761565b5b6124dc82612790565b9050602081019050919050565b6000819050602082019050919050565b6000819050602082019050919050565b600081519050919050565b600081519050919050565b600081519050919050565b6000602082019050919050565b6000602082019050919050565b600082825260208201905092915050565b600082825260208201905092915050565b600081905092915050565b600082825260208201905092915050565b600061258d82612654565b915061259883612654565b9250827fffffffffffffffffffffffffffffffffffffffffffffffffffffffffffffffff038211156125cd576125cc612732565b5b828201905092915050565b60006125e382612634565b9050919050565b60006125f582612634565b9050919050565b60008115159050919050565b60007fffffffff0000000000000000000000000000000000000000000000000000000082169050919050565b600073ffffffffffffffffffffffffffffffffffffffff82169050919050565b6000819050919050565b60006bffffffffffffffffffffffff82169050919050565b82818337600083830152505050565b60005b838110156126a3578082015181840152602081019050612688565b838111156126b2576000848401525b50505050565b6126c182612790565b810181811067ffffffffffffffff821117156126e0576126df612761565b5b80604052505050565b60006126f482612654565b91507fffffffffffffffffffffffffffffffffffffffffffffffffffffffffffffffff82141561272757612726612732565b5b600182019050919050565b7f4e487b7100000000000000000000000000000000000000000000000000000000600052601160045260246000fd5b7f4e487b7100000000000000000000000000000000000000000000000000000000600052604160045260246000fd5b6000601f19601f8301169050919050565b7f4f776e61626c653a206e6577206f776e657220697320746865207a65726f206160008201527f6464726573730000000000000000000000000000000000000000000000000000602082015250565b7f5472616e73666572206661696c65640000000000000000000000000000000000600082015250565b7f4f776e61626c653a2063616c6c6572206973206e6f7420746865206f776e6572600082015250565b50565b61284e816125d8565b811461285957600080fd5b50565b612865816125ea565b811461287057600080fd5b50565b61287c81612654565b811461288757600080fd5b50565b6128938161265e565b811461289e57600080fd5b5056fea264697066735822122053be3adda1f73785b1f32cc55e1ea3052794dab65cf0e10dfede1c8f33c0e83e64736f6c63430008020033",
  "linkReferences": {},
  "deployedLinkReferences": {}
}