{
  "_format": "hh-sol-artifact-1",
  "contractName": "NFTDrop",
  "sourceName": "contracts/NFTDrop.sol",
  "abi": [
    {
      "inputs": [
        {
          "internalType": "address",
          "name": "_pndc",
          "type": "address"
        },
        {
          "internalType": "address",
          "name": "_factory",
          "type": "address"
        }
      ],
      "stateMutability": "nonpayable",
      "type": "constructor"
    },
    {
      "anonymous": false,
      "inputs": [
        {
          "indexed": false,
          "internalType": "address",
          "name": "moderator",
          "type": "address"
        },
        {
          "indexed": false,
          "internalType": "address",
          "name": "claimee",
          "type": "address"
        },
        {
          "indexed": false,
          "internalType": "uint256",
          "name": "tokenId",
          "type": "uint256"
        },
        {
          "indexed": false,
          "internalType": "address",
          "name": "collection",
          "type": "address"
        },
        {
          "indexed": false,
          "internalType": "uint256",
          "name": "endTime",
          "type": "uint256"
        }
      ],
      "name": "ClaimCreated",
      "type": "event"
    },
    {
      "anonymous": false,
      "inputs": [
        {
          "indexed": true,
          "internalType": "address",
          "name": "previousOwner",
          "type": "address"
        },
        {
          "indexed": true,
          "internalType": "address",
          "name": "newOwner",
          "type": "address"
        }
      ],
      "name": "OwnershipTransferred",
      "type": "event"
    },
    {
      "anonymous": false,
      "inputs": [
        {
          "indexed": false,
          "internalType": "address",
          "name": "claimee",
          "type": "address"
        },
        {
          "indexed": false,
          "internalType": "uint256",
          "name": "tokenId",
          "type": "uint256"
        },
        {
          "indexed": false,
          "internalType": "address",
          "name": "collection",
          "type": "address"
        },
        {
          "indexed": false,
          "internalType": "bool",
          "name": "withinTime",
          "type": "bool"
        },
        {
          "indexed": false,
          "internalType": "address",
          "name": "tokenTransferredTo",
          "type": "address"
        }
      ],
      "name": "TokensClaimed",
      "type": "event"
    },
    {
      "inputs": [],
      "name": "Factory",
      "outputs": [
        {
          "internalType": "address",
          "name": "",
          "type": "address"
        }
      ],
      "stateMutability": "view",
      "type": "function"
    },
    {
      "inputs": [],
      "name": "PNDC",
      "outputs": [
        {
          "internalType": "address",
          "name": "",
          "type": "address"
        }
      ],
      "stateMutability": "view",
      "type": "function"
    },
    {
      "inputs": [
        {
          "internalType": "address",
          "name": "_mod",
          "type": "address"
        }
      ],
      "name": "addMod",
      "outputs": [],
      "stateMutability": "nonpayable",
      "type": "function"
    },
    {
      "inputs": [],
      "name": "claim",
      "outputs": [],
      "stateMutability": "nonpayable",
      "type": "function"
    },
    {
      "inputs": [
        {
          "internalType": "address",
          "name": "_collection",
          "type": "address"
        },
        {
          "internalType": "address",
          "name": "_claimee",
          "type": "address"
        },
        {
          "internalType": "uint256",
          "name": "_tokenId",
          "type": "uint256"
        },
        {
          "internalType": "uint256",
          "name": "_time",
          "type": "uint256"
        }
      ],
      "name": "createClaim",
      "outputs": [],
      "stateMutability": "nonpayable",
      "type": "function"
    },
    {
      "inputs": [
        {
          "internalType": "address",
          "name": "",
          "type": "address"
        },
        {
          "internalType": "address",
          "name": "",
          "type": "address"
        },
        {
          "internalType": "uint256",
          "name": "",
          "type": "uint256"
        },
        {
          "internalType": "bytes",
          "name": "",
          "type": "bytes"
        }
      ],
      "name": "onERC721Received",
      "outputs": [
        {
          "internalType": "bytes4",
          "name": "",
          "type": "bytes4"
        }
      ],
      "stateMutability": "nonpayable",
      "type": "function"
    },
    {
      "inputs": [],
      "name": "owner",
      "outputs": [
        {
          "internalType": "address",
          "name": "",
          "type": "address"
        }
      ],
      "stateMutability": "view",
      "type": "function"
    },
    {
      "inputs": [
        {
          "internalType": "address",
          "name": "_mod",
          "type": "address"
        }
      ],
      "name": "removeMod",
      "outputs": [],
      "stateMutability": "nonpayable",
      "type": "function"
    },
    {
      "inputs": [],
      "name": "renounceOwnership",
      "outputs": [],
      "stateMutability": "nonpayable",
      "type": "function"
    },
    {
      "inputs": [
        {
          "internalType": "address",
          "name": "",
          "type": "address"
        }
      ],
      "name": "s_moderators",
      "outputs": [
        {
          "internalType": "bool",
          "name": "",
          "type": "bool"
        }
      ],
      "stateMutability": "view",
      "type": "function"
    },
    {
      "inputs": [
        {
          "internalType": "address",
          "name": "",
          "type": "address"
        },
        {
          "internalType": "uint256",
          "name": "",
          "type": "uint256"
        }
      ],
      "name": "s_userClaims",
      "outputs": [
        {
          "internalType": "address",
          "name": "moderator",
          "type": "address"
        },
        {
          "internalType": "address",
          "name": "collection",
          "type": "address"
        },
        {
          "internalType": "uint256",
          "name": "tokenId",
          "type": "uint256"
        },
        {
          "internalType": "uint256",
          "name": "endTime",
          "type": "uint256"
        }
      ],
      "stateMutability": "view",
      "type": "function"
    },
    {
      "inputs": [
        {
          "internalType": "address",
          "name": "_to",
          "type": "address"
        },
        {
          "internalType": "string",
          "name": "_uri",
          "type": "string"
        },
        {
          "components": [
            {
              "internalType": "address payable",
              "name": "account",
              "type": "address"
            },
            {
              "internalType": "uint96",
              "name": "value",
              "type": "uint96"
            }
          ],
          "internalType": "struct LibShare.Share[]",
          "name": "royalties",
          "type": "tuple[]"
        }
      ],
      "name": "safeMint",
      "outputs": [
        {
          "internalType": "uint256",
          "name": "",
          "type": "uint256"
        }
      ],
      "stateMutability": "nonpayable",
      "type": "function"
    },
    {
      "inputs": [
        {
          "internalType": "address",
          "name": "newOwner",
          "type": "address"
        }
      ],
      "name": "transferOwnership",
      "outputs": [],
      "stateMutability": "nonpayable",
      "type": "function"
    }
  ],
  "bytecode": "0x60806040523480156200001157600080fd5b50604051620025483803806200254883398181016040528101906200003791906200021c565b620000576200004b6200013960201b60201c565b6200014160201b60201c565b81600360006101000a81548173ffffffffffffffffffffffffffffffffffffffff021916908373ffffffffffffffffffffffffffffffffffffffff16021790555080600460006101000a81548173ffffffffffffffffffffffffffffffffffffffff021916908373ffffffffffffffffffffffffffffffffffffffff1602179055506001600260003373ffffffffffffffffffffffffffffffffffffffff1673ffffffffffffffffffffffffffffffffffffffff16815260200190815260200160002060006101000a81548160ff0219169083151502179055505050620002ab565b600033905090565b60008060009054906101000a900473ffffffffffffffffffffffffffffffffffffffff169050816000806101000a81548173ffffffffffffffffffffffffffffffffffffffff021916908373ffffffffffffffffffffffffffffffffffffffff1602179055508173ffffffffffffffffffffffffffffffffffffffff168173ffffffffffffffffffffffffffffffffffffffff167f8be0079c531659141344cd1fd0a4f28419497f9722a3daafe3b4186f6b6457e060405160405180910390a35050565b600081519050620002168162000291565b92915050565b600080604083850312156200023057600080fd5b6000620002408582860162000205565b9250506020620002538582860162000205565b9150509250929050565b60006200026a8262000271565b9050919050565b600073ffffffffffffffffffffffffffffffffffffffff82169050919050565b6200029c816200025d565b8114620002a857600080fd5b50565b61228d80620002bb6000396000f3fe608060405234801561001057600080fd5b50600436106100cf5760003560e01c8063715018a61161008c5780638da5cb5b116100665780638da5cb5b146101ea578063aedf49f714610208578063c83dd2311461023b578063f2fde38b14610259576100cf565b8063715018a6146101945780637a3358ec1461019e57806384f47a25146101ba576100cf565b806301a00216146100d4578063115f8588146100f0578063150b7a02146101205780634637de3c146101505780634e71d92d1461016c578063667834a914610176575b600080fd5b6100ee60048036038101906100e991906118b7565b610275565b005b61010a600480360381019061010591906118b7565b610335565b6040516101179190611dcb565b60405180910390f35b61013a60048036038101906101359190611909565b610355565b6040516101479190611de6565b60405180910390f35b61016a600480360381019061016591906118b7565b610369565b005b610174610429565b005b61017e610cec565b60405161018b9190611c49565b60405180910390f35b61019c610d12565b005b6101b860048036038101906101b39190611984565b610d26565b005b6101d460048036038101906101cf91906119e7565b611232565b6040516101e19190611e41565b60405180910390f35b6101f2611344565b6040516101ff9190611c49565b60405180910390f35b610222600480360381019061021d9190611a66565b61136d565b6040516102329493929190611cee565b60405180910390f35b6102436113fa565b6040516102509190611c49565b60405180910390f35b610273600480360381019061026e91906118b7565b611420565b005b61027d6114a4565b60001515600260008373ffffffffffffffffffffffffffffffffffffffff1673ffffffffffffffffffffffffffffffffffffffff16815260200190815260200160002060009054906101000a900460ff161515146102da57600080fd5b6001600260008373ffffffffffffffffffffffffffffffffffffffff1673ffffffffffffffffffffffffffffffffffffffff16815260200190815260200160002060006101000a81548160ff02191690831515021790555050565b60026020528060005260406000206000915054906101000a900460ff1681565b600063150b7a0260e01b9050949350505050565b6103716114a4565b60011515600260008373ffffffffffffffffffffffffffffffffffffffff1673ffffffffffffffffffffffffffffffffffffffff16815260200190815260200160002060009054906101000a900460ff161515146103ce57600080fd5b6000600260008373ffffffffffffffffffffffffffffffffffffffff1673ffffffffffffffffffffffffffffffffffffffff16815260200190815260200160002060006101000a81548160ff02191690831515021790555050565b6000600160003373ffffffffffffffffffffffffffffffffffffffff1673ffffffffffffffffffffffffffffffffffffffff168152602001908152602001600020805490509050600081141561047e57600080fd5b60005b81811015610c9d57600160003373ffffffffffffffffffffffffffffffffffffffff1673ffffffffffffffffffffffffffffffffffffffff1681526020019081526020016000208181548110610500577f4e487b7100000000000000000000000000000000000000000000000000000000600052603260045260246000fd5b906000526020600020906004020160030154421161082c57600160003373ffffffffffffffffffffffffffffffffffffffff1673ffffffffffffffffffffffffffffffffffffffff168152602001908152602001600020818154811061058f577f4e487b7100000000000000000000000000000000000000000000000000000000600052603260045260246000fd5b906000526020600020906004020160010160009054906101000a900473ffffffffffffffffffffffffffffffffffffffff1673ffffffffffffffffffffffffffffffffffffffff166342842e0e3033600160003373ffffffffffffffffffffffffffffffffffffffff1673ffffffffffffffffffffffffffffffffffffffff1681526020019081526020016000208581548110610655577f4e487b7100000000000000000000000000000000000000000000000000000000600052603260045260246000fd5b9060005260206000209060040201600201546040518463ffffffff1660e01b815260040161068593929190611c64565b600060405180830381600087803b15801561069f57600080fd5b505af11580156106b3573d6000803e3d6000fd5b505050507f2ab52cfc7e4fa9e5a318d33fb2addd4fea30defc5a5b32ee1176ca31b50b604f33600160003373ffffffffffffffffffffffffffffffffffffffff1673ffffffffffffffffffffffffffffffffffffffff1681526020019081526020016000208381548110610750577f4e487b7100000000000000000000000000000000000000000000000000000000600052603260045260246000fd5b906000526020600020906004020160020154600160003373ffffffffffffffffffffffffffffffffffffffff1673ffffffffffffffffffffffffffffffffffffffff16815260200190815260200160002084815481106107d9577f4e487b7100000000000000000000000000000000000000000000000000000000600052603260045260246000fd5b906000526020600020906004020160010160009054906101000a900473ffffffffffffffffffffffffffffffffffffffff1660013360405161081f959493929190611d78565b60405180910390a1610c8c565b600160003373ffffffffffffffffffffffffffffffffffffffff1673ffffffffffffffffffffffffffffffffffffffff16815260200190815260200160002081815481106108a3577f4e487b7100000000000000000000000000000000000000000000000000000000600052603260045260246000fd5b906000526020600020906004020160010160009054906101000a900473ffffffffffffffffffffffffffffffffffffffff1673ffffffffffffffffffffffffffffffffffffffff166342842e0e30600160003373ffffffffffffffffffffffffffffffffffffffff1673ffffffffffffffffffffffffffffffffffffffff1681526020019081526020016000208481548110610968577f4e487b7100000000000000000000000000000000000000000000000000000000600052603260045260246000fd5b906000526020600020906004020160000160009054906101000a900473ffffffffffffffffffffffffffffffffffffffff16600160003373ffffffffffffffffffffffffffffffffffffffff1673ffffffffffffffffffffffffffffffffffffffff1681526020019081526020016000208581548110610a11577f4e487b7100000000000000000000000000000000000000000000000000000000600052603260045260246000fd5b9060005260206000209060040201600201546040518463ffffffff1660e01b8152600401610a4193929190611c64565b600060405180830381600087803b158015610a5b57600080fd5b505af1158015610a6f573d6000803e3d6000fd5b505050507f2ab52cfc7e4fa9e5a318d33fb2addd4fea30defc5a5b32ee1176ca31b50b604f33600160003373ffffffffffffffffffffffffffffffffffffffff1673ffffffffffffffffffffffffffffffffffffffff1681526020019081526020016000208381548110610b0c577f4e487b7100000000000000000000000000000000000000000000000000000000600052603260045260246000fd5b906000526020600020906004020160020154600160003373ffffffffffffffffffffffffffffffffffffffff1673ffffffffffffffffffffffffffffffffffffffff1681526020019081526020016000208481548110610b95577f4e487b7100000000000000000000000000000000000000000000000000000000600052603260045260246000fd5b906000526020600020906004020160010160009054906101000a900473ffffffffffffffffffffffffffffffffffffffff166000600160003373ffffffffffffffffffffffffffffffffffffffff1673ffffffffffffffffffffffffffffffffffffffff1681526020019081526020016000208681548110610c40577f4e487b7100000000000000000000000000000000000000000000000000000000600052603260045260246000fd5b906000526020600020906004020160000160009054906101000a900473ffffffffffffffffffffffffffffffffffffffff16604051610c83959493929190611d78565b60405180910390a15b80610c96906120cb565b9050610481565b50600160003373ffffffffffffffffffffffffffffffffffffffff1673ffffffffffffffffffffffffffffffffffffffff1681526020019081526020016000206000610ce991906115ee565b50565b600360009054906101000a900473ffffffffffffffffffffffffffffffffffffffff1681565b610d1a6114a4565b610d246000611522565b565b600260003373ffffffffffffffffffffffffffffffffffffffff1673ffffffffffffffffffffffffffffffffffffffff16815260200190815260200160002060009054906101000a900460ff16610d7c57600080fd5b600360009054906101000a900473ffffffffffffffffffffffffffffffffffffffff1673ffffffffffffffffffffffffffffffffffffffff168473ffffffffffffffffffffffffffffffffffffffff161480610eb15750600073ffffffffffffffffffffffffffffffffffffffff16600460009054906101000a900473ffffffffffffffffffffffffffffffffffffffff1673ffffffffffffffffffffffffffffffffffffffff166340045db6866040518263ffffffff1660e01b8152600401610e469190611c49565b602060405180830381600087803b158015610e6057600080fd5b505af1158015610e74573d6000803e3d6000fd5b505050506040513d601f19601f82011682018060405250810190610e9891906118e0565b73ffffffffffffffffffffffffffffffffffffffff1614155b610eba57600080fd5b3373ffffffffffffffffffffffffffffffffffffffff168473ffffffffffffffffffffffffffffffffffffffff16636352211e846040518263ffffffff1660e01b8152600401610f0a9190611e41565b60206040518083038186803b158015610f2257600080fd5b505afa158015610f36573d6000803e3d6000fd5b505050506040513d601f19601f82011682018060405250810190610f5a91906118e0565b73ffffffffffffffffffffffffffffffffffffffff1614610f7a57600080fd5b3373ffffffffffffffffffffffffffffffffffffffff168373ffffffffffffffffffffffffffffffffffffffff161415610fb357600080fd5b60008111610fc057600080fd5b600a600160008573ffffffffffffffffffffffffffffffffffffffff1673ffffffffffffffffffffffffffffffffffffffff16815260200190815260200160002080549050111561101057600080fd5b8373ffffffffffffffffffffffffffffffffffffffff166342842e0e3330856040518463ffffffff1660e01b815260040161104d93929190611c64565b600060405180830381600087803b15801561106757600080fd5b505af115801561107b573d6000803e3d6000fd5b50505050600060405180608001604052803373ffffffffffffffffffffffffffffffffffffffff1681526020018673ffffffffffffffffffffffffffffffffffffffff16815260200184815260200183426110d69190611f64565b8152509050600160008573ffffffffffffffffffffffffffffffffffffffff1673ffffffffffffffffffffffffffffffffffffffff16815260200190815260200160002081908060018154018082558091505060019003906000526020600020906004020160009091909190915060008201518160000160006101000a81548173ffffffffffffffffffffffffffffffffffffffff021916908373ffffffffffffffffffffffffffffffffffffffff16021790555060208201518160010160006101000a81548173ffffffffffffffffffffffffffffffffffffffff021916908373ffffffffffffffffffffffffffffffffffffffff160217905550604082015181600201556060820151816003015550507ffac5a5926432925c3512e0a7abb3a0609aff9b765fdacaa1c207fd4a8b266974338585888560600151604051611223959493929190611c9b565b60405180910390a15050505050565b6000600260003373ffffffffffffffffffffffffffffffffffffffff1673ffffffffffffffffffffffffffffffffffffffff16815260200190815260200160002060009054906101000a900460ff1661128a57600080fd5b600360009054906101000a900473ffffffffffffffffffffffffffffffffffffffff1673ffffffffffffffffffffffffffffffffffffffff166384f47a258585856040518463ffffffff1660e01b81526004016112e993929190611d33565b602060405180830381600087803b15801561130357600080fd5b505af1158015611317573d6000803e3d6000fd5b505050506040513d601f19601f8201168201806040525081019061133b9190611aa2565b90509392505050565b60008060009054906101000a900473ffffffffffffffffffffffffffffffffffffffff16905090565b6001602052816000526040600020818154811061138957600080fd5b9060005260206000209060040201600091509150508060000160009054906101000a900473ffffffffffffffffffffffffffffffffffffffff16908060010160009054906101000a900473ffffffffffffffffffffffffffffffffffffffff16908060020154908060030154905084565b600460009054906101000a900473ffffffffffffffffffffffffffffffffffffffff1681565b6114286114a4565b600073ffffffffffffffffffffffffffffffffffffffff168173ffffffffffffffffffffffffffffffffffffffff161415611498576040517f08c379a000000000000000000000000000000000000000000000000000000000815260040161148f90611e01565b60405180910390fd5b6114a181611522565b50565b6114ac6115e6565b73ffffffffffffffffffffffffffffffffffffffff166114ca611344565b73ffffffffffffffffffffffffffffffffffffffff1614611520576040517f08c379a000000000000000000000000000000000000000000000000000000000815260040161151790611e21565b60405180910390fd5b565b60008060009054906101000a900473ffffffffffffffffffffffffffffffffffffffff169050816000806101000a81548173ffffffffffffffffffffffffffffffffffffffff021916908373ffffffffffffffffffffffffffffffffffffffff1602179055508173ffffffffffffffffffffffffffffffffffffffff168173ffffffffffffffffffffffffffffffffffffffff167f8be0079c531659141344cd1fd0a4f28419497f9722a3daafe3b4186f6b6457e060405160405180910390a35050565b600033905090565b508054600082556004029060005260206000209081019061160f9190611612565b50565b5b8082111561168357600080820160006101000a81549073ffffffffffffffffffffffffffffffffffffffff02191690556001820160006101000a81549073ffffffffffffffffffffffffffffffffffffffff02191690556002820160009055600382016000905550600401611613565b5090565b600061169a61169584611e81565b611e5c565b905080838252602082019050828560408602820111156116b957600080fd5b60005b858110156116e957816116cf888261182c565b8452602084019350604083019250506001810190506116bc565b5050509392505050565b600061170661170184611ead565b611e5c565b90508281526020810184848401111561171e57600080fd5b611729848285612058565b509392505050565b600061174461173f84611ede565b611e5c565b90508281526020810184848401111561175c57600080fd5b611767848285612058565b509392505050565b60008135905061177e816121fb565b92915050565b600081519050611793816121fb565b92915050565b6000813590506117a881612212565b92915050565b600082601f8301126117bf57600080fd5b81356117cf848260208601611687565b91505092915050565b600082601f8301126117e957600080fd5b81356117f98482602086016116f3565b91505092915050565b600082601f83011261181357600080fd5b8135611823848260208601611731565b91505092915050565b60006040828403121561183e57600080fd5b6118486040611e5c565b9050600061185884828501611799565b600083015250602061186c848285016118a2565b60208301525092915050565b60008135905061188781612229565b92915050565b60008151905061189c81612229565b92915050565b6000813590506118b181612240565b92915050565b6000602082840312156118c957600080fd5b60006118d78482850161176f565b91505092915050565b6000602082840312156118f257600080fd5b600061190084828501611784565b91505092915050565b6000806000806080858703121561191f57600080fd5b600061192d8782880161176f565b945050602061193e8782880161176f565b935050604061194f87828801611878565b925050606085013567ffffffffffffffff81111561196c57600080fd5b611978878288016117d8565b91505092959194509250565b6000806000806080858703121561199a57600080fd5b60006119a88782880161176f565b94505060206119b98782880161176f565b93505060406119ca87828801611878565b92505060606119db87828801611878565b91505092959194509250565b6000806000606084860312156119fc57600080fd5b6000611a0a8682870161176f565b935050602084013567ffffffffffffffff811115611a2757600080fd5b611a3386828701611802565b925050604084013567ffffffffffffffff811115611a5057600080fd5b611a5c868287016117ae565b9150509250925092565b60008060408385031215611a7957600080fd5b6000611a878582860161176f565b9250506020611a9885828601611878565b9150509250929050565b600060208284031215611ab457600080fd5b6000611ac28482850161188d565b91505092915050565b6000611ad78383611bfc565b60408301905092915050565b611aec81611fcc565b82525050565b611afb81611fba565b82525050565b6000611b0c82611f1f565b611b168185611f42565b9350611b2183611f0f565b8060005b83811015611b52578151611b398882611acb565b9750611b4483611f35565b925050600181019050611b25565b5085935050505092915050565b611b6881611fde565b82525050565b611b7781611fea565b82525050565b6000611b8882611f2a565b611b928185611f53565b9350611ba2818560208601612067565b611bab81612172565b840191505092915050565b6000611bc3602683611f53565b9150611bce82612183565b604082019050919050565b6000611be6602083611f53565b9150611bf1826121d2565b602082019050919050565b604082016000820151611c126000850182611ae3565b506020820151611c256020850182611c3a565b50505050565b611c3481612036565b82525050565b611c4381612040565b82525050565b6000602082019050611c5e6000830184611af2565b92915050565b6000606082019050611c796000830186611af2565b611c866020830185611af2565b611c936040830184611c2b565b949350505050565b600060a082019050611cb06000830188611af2565b611cbd6020830187611af2565b611cca6040830186611c2b565b611cd76060830185611af2565b611ce46080830184611c2b565b9695505050505050565b6000608082019050611d036000830187611af2565b611d106020830186611af2565b611d1d6040830185611c2b565b611d2a6060830184611c2b565b95945050505050565b6000606082019050611d486000830186611af2565b8181036020830152611d5a8185611b7d565b90508181036040830152611d6e8184611b01565b9050949350505050565b600060a082019050611d8d6000830188611af2565b611d9a6020830187611c2b565b611da76040830186611af2565b611db46060830185611b5f565b611dc16080830184611af2565b9695505050505050565b6000602082019050611de06000830184611b5f565b92915050565b6000602082019050611dfb6000830184611b6e565b92915050565b60006020820190508181036000830152611e1a81611bb6565b9050919050565b60006020820190508181036000830152611e3a81611bd9565b9050919050565b6000602082019050611e566000830184611c2b565b92915050565b6000611e66611e77565b9050611e72828261209a565b919050565b6000604051905090565b600067ffffffffffffffff821115611e9c57611e9b612143565b5b602082029050602081019050919050565b600067ffffffffffffffff821115611ec857611ec7612143565b5b611ed182612172565b9050602081019050919050565b600067ffffffffffffffff821115611ef957611ef8612143565b5b611f0282612172565b9050602081019050919050565b6000819050602082019050919050565b600081519050919050565b600081519050919050565b6000602082019050919050565b600082825260208201905092915050565b600082825260208201905092915050565b6000611f6f82612036565b9150611f7a83612036565b9250827fffffffffffffffffffffffffffffffffffffffffffffffffffffffffffffffff03821115611faf57611fae612114565b5b828201905092915050565b6000611fc582612016565b9050919050565b6000611fd782612016565b9050919050565b60008115159050919050565b60007fffffffff0000000000000000000000000000000000000000000000000000000082169050919050565b600073ffffffffffffffffffffffffffffffffffffffff82169050919050565b6000819050919050565b60006bffffffffffffffffffffffff82169050919050565b82818337600083830152505050565b60005b8381101561208557808201518184015260208101905061206a565b83811115612094576000848401525b50505050565b6120a382612172565b810181811067ffffffffffffffff821117156120c2576120c1612143565b5b80604052505050565b60006120d682612036565b91507fffffffffffffffffffffffffffffffffffffffffffffffffffffffffffffffff82141561210957612108612114565b5b600182019050919050565b7f4e487b7100000000000000000000000000000000000000000000000000000000600052601160045260246000fd5b7f4e487b7100000000000000000000000000000000000000000000000000000000600052604160045260246000fd5b6000601f19601f8301169050919050565b7f4f776e61626c653a206e6577206f776e657220697320746865207a65726f206160008201527f6464726573730000000000000000000000000000000000000000000000000000602082015250565b7f4f776e61626c653a2063616c6c6572206973206e6f7420746865206f776e6572600082015250565b61220481611fba565b811461220f57600080fd5b50565b61221b81611fcc565b811461222657600080fd5b50565b61223281612036565b811461223d57600080fd5b50565b61224981612040565b811461225457600080fd5b5056fea26469706673582212202b6e1582e510abd17d84752413e1576f5c64268ef8ecf8cb7b5710fdfd3e8f0d64736f6c63430008020033",
  "linkReferences": {},
  "deployedLinkReferences": {}
}