{
  "_format": "hh-sol-artifact-1",
  "contractName": "NFTDrop",
  "sourceName": "contracts/NFTDrop.sol",
  "abi": [
    {
      "inputs": [
        {
          "internalType": "address",
          "name": "_pndc",
          "type": "address"
        },
        {
          "internalType": "address",
          "name": "_factory",
          "type": "address"
        }
      ],
      "stateMutability": "nonpayable",
      "type": "constructor"
    },
    {
      "anonymous": false,
      "inputs": [
        {
          "indexed": false,
          "internalType": "address",
          "name": "moderator",
          "type": "address"
        },
        {
          "indexed": false,
          "internalType": "address",
          "name": "claimee",
          "type": "address"
        },
        {
          "indexed": false,
          "internalType": "uint256",
          "name": "tokenId",
          "type": "uint256"
        },
        {
          "indexed": false,
          "internalType": "address",
          "name": "collection",
          "type": "address"
        },
        {
          "indexed": false,
          "internalType": "uint256",
          "name": "endTime",
          "type": "uint256"
        }
      ],
      "name": "ClaimCreated",
      "type": "event"
    },
    {
      "anonymous": false,
      "inputs": [
        {
          "indexed": true,
          "internalType": "address",
          "name": "previousOwner",
          "type": "address"
        },
        {
          "indexed": true,
          "internalType": "address",
          "name": "newOwner",
          "type": "address"
        }
      ],
      "name": "OwnershipTransferred",
      "type": "event"
    },
    {
      "anonymous": false,
      "inputs": [
        {
          "indexed": false,
          "internalType": "address",
          "name": "claimee",
          "type": "address"
        },
        {
          "indexed": false,
          "internalType": "uint256",
          "name": "tokenId",
          "type": "uint256"
        },
        {
          "indexed": false,
          "internalType": "address",
          "name": "collection",
          "type": "address"
        },
        {
          "indexed": false,
          "internalType": "bool",
          "name": "withinTime",
          "type": "bool"
        },
        {
          "indexed": false,
          "internalType": "address",
          "name": "tokenTransferredTo",
          "type": "address"
        }
      ],
      "name": "TokensClaimed",
      "type": "event"
    },
    {
      "inputs": [],
      "name": "Factory",
      "outputs": [
        {
          "internalType": "address",
          "name": "",
          "type": "address"
        }
      ],
      "stateMutability": "view",
      "type": "function"
    },
    {
      "inputs": [],
      "name": "PNDC",
      "outputs": [
        {
          "internalType": "address",
          "name": "",
          "type": "address"
        }
      ],
      "stateMutability": "view",
      "type": "function"
    },
    {
      "inputs": [
        {
          "internalType": "address",
          "name": "_mod",
          "type": "address"
        }
      ],
      "name": "addMod",
      "outputs": [],
      "stateMutability": "nonpayable",
      "type": "function"
    },
    {
      "inputs": [
        {
          "internalType": "address",
          "name": "_factory",
          "type": "address"
        }
      ],
      "name": "changeFactory",
      "outputs": [],
      "stateMutability": "nonpayable",
      "type": "function"
    },
    {
      "inputs": [],
      "name": "claim",
      "outputs": [],
      "stateMutability": "payable",
      "type": "function"
    },
    {
      "inputs": [
        {
          "internalType": "address",
          "name": "_collection",
          "type": "address"
        },
        {
          "internalType": "address",
          "name": "_claimee",
          "type": "address"
        },
        {
          "internalType": "uint256",
          "name": "_tokenId",
          "type": "uint256"
        },
        {
          "internalType": "uint256",
          "name": "_time",
          "type": "uint256"
        },
        {
          "internalType": "uint256",
          "name": "_price",
          "type": "uint256"
        }
      ],
      "name": "createClaim",
      "outputs": [],
      "stateMutability": "nonpayable",
      "type": "function"
    },
    {
      "inputs": [
        {
          "internalType": "address",
          "name": "_claimee",
          "type": "address"
        }
      ],
      "name": "getClaims",
      "outputs": [
        {
          "components": [
            {
              "internalType": "address",
              "name": "moderator",
              "type": "address"
            },
            {
              "internalType": "address",
              "name": "collection",
              "type": "address"
            },
            {
              "internalType": "uint256",
              "name": "tokenId",
              "type": "uint256"
            },
            {
              "internalType": "uint256",
              "name": "endTime",
              "type": "uint256"
            },
            {
              "internalType": "uint256",
              "name": "price",
              "type": "uint256"
            }
          ],
          "internalType": "struct NFTDrop.Claim[]",
          "name": "claims",
          "type": "tuple[]"
        }
      ],
      "stateMutability": "view",
      "type": "function"
    },
    {
      "inputs": [
        {
          "internalType": "address",
          "name": "",
          "type": "address"
        },
        {
          "internalType": "address",
          "name": "",
          "type": "address"
        },
        {
          "internalType": "uint256",
          "name": "",
          "type": "uint256"
        },
        {
          "internalType": "bytes",
          "name": "",
          "type": "bytes"
        }
      ],
      "name": "onERC721Received",
      "outputs": [
        {
          "internalType": "bytes4",
          "name": "",
          "type": "bytes4"
        }
      ],
      "stateMutability": "nonpayable",
      "type": "function"
    },
    {
      "inputs": [],
      "name": "owner",
      "outputs": [
        {
          "internalType": "address",
          "name": "",
          "type": "address"
        }
      ],
      "stateMutability": "view",
      "type": "function"
    },
    {
      "inputs": [
        {
          "internalType": "address",
          "name": "_mod",
          "type": "address"
        }
      ],
      "name": "removeMod",
      "outputs": [],
      "stateMutability": "nonpayable",
      "type": "function"
    },
    {
      "inputs": [],
      "name": "renounceOwnership",
      "outputs": [],
      "stateMutability": "nonpayable",
      "type": "function"
    },
    {
      "inputs": [
        {
          "internalType": "address",
          "name": "",
          "type": "address"
        }
      ],
      "name": "s_moderators",
      "outputs": [
        {
          "internalType": "bool",
          "name": "",
          "type": "bool"
        }
      ],
      "stateMutability": "view",
      "type": "function"
    },
    {
      "inputs": [
        {
          "internalType": "address",
          "name": "_to",
          "type": "address"
        },
        {
          "internalType": "string",
          "name": "_uri",
          "type": "string"
        },
        {
          "components": [
            {
              "internalType": "address payable",
              "name": "account",
              "type": "address"
            },
            {
              "internalType": "uint96",
              "name": "value",
              "type": "uint96"
            }
          ],
          "internalType": "struct LibShare.Share[]",
          "name": "royalties",
          "type": "tuple[]"
        }
      ],
      "name": "safeMint",
      "outputs": [
        {
          "internalType": "uint256",
          "name": "",
          "type": "uint256"
        }
      ],
      "stateMutability": "nonpayable",
      "type": "function"
    },
    {
      "inputs": [
        {
          "internalType": "address",
          "name": "newOwner",
          "type": "address"
        }
      ],
      "name": "transferOwnership",
      "outputs": [],
      "stateMutability": "nonpayable",
      "type": "function"
    }
  ],
  "bytecode": "0x60806040523480156200001157600080fd5b506040516200279038038062002790833981810160405281019062000037919062000223565b620000576200004b6200014060201b60201c565b6200014860201b60201c565b6001808190555081600460006101000a81548173ffffffffffffffffffffffffffffffffffffffff021916908373ffffffffffffffffffffffffffffffffffffffff16021790555080600560006101000a81548173ffffffffffffffffffffffffffffffffffffffff021916908373ffffffffffffffffffffffffffffffffffffffff1602179055506001600360003373ffffffffffffffffffffffffffffffffffffffff1673ffffffffffffffffffffffffffffffffffffffff16815260200190815260200160002060006101000a81548160ff0219169083151502179055505050620002b2565b600033905090565b60008060009054906101000a900473ffffffffffffffffffffffffffffffffffffffff169050816000806101000a81548173ffffffffffffffffffffffffffffffffffffffff021916908373ffffffffffffffffffffffffffffffffffffffff1602179055508173ffffffffffffffffffffffffffffffffffffffff168173ffffffffffffffffffffffffffffffffffffffff167f8be0079c531659141344cd1fd0a4f28419497f9722a3daafe3b4186f6b6457e060405160405180910390a35050565b6000815190506200021d8162000298565b92915050565b600080604083850312156200023757600080fd5b600062000247858286016200020c565b92505060206200025a858286016200020c565b9150509250929050565b6000620002718262000278565b9050919050565b600073ffffffffffffffffffffffffffffffffffffffff82169050919050565b620002a38162000264565b8114620002af57600080fd5b50565b6124ce80620002c26000396000f3fe6080604052600436106100dd5760003560e01c8063715018a61161007f578063a482c9a711610059578063a482c9a71461028b578063c83dd231146102b4578063d0d46a0b146102df578063f2fde38b1461031c576100dd565b8063715018a61461020c57806384f47a25146102235780638da5cb5b14610260576100dd565b8063150b7a02116100bb578063150b7a02146101715780634637de3c146101ae5780634e71d92d146101d7578063667834a9146101e1576100dd565b806301a00216146100e2578063115f85881461010b57806311c6e74114610148575b600080fd5b3480156100ee57600080fd5b506101096004803603810190610104919061185e565b610345565b005b34801561011757600080fd5b50610132600480360381019061012d919061185e565b610405565b60405161013f9190611ec4565b60405180910390f35b34801561015457600080fd5b5061016f600480360381019061016a919061185e565b610425565b005b34801561017d57600080fd5b50610198600480360381019061019391906118b0565b610471565b6040516101a59190611edf565b60405180910390f35b3480156101ba57600080fd5b506101d560048036038101906101d0919061185e565b610485565b005b6101df610545565b005b3480156101ed57600080fd5b506101f6610b11565b6040516102039190611d65565b60405180910390f35b34801561021857600080fd5b50610221610b37565b005b34801561022f57600080fd5b5061024a600480360381019061024591906119a2565b610b4b565b6040516102579190611f9a565b60405180910390f35b34801561026c57600080fd5b50610275610c5d565b6040516102829190611d65565b60405180910390f35b34801561029757600080fd5b506102b260048036038101906102ad919061192b565b610c86565b005b3480156102c057600080fd5b506102c96111d8565b6040516102d69190611d65565b60405180910390f35b3480156102eb57600080fd5b506103066004803603810190610301919061185e565b6111fe565b6040516103139190611ea2565b60405180910390f35b34801561032857600080fd5b50610343600480360381019061033e919061185e565b611366565b005b61034d6113ea565b60001515600360008373ffffffffffffffffffffffffffffffffffffffff1673ffffffffffffffffffffffffffffffffffffffff16815260200190815260200160002060009054906101000a900460ff161515146103aa57600080fd5b6001600360008373ffffffffffffffffffffffffffffffffffffffff1673ffffffffffffffffffffffffffffffffffffffff16815260200190815260200160002060006101000a81548160ff02191690831515021790555050565b60036020528060005260406000206000915054906101000a900460ff1681565b61042d6113ea565b80600560006101000a81548173ffffffffffffffffffffffffffffffffffffffff021916908373ffffffffffffffffffffffffffffffffffffffff16021790555050565b600063150b7a0260e01b9050949350505050565b61048d6113ea565b60011515600360008373ffffffffffffffffffffffffffffffffffffffff1673ffffffffffffffffffffffffffffffffffffffff16815260200190815260200160002060009054906101000a900460ff161515146104ea57600080fd5b6000600360008373ffffffffffffffffffffffffffffffffffffffff1673ffffffffffffffffffffffffffffffffffffffff16815260200190815260200160002060006101000a81548160ff02191690831515021790555050565b61054d611468565b6000600260003373ffffffffffffffffffffffffffffffffffffffff1673ffffffffffffffffffffffffffffffffffffffff16815260200190815260200160002080549050905060008114156105a257600080fd5b6000805b828110156106e557600260003373ffffffffffffffffffffffffffffffffffffffff1673ffffffffffffffffffffffffffffffffffffffff1681526020019081526020016000208181548110610625577f4e487b7100000000000000000000000000000000000000000000000000000000600052603260045260246000fd5b90600052602060002090600502016003015442116106d457600260003373ffffffffffffffffffffffffffffffffffffffff1673ffffffffffffffffffffffffffffffffffffffff16815260200190815260200160002081815481106106b4577f4e487b7100000000000000000000000000000000000000000000000000000000600052603260045260246000fd5b906000526020600020906005020160040154826106d19190612101565b91505b806106de90612268565b90506105a6565b508034146106f257600080fd5b60005b82811015610ab9576000600260003373ffffffffffffffffffffffffffffffffffffffff1673ffffffffffffffffffffffffffffffffffffffff1681526020019081526020016000208281548110610776577f4e487b7100000000000000000000000000000000000000000000000000000000600052603260045260246000fd5b90600052602060002090600502016040518060a00160405290816000820160009054906101000a900473ffffffffffffffffffffffffffffffffffffffff1673ffffffffffffffffffffffffffffffffffffffff1673ffffffffffffffffffffffffffffffffffffffff1681526020016001820160009054906101000a900473ffffffffffffffffffffffffffffffffffffffff1673ffffffffffffffffffffffffffffffffffffffff1673ffffffffffffffffffffffffffffffffffffffff16815260200160028201548152602001600382015481526020016004820154815250509050806060015142116109df576000816000015173ffffffffffffffffffffffffffffffffffffffff16826080015160405161089490611d50565b60006040518083038185875af1925050503d80600081146108d1576040519150601f19603f3d011682016040523d82523d6000602084013e6108d6565b606091505b505090508061091a576040517f08c379a000000000000000000000000000000000000000000000000000000000815260040161091190611f1a565b60405180910390fd5b816020015173ffffffffffffffffffffffffffffffffffffffff166342842e0e303385604001516040518463ffffffff1660e01b815260040161095f93929190611d80565b600060405180830381600087803b15801561097957600080fd5b505af115801561098d573d6000803e3d6000fd5b505050507f2ab52cfc7e4fa9e5a318d33fb2addd4fea30defc5a5b32ee1176ca31b50b604f33836040015184602001516001336040516109d1959493929190611e4f565b60405180910390a150610aa7565b806020015173ffffffffffffffffffffffffffffffffffffffff166342842e0e30836000015184604001516040518463ffffffff1660e01b8152600401610a2893929190611d80565b600060405180830381600087803b158015610a4257600080fd5b505af1158015610a56573d6000803e3d6000fd5b505050507f2ab52cfc7e4fa9e5a318d33fb2addd4fea30defc5a5b32ee1176ca31b50b604f338260400151836020015160008560000151604051610a9e959493929190611e4f565b60405180910390a15b5080610ab290612268565b90506106f5565b50600260003373ffffffffffffffffffffffffffffffffffffffff1673ffffffffffffffffffffffffffffffffffffffff1681526020019081526020016000206000610b05919061158d565b5050610b0f6114b8565b565b600460009054906101000a900473ffffffffffffffffffffffffffffffffffffffff1681565b610b3f6113ea565b610b4960006114c1565b565b6000600360003373ffffffffffffffffffffffffffffffffffffffff1673ffffffffffffffffffffffffffffffffffffffff16815260200190815260200160002060009054906101000a900460ff16610ba357600080fd5b600460009054906101000a900473ffffffffffffffffffffffffffffffffffffffff1673ffffffffffffffffffffffffffffffffffffffff166384f47a258585856040518463ffffffff1660e01b8152600401610c0293929190611e0a565b602060405180830381600087803b158015610c1c57600080fd5b505af1158015610c30573d6000803e3d6000fd5b505050506040513d601f19601f82011682018060405250810190610c549190611a21565b90509392505050565b60008060009054906101000a900473ffffffffffffffffffffffffffffffffffffffff16905090565b600360003373ffffffffffffffffffffffffffffffffffffffff1673ffffffffffffffffffffffffffffffffffffffff16815260200190815260200160002060009054906101000a900460ff16610cdc57600080fd5b600a600260008673ffffffffffffffffffffffffffffffffffffffff1673ffffffffffffffffffffffffffffffffffffffff1681526020019081526020016000208054905010610d61576040517f08c379a0000000000000000000000000000000000000000000000000000000008152600401610d5890611f3a565b60405180910390fd5b600460009054906101000a900473ffffffffffffffffffffffffffffffffffffffff1673ffffffffffffffffffffffffffffffffffffffff168573ffffffffffffffffffffffffffffffffffffffff161480610e965750600073ffffffffffffffffffffffffffffffffffffffff16600560009054906101000a900473ffffffffffffffffffffffffffffffffffffffff1673ffffffffffffffffffffffffffffffffffffffff166340045db6876040518263ffffffff1660e01b8152600401610e2b9190611d65565b602060405180830381600087803b158015610e4557600080fd5b505af1158015610e59573d6000803e3d6000fd5b505050506040513d601f19601f82011682018060405250810190610e7d9190611887565b73ffffffffffffffffffffffffffffffffffffffff1614155b610e9f57600080fd5b3373ffffffffffffffffffffffffffffffffffffffff168573ffffffffffffffffffffffffffffffffffffffff16636352211e856040518263ffffffff1660e01b8152600401610eef9190611f9a565b60206040518083038186803b158015610f0757600080fd5b505afa158015610f1b573d6000803e3d6000fd5b505050506040513d601f19601f82011682018060405250810190610f3f9190611887565b73ffffffffffffffffffffffffffffffffffffffff1614610f5f57600080fd5b3373ffffffffffffffffffffffffffffffffffffffff168473ffffffffffffffffffffffffffffffffffffffff161415610f9857600080fd5b60008211610fa557600080fd5b8473ffffffffffffffffffffffffffffffffffffffff166342842e0e3330866040518463ffffffff1660e01b8152600401610fe293929190611d80565b600060405180830381600087803b158015610ffc57600080fd5b505af1158015611010573d6000803e3d6000fd5b5050505060006040518060a001604052803373ffffffffffffffffffffffffffffffffffffffff1681526020018773ffffffffffffffffffffffffffffffffffffffff168152602001858152602001844261106b9190612101565b8152602001838152509050600260008673ffffffffffffffffffffffffffffffffffffffff1673ffffffffffffffffffffffffffffffffffffffff16815260200190815260200160002081908060018154018082558091505060019003906000526020600020906005020160009091909190915060008201518160000160006101000a81548173ffffffffffffffffffffffffffffffffffffffff021916908373ffffffffffffffffffffffffffffffffffffffff16021790555060208201518160010160006101000a81548173ffffffffffffffffffffffffffffffffffffffff021916908373ffffffffffffffffffffffffffffffffffffffff16021790555060408201518160020155606082015181600301556080820151816004015550507ffac5a5926432925c3512e0a7abb3a0609aff9b765fdacaa1c207fd4a8b2669743386868985606001516040516111c8959493929190611db7565b60405180910390a1505050505050565b600560009054906101000a900473ffffffffffffffffffffffffffffffffffffffff1681565b6060600260008373ffffffffffffffffffffffffffffffffffffffff1673ffffffffffffffffffffffffffffffffffffffff168152602001908152602001600020805480602002602001604051908101604052809291908181526020016000905b8282101561135b57838290600052602060002090600502016040518060a00160405290816000820160009054906101000a900473ffffffffffffffffffffffffffffffffffffffff1673ffffffffffffffffffffffffffffffffffffffff1673ffffffffffffffffffffffffffffffffffffffff1681526020016001820160009054906101000a900473ffffffffffffffffffffffffffffffffffffffff1673ffffffffffffffffffffffffffffffffffffffff1673ffffffffffffffffffffffffffffffffffffffff16815260200160028201548152602001600382015481526020016004820154815250508152602001906001019061125f565b505050509050919050565b61136e6113ea565b600073ffffffffffffffffffffffffffffffffffffffff168173ffffffffffffffffffffffffffffffffffffffff1614156113de576040517f08c379a00000000000000000000000000000000000000000000000000000000081526004016113d590611efa565b60405180910390fd5b6113e7816114c1565b50565b6113f2611585565b73ffffffffffffffffffffffffffffffffffffffff16611410610c5d565b73ffffffffffffffffffffffffffffffffffffffff1614611466576040517f08c379a000000000000000000000000000000000000000000000000000000000815260040161145d90611f5a565b60405180910390fd5b565b600260015414156114ae576040517f08c379a00000000000000000000000000000000000000000000000000000000081526004016114a590611f7a565b60405180910390fd5b6002600181905550565b60018081905550565b60008060009054906101000a900473ffffffffffffffffffffffffffffffffffffffff169050816000806101000a81548173ffffffffffffffffffffffffffffffffffffffff021916908373ffffffffffffffffffffffffffffffffffffffff1602179055508173ffffffffffffffffffffffffffffffffffffffff168173ffffffffffffffffffffffffffffffffffffffff167f8be0079c531659141344cd1fd0a4f28419497f9722a3daafe3b4186f6b6457e060405160405180910390a35050565b600033905090565b50805460008255600502906000526020600020908101906115ae91906115b1565b50565b5b8082111561162a57600080820160006101000a81549073ffffffffffffffffffffffffffffffffffffffff02191690556001820160006101000a81549073ffffffffffffffffffffffffffffffffffffffff0219169055600282016000905560038201600090556004820160009055506005016115b2565b5090565b600061164161163c84611fda565b611fb5565b9050808382526020820190508285604086028201111561166057600080fd5b60005b85811015611690578161167688826117d3565b845260208401935060408301925050600181019050611663565b5050509392505050565b60006116ad6116a884612006565b611fb5565b9050828152602081018484840111156116c557600080fd5b6116d08482856121f5565b509392505050565b60006116eb6116e684612037565b611fb5565b90508281526020810184848401111561170357600080fd5b61170e8482856121f5565b509392505050565b6000813590506117258161243c565b92915050565b60008151905061173a8161243c565b92915050565b60008135905061174f81612453565b92915050565b600082601f83011261176657600080fd5b813561177684826020860161162e565b91505092915050565b600082601f83011261179057600080fd5b81356117a084826020860161169a565b91505092915050565b600082601f8301126117ba57600080fd5b81356117ca8482602086016116d8565b91505092915050565b6000604082840312156117e557600080fd5b6117ef6040611fb5565b905060006117ff84828501611740565b600083015250602061181384828501611849565b60208301525092915050565b60008135905061182e8161246a565b92915050565b6000815190506118438161246a565b92915050565b60008135905061185881612481565b92915050565b60006020828403121561187057600080fd5b600061187e84828501611716565b91505092915050565b60006020828403121561189957600080fd5b60006118a78482850161172b565b91505092915050565b600080600080608085870312156118c657600080fd5b60006118d487828801611716565b94505060206118e587828801611716565b93505060406118f68782880161181f565b925050606085013567ffffffffffffffff81111561191357600080fd5b61191f8782880161177f565b91505092959194509250565b600080600080600060a0868803121561194357600080fd5b600061195188828901611716565b955050602061196288828901611716565b94505060406119738882890161181f565b93505060606119848882890161181f565b92505060806119958882890161181f565b9150509295509295909350565b6000806000606084860312156119b757600080fd5b60006119c586828701611716565b935050602084013567ffffffffffffffff8111156119e257600080fd5b6119ee868287016117a9565b925050604084013567ffffffffffffffff811115611a0b57600080fd5b611a1786828701611755565b9150509250925092565b600060208284031215611a3357600080fd5b6000611a4184828501611834565b91505092915050565b6000611a568383611c8c565b60a08301905092915050565b6000611a6e8383611cf4565b60408301905092915050565b611a8381612169565b82525050565b611a9281612157565b82525050565b611aa181612157565b82525050565b6000611ab282612088565b611abc81856120c3565b9350611ac783612068565b8060005b83811015611af8578151611adf8882611a4a565b9750611aea836120a9565b925050600181019050611acb565b5085935050505092915050565b6000611b1082612093565b611b1a81856120d4565b9350611b2583612078565b8060005b83811015611b56578151611b3d8882611a62565b9750611b48836120b6565b925050600181019050611b29565b5085935050505092915050565b611b6c8161217b565b82525050565b611b7b81612187565b82525050565b6000611b8c8261209e565b611b9681856120f0565b9350611ba6818560208601612204565b611baf8161230f565b840191505092915050565b6000611bc76026836120f0565b9150611bd282612320565b604082019050919050565b6000611bea600f836120f0565b9150611bf58261236f565b602082019050919050565b6000611c0d6026836120f0565b9150611c1882612398565b604082019050919050565b6000611c306020836120f0565b9150611c3b826123e7565b602082019050919050565b6000611c536000836120e5565b9150611c5e82612410565b600082019050919050565b6000611c76601f836120f0565b9150611c8182612413565b602082019050919050565b60a082016000820151611ca26000850182611a89565b506020820151611cb56020850182611a89565b506040820151611cc86040850182611d23565b506060820151611cdb6060850182611d23565b506080820151611cee6080850182611d23565b50505050565b604082016000820151611d0a6000850182611a7a565b506020820151611d1d6020850182611d41565b50505050565b611d2c816121d3565b82525050565b611d3b816121d3565b82525050565b611d4a816121dd565b82525050565b6000611d5b82611c46565b9150819050919050565b6000602082019050611d7a6000830184611a98565b92915050565b6000606082019050611d956000830186611a98565b611da26020830185611a98565b611daf6040830184611d32565b949350505050565b600060a082019050611dcc6000830188611a98565b611dd96020830187611a98565b611de66040830186611d32565b611df36060830185611a98565b611e006080830184611d32565b9695505050505050565b6000606082019050611e1f6000830186611a98565b8181036020830152611e318185611b81565b90508181036040830152611e458184611b05565b9050949350505050565b600060a082019050611e646000830188611a98565b611e716020830187611d32565b611e7e6040830186611a98565b611e8b6060830185611b63565b611e986080830184611a98565b9695505050505050565b60006020820190508181036000830152611ebc8184611aa7565b905092915050565b6000602082019050611ed96000830184611b63565b92915050565b6000602082019050611ef46000830184611b72565b92915050565b60006020820190508181036000830152611f1381611bba565b9050919050565b60006020820190508181036000830152611f3381611bdd565b9050919050565b60006020820190508181036000830152611f5381611c00565b9050919050565b60006020820190508181036000830152611f7381611c23565b9050919050565b60006020820190508181036000830152611f9381611c69565b9050919050565b6000602082019050611faf6000830184611d32565b92915050565b6000611fbf611fd0565b9050611fcb8282612237565b919050565b6000604051905090565b600067ffffffffffffffff821115611ff557611ff46122e0565b5b602082029050602081019050919050565b600067ffffffffffffffff821115612021576120206122e0565b5b61202a8261230f565b9050602081019050919050565b600067ffffffffffffffff821115612052576120516122e0565b5b61205b8261230f565b9050602081019050919050565b6000819050602082019050919050565b6000819050602082019050919050565b600081519050919050565b600081519050919050565b600081519050919050565b6000602082019050919050565b6000602082019050919050565b600082825260208201905092915050565b600082825260208201905092915050565b600081905092915050565b600082825260208201905092915050565b600061210c826121d3565b9150612117836121d3565b9250827fffffffffffffffffffffffffffffffffffffffffffffffffffffffffffffffff0382111561214c5761214b6122b1565b5b828201905092915050565b6000612162826121b3565b9050919050565b6000612174826121b3565b9050919050565b60008115159050919050565b60007fffffffff0000000000000000000000000000000000000000000000000000000082169050919050565b600073ffffffffffffffffffffffffffffffffffffffff82169050919050565b6000819050919050565b60006bffffffffffffffffffffffff82169050919050565b82818337600083830152505050565b60005b83811015612222578082015181840152602081019050612207565b83811115612231576000848401525b50505050565b6122408261230f565b810181811067ffffffffffffffff8211171561225f5761225e6122e0565b5b80604052505050565b6000612273826121d3565b91507fffffffffffffffffffffffffffffffffffffffffffffffffffffffffffffffff8214156122a6576122a56122b1565b5b600182019050919050565b7f4e487b7100000000000000000000000000000000000000000000000000000000600052601160045260246000fd5b7f4e487b7100000000000000000000000000000000000000000000000000000000600052604160045260246000fd5b6000601f19601f8301169050919050565b7f4f776e61626c653a206e6577206f776e657220697320746865207a65726f206160008201527f6464726573730000000000000000000000000000000000000000000000000000602082015250565b7f5472616e73666572206661696c65640000000000000000000000000000000000600082015250565b7f636c61696d656527732070656e64696e6720636c61696d73206c696d6974207260008201527f6561636865640000000000000000000000000000000000000000000000000000602082015250565b7f4f776e61626c653a2063616c6c6572206973206e6f7420746865206f776e6572600082015250565b50565b7f5265656e7472616e637947756172643a207265656e7472616e742063616c6c00600082015250565b61244581612157565b811461245057600080fd5b50565b61245c81612169565b811461246757600080fd5b50565b612473816121d3565b811461247e57600080fd5b50565b61248a816121dd565b811461249557600080fd5b5056fea26469706673582212207403d3d871ff70959a6056a1fad18a4d222d96e7659040f4681c932f37ef69bb64736f6c63430008020033",
  "linkReferences": {},
  "deployedLinkReferences": {}
}