{
  "_format": "hh-sol-artifact-1",
  "contractName": "NFTDrop",
  "sourceName": "contracts/NFTDrop.sol",
  "abi": [
    {
      "inputs": [
        {
          "internalType": "address",
          "name": "_pndc",
          "type": "address"
        },
        {
          "internalType": "address",
          "name": "_factory",
          "type": "address"
        }
      ],
      "stateMutability": "nonpayable",
      "type": "constructor"
    },
    {
      "anonymous": false,
      "inputs": [
        {
          "indexed": false,
          "internalType": "address",
          "name": "moderator",
          "type": "address"
        },
        {
          "indexed": false,
          "internalType": "address",
          "name": "claimee",
          "type": "address"
        },
        {
          "indexed": false,
          "internalType": "uint256",
          "name": "tokenId",
          "type": "uint256"
        },
        {
          "indexed": false,
          "internalType": "address",
          "name": "collection",
          "type": "address"
        },
        {
          "indexed": false,
          "internalType": "uint256",
          "name": "endTime",
          "type": "uint256"
        }
      ],
      "name": "ClaimCreated",
      "type": "event"
    },
    {
      "anonymous": false,
      "inputs": [
        {
          "indexed": true,
          "internalType": "address",
          "name": "previousOwner",
          "type": "address"
        },
        {
          "indexed": true,
          "internalType": "address",
          "name": "newOwner",
          "type": "address"
        }
      ],
      "name": "OwnershipTransferred",
      "type": "event"
    },
    {
      "anonymous": false,
      "inputs": [
        {
          "indexed": false,
          "internalType": "address",
          "name": "claimee",
          "type": "address"
        },
        {
          "indexed": false,
          "internalType": "uint256",
          "name": "tokenId",
          "type": "uint256"
        },
        {
          "indexed": false,
          "internalType": "address",
          "name": "collection",
          "type": "address"
        },
        {
          "indexed": false,
          "internalType": "bool",
          "name": "withinTime",
          "type": "bool"
        },
        {
          "indexed": false,
          "internalType": "address",
          "name": "tokenTransferredTo",
          "type": "address"
        }
      ],
      "name": "TokensClaimed",
      "type": "event"
    },
    {
      "inputs": [],
      "name": "Factory",
      "outputs": [
        {
          "internalType": "address",
          "name": "",
          "type": "address"
        }
      ],
      "stateMutability": "view",
      "type": "function"
    },
    {
      "inputs": [],
      "name": "PNDC",
      "outputs": [
        {
          "internalType": "address",
          "name": "",
          "type": "address"
        }
      ],
      "stateMutability": "view",
      "type": "function"
    },
    {
      "inputs": [
        {
          "internalType": "address",
          "name": "_mod",
          "type": "address"
        }
      ],
      "name": "addMod",
      "outputs": [],
      "stateMutability": "nonpayable",
      "type": "function"
    },
    {
      "inputs": [
        {
          "internalType": "address",
          "name": "_factory",
          "type": "address"
        }
      ],
      "name": "changeFactory",
      "outputs": [],
      "stateMutability": "nonpayable",
      "type": "function"
    },
    {
      "inputs": [],
      "name": "claim",
      "outputs": [],
      "stateMutability": "payable",
      "type": "function"
    },
    {
      "inputs": [
        {
          "internalType": "address",
          "name": "_collection",
          "type": "address"
        },
        {
          "internalType": "address",
          "name": "_claimee",
          "type": "address"
        },
        {
          "internalType": "uint256",
          "name": "_tokenId",
          "type": "uint256"
        },
        {
          "internalType": "uint256",
          "name": "_time",
          "type": "uint256"
        },
        {
          "internalType": "uint256",
          "name": "_price",
          "type": "uint256"
        }
      ],
      "name": "createClaim",
      "outputs": [],
      "stateMutability": "nonpayable",
      "type": "function"
    },
    {
      "inputs": [
        {
          "internalType": "address",
          "name": "_claimee",
          "type": "address"
        }
      ],
      "name": "getClaims",
      "outputs": [
        {
          "components": [
            {
              "internalType": "address",
              "name": "moderator",
              "type": "address"
            },
            {
              "internalType": "address",
              "name": "collection",
              "type": "address"
            },
            {
              "internalType": "uint256",
              "name": "tokenId",
              "type": "uint256"
            },
            {
              "internalType": "uint256",
              "name": "endTime",
              "type": "uint256"
            },
            {
              "internalType": "uint256",
              "name": "price",
              "type": "uint256"
            }
          ],
          "internalType": "struct NFTDrop.Claim[]",
          "name": "claims",
          "type": "tuple[]"
        }
      ],
      "stateMutability": "view",
      "type": "function"
    },
    {
      "inputs": [
        {
          "internalType": "address",
          "name": "",
          "type": "address"
        },
        {
          "internalType": "address",
          "name": "",
          "type": "address"
        },
        {
          "internalType": "uint256",
          "name": "",
          "type": "uint256"
        },
        {
          "internalType": "bytes",
          "name": "",
          "type": "bytes"
        }
      ],
      "name": "onERC721Received",
      "outputs": [
        {
          "internalType": "bytes4",
          "name": "",
          "type": "bytes4"
        }
      ],
      "stateMutability": "nonpayable",
      "type": "function"
    },
    {
      "inputs": [],
      "name": "owner",
      "outputs": [
        {
          "internalType": "address",
          "name": "",
          "type": "address"
        }
      ],
      "stateMutability": "view",
      "type": "function"
    },
    {
      "inputs": [
        {
          "internalType": "address",
          "name": "_mod",
          "type": "address"
        }
      ],
      "name": "removeMod",
      "outputs": [],
      "stateMutability": "nonpayable",
      "type": "function"
    },
    {
      "inputs": [],
      "name": "renounceOwnership",
      "outputs": [],
      "stateMutability": "nonpayable",
      "type": "function"
    },
    {
      "inputs": [
        {
          "internalType": "address",
          "name": "",
          "type": "address"
        }
      ],
      "name": "s_moderators",
      "outputs": [
        {
          "internalType": "bool",
          "name": "",
          "type": "bool"
        }
      ],
      "stateMutability": "view",
      "type": "function"
    },
    {
      "inputs": [
        {
          "internalType": "address",
          "name": "_to",
          "type": "address"
        },
        {
          "internalType": "string",
          "name": "_uri",
          "type": "string"
        },
        {
          "components": [
            {
              "internalType": "address payable",
              "name": "account",
              "type": "address"
            },
            {
              "internalType": "uint96",
              "name": "value",
              "type": "uint96"
            }
          ],
          "internalType": "struct LibShare.Share[]",
          "name": "royalties",
          "type": "tuple[]"
        }
      ],
      "name": "safeMint",
      "outputs": [
        {
          "internalType": "uint256",
          "name": "",
          "type": "uint256"
        }
      ],
      "stateMutability": "nonpayable",
      "type": "function"
    },
    {
      "inputs": [
        {
          "internalType": "address",
          "name": "newOwner",
          "type": "address"
        }
      ],
      "name": "transferOwnership",
      "outputs": [],
      "stateMutability": "nonpayable",
      "type": "function"
    }
  ],
  "bytecode": "0x60806040523480156200001157600080fd5b5060405162002dc638038062002dc6833981810160405281019062000037919062000223565b620000576200004b6200014060201b60201c565b6200014860201b60201c565b6001808190555081600460006101000a81548173ffffffffffffffffffffffffffffffffffffffff021916908373ffffffffffffffffffffffffffffffffffffffff16021790555080600560006101000a81548173ffffffffffffffffffffffffffffffffffffffff021916908373ffffffffffffffffffffffffffffffffffffffff1602179055506001600360003373ffffffffffffffffffffffffffffffffffffffff1673ffffffffffffffffffffffffffffffffffffffff16815260200190815260200160002060006101000a81548160ff0219169083151502179055505050620002b2565b600033905090565b60008060009054906101000a900473ffffffffffffffffffffffffffffffffffffffff169050816000806101000a81548173ffffffffffffffffffffffffffffffffffffffff021916908373ffffffffffffffffffffffffffffffffffffffff1602179055508173ffffffffffffffffffffffffffffffffffffffff168173ffffffffffffffffffffffffffffffffffffffff167f8be0079c531659141344cd1fd0a4f28419497f9722a3daafe3b4186f6b6457e060405160405180910390a35050565b6000815190506200021d8162000298565b92915050565b600080604083850312156200023757600080fd5b600062000247858286016200020c565b92505060206200025a858286016200020c565b9150509250929050565b6000620002718262000278565b9050919050565b600073ffffffffffffffffffffffffffffffffffffffff82169050919050565b620002a38162000264565b8114620002af57600080fd5b50565b612b0480620002c26000396000f3fe6080604052600436106100dd5760003560e01c8063715018a61161007f578063a482c9a711610059578063a482c9a71461028b578063c83dd231146102b4578063d0d46a0b146102df578063f2fde38b1461031c576100dd565b8063715018a61461020c57806384f47a25146102235780638da5cb5b14610260576100dd565b8063150b7a02116100bb578063150b7a02146101715780634637de3c146101ae5780634e71d92d146101d7578063667834a9146101e1576100dd565b806301a00216146100e2578063115f85881461010b57806311c6e74114610148575b600080fd5b3480156100ee57600080fd5b5061010960048036038101906101049190611e94565b610345565b005b34801561011757600080fd5b50610132600480360381019061012d9190611e94565b610405565b60405161013f91906124fa565b60405180910390f35b34801561015457600080fd5b5061016f600480360381019061016a9190611e94565b610425565b005b34801561017d57600080fd5b5061019860048036038101906101939190611ee6565b610471565b6040516101a59190612515565b60405180910390f35b3480156101ba57600080fd5b506101d560048036038101906101d09190611e94565b610485565b005b6101df610545565b005b3480156101ed57600080fd5b506101f6611146565b604051610203919061239b565b60405180910390f35b34801561021857600080fd5b5061022161116c565b005b34801561022f57600080fd5b5061024a60048036038101906102459190611fd8565b611180565b60405161025791906125d0565b60405180910390f35b34801561026c57600080fd5b50610275611292565b604051610282919061239b565b60405180910390f35b34801561029757600080fd5b506102b260048036038101906102ad9190611f61565b6112bb565b005b3480156102c057600080fd5b506102c961180e565b6040516102d6919061239b565b60405180910390f35b3480156102eb57600080fd5b5061030660048036038101906103019190611e94565b611834565b60405161031391906124d8565b60405180910390f35b34801561032857600080fd5b50610343600480360381019061033e9190611e94565b61199c565b005b61034d611a20565b60001515600360008373ffffffffffffffffffffffffffffffffffffffff1673ffffffffffffffffffffffffffffffffffffffff16815260200190815260200160002060009054906101000a900460ff161515146103aa57600080fd5b6001600360008373ffffffffffffffffffffffffffffffffffffffff1673ffffffffffffffffffffffffffffffffffffffff16815260200190815260200160002060006101000a81548160ff02191690831515021790555050565b60036020528060005260406000206000915054906101000a900460ff1681565b61042d611a20565b80600560006101000a81548173ffffffffffffffffffffffffffffffffffffffff021916908373ffffffffffffffffffffffffffffffffffffffff16021790555050565b600063150b7a0260e01b9050949350505050565b61048d611a20565b60011515600360008373ffffffffffffffffffffffffffffffffffffffff1673ffffffffffffffffffffffffffffffffffffffff16815260200190815260200160002060009054906101000a900460ff161515146104ea57600080fd5b6000600360008373ffffffffffffffffffffffffffffffffffffffff1673ffffffffffffffffffffffffffffffffffffffff16815260200190815260200160002060006101000a81548160ff02191690831515021790555050565b61054d611a9e565b6000600260003373ffffffffffffffffffffffffffffffffffffffff1673ffffffffffffffffffffffffffffffffffffffff16815260200190815260200160002080549050905060008114156105a257600080fd5b6000805b828110156106e557600260003373ffffffffffffffffffffffffffffffffffffffff1673ffffffffffffffffffffffffffffffffffffffff1681526020019081526020016000208181548110610625577f4e487b7100000000000000000000000000000000000000000000000000000000600052603260045260246000fd5b90600052602060002090600502016003015442116106d457600260003373ffffffffffffffffffffffffffffffffffffffff1673ffffffffffffffffffffffffffffffffffffffff16815260200190815260200160002081815481106106b4577f4e487b7100000000000000000000000000000000000000000000000000000000600052603260045260246000fd5b906000526020600020906005020160040154826106d19190612737565b91505b806106de9061289e565b90506105a6565b508034146106f257600080fd5b60005b828110156110ee57600260003373ffffffffffffffffffffffffffffffffffffffff1673ffffffffffffffffffffffffffffffffffffffff1681526020019081526020016000208181548110610774577f4e487b7100000000000000000000000000000000000000000000000000000000600052603260045260246000fd5b9060005260206000209060050201600301544211610c7d576000600260003373ffffffffffffffffffffffffffffffffffffffff1673ffffffffffffffffffffffffffffffffffffffff1681526020019081526020016000208281548110610805577f4e487b7100000000000000000000000000000000000000000000000000000000600052603260045260246000fd5b906000526020600020906005020160000160009054906101000a900473ffffffffffffffffffffffffffffffffffffffff1673ffffffffffffffffffffffffffffffffffffffff16600260003373ffffffffffffffffffffffffffffffffffffffff1673ffffffffffffffffffffffffffffffffffffffff16815260200190815260200160002083815481106108c4577f4e487b7100000000000000000000000000000000000000000000000000000000600052603260045260246000fd5b9060005260206000209060050201600401546040516108e290612386565b60006040518083038185875af1925050503d806000811461091f576040519150601f19603f3d011682016040523d82523d6000602084013e610924565b606091505b5050905080610968576040517f08c379a000000000000000000000000000000000000000000000000000000000815260040161095f90612550565b60405180910390fd5b600260003373ffffffffffffffffffffffffffffffffffffffff1673ffffffffffffffffffffffffffffffffffffffff16815260200190815260200160002082815481106109df577f4e487b7100000000000000000000000000000000000000000000000000000000600052603260045260246000fd5b906000526020600020906005020160010160009054906101000a900473ffffffffffffffffffffffffffffffffffffffff1673ffffffffffffffffffffffffffffffffffffffff166342842e0e3033600260003373ffffffffffffffffffffffffffffffffffffffff1673ffffffffffffffffffffffffffffffffffffffff1681526020019081526020016000208681548110610aa5577f4e487b7100000000000000000000000000000000000000000000000000000000600052603260045260246000fd5b9060005260206000209060050201600201546040518463ffffffff1660e01b8152600401610ad5939291906123b6565b600060405180830381600087803b158015610aef57600080fd5b505af1158015610b03573d6000803e3d6000fd5b505050507f2ab52cfc7e4fa9e5a318d33fb2addd4fea30defc5a5b32ee1176ca31b50b604f33600260003373ffffffffffffffffffffffffffffffffffffffff1673ffffffffffffffffffffffffffffffffffffffff1681526020019081526020016000208481548110610ba0577f4e487b7100000000000000000000000000000000000000000000000000000000600052603260045260246000fd5b906000526020600020906005020160020154600260003373ffffffffffffffffffffffffffffffffffffffff1673ffffffffffffffffffffffffffffffffffffffff1681526020019081526020016000208581548110610c29577f4e487b7100000000000000000000000000000000000000000000000000000000600052603260045260246000fd5b906000526020600020906005020160010160009054906101000a900473ffffffffffffffffffffffffffffffffffffffff16600133604051610c6f959493929190612485565b60405180910390a1506110dd565b600260003373ffffffffffffffffffffffffffffffffffffffff1673ffffffffffffffffffffffffffffffffffffffff1681526020019081526020016000208181548110610cf4577f4e487b7100000000000000000000000000000000000000000000000000000000600052603260045260246000fd5b906000526020600020906005020160010160009054906101000a900473ffffffffffffffffffffffffffffffffffffffff1673ffffffffffffffffffffffffffffffffffffffff166342842e0e30600260003373ffffffffffffffffffffffffffffffffffffffff1673ffffffffffffffffffffffffffffffffffffffff1681526020019081526020016000208481548110610db9577f4e487b7100000000000000000000000000000000000000000000000000000000600052603260045260246000fd5b906000526020600020906005020160000160009054906101000a900473ffffffffffffffffffffffffffffffffffffffff16600260003373ffffffffffffffffffffffffffffffffffffffff1673ffffffffffffffffffffffffffffffffffffffff1681526020019081526020016000208581548110610e62577f4e487b7100000000000000000000000000000000000000000000000000000000600052603260045260246000fd5b9060005260206000209060050201600201546040518463ffffffff1660e01b8152600401610e92939291906123b6565b600060405180830381600087803b158015610eac57600080fd5b505af1158015610ec0573d6000803e3d6000fd5b505050507f2ab52cfc7e4fa9e5a318d33fb2addd4fea30defc5a5b32ee1176ca31b50b604f33600260003373ffffffffffffffffffffffffffffffffffffffff1673ffffffffffffffffffffffffffffffffffffffff1681526020019081526020016000208381548110610f5d577f4e487b7100000000000000000000000000000000000000000000000000000000600052603260045260246000fd5b906000526020600020906005020160020154600260003373ffffffffffffffffffffffffffffffffffffffff1673ffffffffffffffffffffffffffffffffffffffff1681526020019081526020016000208481548110610fe6577f4e487b7100000000000000000000000000000000000000000000000000000000600052603260045260246000fd5b906000526020600020906005020160010160009054906101000a900473ffffffffffffffffffffffffffffffffffffffff166000600260003373ffffffffffffffffffffffffffffffffffffffff1673ffffffffffffffffffffffffffffffffffffffff1681526020019081526020016000208681548110611091577f4e487b7100000000000000000000000000000000000000000000000000000000600052603260045260246000fd5b906000526020600020906005020160000160009054906101000a900473ffffffffffffffffffffffffffffffffffffffff166040516110d4959493929190612485565b60405180910390a15b806110e79061289e565b90506106f5565b50600260003373ffffffffffffffffffffffffffffffffffffffff1673ffffffffffffffffffffffffffffffffffffffff168152602001908152602001600020600061113a9190611bc3565b5050611144611aee565b565b600460009054906101000a900473ffffffffffffffffffffffffffffffffffffffff1681565b611174611a20565b61117e6000611af7565b565b6000600360003373ffffffffffffffffffffffffffffffffffffffff1673ffffffffffffffffffffffffffffffffffffffff16815260200190815260200160002060009054906101000a900460ff166111d857600080fd5b600460009054906101000a900473ffffffffffffffffffffffffffffffffffffffff1673ffffffffffffffffffffffffffffffffffffffff166384f47a258585856040518463ffffffff1660e01b815260040161123793929190612440565b602060405180830381600087803b15801561125157600080fd5b505af1158015611265573d6000803e3d6000fd5b505050506040513d601f19601f820116820180604052508101906112899190612057565b90509392505050565b60008060009054906101000a900473ffffffffffffffffffffffffffffffffffffffff16905090565b600360003373ffffffffffffffffffffffffffffffffffffffff1673ffffffffffffffffffffffffffffffffffffffff16815260200190815260200160002060009054906101000a900460ff1661131157600080fd5b600460009054906101000a900473ffffffffffffffffffffffffffffffffffffffff1673ffffffffffffffffffffffffffffffffffffffff168573ffffffffffffffffffffffffffffffffffffffff1614806114465750600073ffffffffffffffffffffffffffffffffffffffff16600560009054906101000a900473ffffffffffffffffffffffffffffffffffffffff1673ffffffffffffffffffffffffffffffffffffffff166340045db6876040518263ffffffff1660e01b81526004016113db919061239b565b602060405180830381600087803b1580156113f557600080fd5b505af1158015611409573d6000803e3d6000fd5b505050506040513d601f19601f8201168201806040525081019061142d9190611ebd565b73ffffffffffffffffffffffffffffffffffffffff1614155b61144f57600080fd5b3373ffffffffffffffffffffffffffffffffffffffff168573ffffffffffffffffffffffffffffffffffffffff16636352211e856040518263ffffffff1660e01b815260040161149f91906125d0565b60206040518083038186803b1580156114b757600080fd5b505afa1580156114cb573d6000803e3d6000fd5b505050506040513d601f19601f820116820180604052508101906114ef9190611ebd565b73ffffffffffffffffffffffffffffffffffffffff161461150f57600080fd5b3373ffffffffffffffffffffffffffffffffffffffff168473ffffffffffffffffffffffffffffffffffffffff16141561154857600080fd5b6000821161155557600080fd5b600a600260008673ffffffffffffffffffffffffffffffffffffffff1673ffffffffffffffffffffffffffffffffffffffff1681526020019081526020016000208054905011156115db576040517f08c379a00000000000000000000000000000000000000000000000000000000081526004016115d290612570565b60405180910390fd5b8473ffffffffffffffffffffffffffffffffffffffff166342842e0e3330866040518463ffffffff1660e01b8152600401611618939291906123b6565b600060405180830381600087803b15801561163257600080fd5b505af1158015611646573d6000803e3d6000fd5b5050505060006040518060a001604052803373ffffffffffffffffffffffffffffffffffffffff1681526020018773ffffffffffffffffffffffffffffffffffffffff16815260200185815260200184426116a19190612737565b8152602001838152509050600260008673ffffffffffffffffffffffffffffffffffffffff1673ffffffffffffffffffffffffffffffffffffffff16815260200190815260200160002081908060018154018082558091505060019003906000526020600020906005020160009091909190915060008201518160000160006101000a81548173ffffffffffffffffffffffffffffffffffffffff021916908373ffffffffffffffffffffffffffffffffffffffff16021790555060208201518160010160006101000a81548173ffffffffffffffffffffffffffffffffffffffff021916908373ffffffffffffffffffffffffffffffffffffffff16021790555060408201518160020155606082015181600301556080820151816004015550507ffac5a5926432925c3512e0a7abb3a0609aff9b765fdacaa1c207fd4a8b2669743386868985606001516040516117fe9594939291906123ed565b60405180910390a1505050505050565b600560009054906101000a900473ffffffffffffffffffffffffffffffffffffffff1681565b6060600260008373ffffffffffffffffffffffffffffffffffffffff1673ffffffffffffffffffffffffffffffffffffffff168152602001908152602001600020805480602002602001604051908101604052809291908181526020016000905b8282101561199157838290600052602060002090600502016040518060a00160405290816000820160009054906101000a900473ffffffffffffffffffffffffffffffffffffffff1673ffffffffffffffffffffffffffffffffffffffff1673ffffffffffffffffffffffffffffffffffffffff1681526020016001820160009054906101000a900473ffffffffffffffffffffffffffffffffffffffff1673ffffffffffffffffffffffffffffffffffffffff1673ffffffffffffffffffffffffffffffffffffffff168152602001600282015481526020016003820154815260200160048201548152505081526020019060010190611895565b505050509050919050565b6119a4611a20565b600073ffffffffffffffffffffffffffffffffffffffff168173ffffffffffffffffffffffffffffffffffffffff161415611a14576040517f08c379a0000000000000000000000000000000000000000000000000000000008152600401611a0b90612530565b60405180910390fd5b611a1d81611af7565b50565b611a28611bbb565b73ffffffffffffffffffffffffffffffffffffffff16611a46611292565b73ffffffffffffffffffffffffffffffffffffffff1614611a9c576040517f08c379a0000000000000000000000000000000000000000000000000000000008152600401611a9390612590565b60405180910390fd5b565b60026001541415611ae4576040517f08c379a0000000000000000000000000000000000000000000000000000000008152600401611adb906125b0565b60405180910390fd5b6002600181905550565b60018081905550565b60008060009054906101000a900473ffffffffffffffffffffffffffffffffffffffff169050816000806101000a81548173ffffffffffffffffffffffffffffffffffffffff021916908373ffffffffffffffffffffffffffffffffffffffff1602179055508173ffffffffffffffffffffffffffffffffffffffff168173ffffffffffffffffffffffffffffffffffffffff167f8be0079c531659141344cd1fd0a4f28419497f9722a3daafe3b4186f6b6457e060405160405180910390a35050565b600033905090565b5080546000825560050290600052602060002090810190611be49190611be7565b50565b5b80821115611c6057600080820160006101000a81549073ffffffffffffffffffffffffffffffffffffffff02191690556001820160006101000a81549073ffffffffffffffffffffffffffffffffffffffff021916905560028201600090556003820160009055600482016000905550600501611be8565b5090565b6000611c77611c7284612610565b6125eb565b90508083825260208201905082856040860282011115611c9657600080fd5b60005b85811015611cc65781611cac8882611e09565b845260208401935060408301925050600181019050611c99565b5050509392505050565b6000611ce3611cde8461263c565b6125eb565b905082815260208101848484011115611cfb57600080fd5b611d0684828561282b565b509392505050565b6000611d21611d1c8461266d565b6125eb565b905082815260208101848484011115611d3957600080fd5b611d4484828561282b565b509392505050565b600081359050611d5b81612a72565b92915050565b600081519050611d7081612a72565b92915050565b600081359050611d8581612a89565b92915050565b600082601f830112611d9c57600080fd5b8135611dac848260208601611c64565b91505092915050565b600082601f830112611dc657600080fd5b8135611dd6848260208601611cd0565b91505092915050565b600082601f830112611df057600080fd5b8135611e00848260208601611d0e565b91505092915050565b600060408284031215611e1b57600080fd5b611e2560406125eb565b90506000611e3584828501611d76565b6000830152506020611e4984828501611e7f565b60208301525092915050565b600081359050611e6481612aa0565b92915050565b600081519050611e7981612aa0565b92915050565b600081359050611e8e81612ab7565b92915050565b600060208284031215611ea657600080fd5b6000611eb484828501611d4c565b91505092915050565b600060208284031215611ecf57600080fd5b6000611edd84828501611d61565b91505092915050565b60008060008060808587031215611efc57600080fd5b6000611f0a87828801611d4c565b9450506020611f1b87828801611d4c565b9350506040611f2c87828801611e55565b925050606085013567ffffffffffffffff811115611f4957600080fd5b611f5587828801611db5565b91505092959194509250565b600080600080600060a08688031215611f7957600080fd5b6000611f8788828901611d4c565b9550506020611f9888828901611d4c565b9450506040611fa988828901611e55565b9350506060611fba88828901611e55565b9250506080611fcb88828901611e55565b9150509295509295909350565b600080600060608486031215611fed57600080fd5b6000611ffb86828701611d4c565b935050602084013567ffffffffffffffff81111561201857600080fd5b61202486828701611ddf565b925050604084013567ffffffffffffffff81111561204157600080fd5b61204d86828701611d8b565b9150509250925092565b60006020828403121561206957600080fd5b600061207784828501611e6a565b91505092915050565b600061208c83836122c2565b60a08301905092915050565b60006120a4838361232a565b60408301905092915050565b6120b98161279f565b82525050565b6120c88161278d565b82525050565b6120d78161278d565b82525050565b60006120e8826126be565b6120f281856126f9565b93506120fd8361269e565b8060005b8381101561212e5781516121158882612080565b9750612120836126df565b925050600181019050612101565b5085935050505092915050565b6000612146826126c9565b612150818561270a565b935061215b836126ae565b8060005b8381101561218c5781516121738882612098565b975061217e836126ec565b92505060018101905061215f565b5085935050505092915050565b6121a2816127b1565b82525050565b6121b1816127bd565b82525050565b60006121c2826126d4565b6121cc8185612726565b93506121dc81856020860161283a565b6121e581612945565b840191505092915050565b60006121fd602683612726565b915061220882612956565b604082019050919050565b6000612220600f83612726565b915061222b826129a5565b602082019050919050565b6000612243602683612726565b915061224e826129ce565b604082019050919050565b6000612266602083612726565b915061227182612a1d565b602082019050919050565b600061228960008361271b565b915061229482612a46565b600082019050919050565b60006122ac601f83612726565b91506122b782612a49565b602082019050919050565b60a0820160008201516122d860008501826120bf565b5060208201516122eb60208501826120bf565b5060408201516122fe6040850182612359565b5060608201516123116060850182612359565b5060808201516123246080850182612359565b50505050565b60408201600082015161234060008501826120b0565b5060208201516123536020850182612377565b50505050565b61236281612809565b82525050565b61237181612809565b82525050565b61238081612813565b82525050565b60006123918261227c565b9150819050919050565b60006020820190506123b060008301846120ce565b92915050565b60006060820190506123cb60008301866120ce565b6123d860208301856120ce565b6123e56040830184612368565b949350505050565b600060a08201905061240260008301886120ce565b61240f60208301876120ce565b61241c6040830186612368565b61242960608301856120ce565b6124366080830184612368565b9695505050505050565b600060608201905061245560008301866120ce565b818103602083015261246781856121b7565b9050818103604083015261247b818461213b565b9050949350505050565b600060a08201905061249a60008301886120ce565b6124a76020830187612368565b6124b460408301866120ce565b6124c16060830185612199565b6124ce60808301846120ce565b9695505050505050565b600060208201905081810360008301526124f281846120dd565b905092915050565b600060208201905061250f6000830184612199565b92915050565b600060208201905061252a60008301846121a8565b92915050565b60006020820190508181036000830152612549816121f0565b9050919050565b6000602082019050818103600083015261256981612213565b9050919050565b6000602082019050818103600083015261258981612236565b9050919050565b600060208201905081810360008301526125a981612259565b9050919050565b600060208201905081810360008301526125c98161229f565b9050919050565b60006020820190506125e56000830184612368565b92915050565b60006125f5612606565b9050612601828261286d565b919050565b6000604051905090565b600067ffffffffffffffff82111561262b5761262a612916565b5b602082029050602081019050919050565b600067ffffffffffffffff82111561265757612656612916565b5b61266082612945565b9050602081019050919050565b600067ffffffffffffffff82111561268857612687612916565b5b61269182612945565b9050602081019050919050565b6000819050602082019050919050565b6000819050602082019050919050565b600081519050919050565b600081519050919050565b600081519050919050565b6000602082019050919050565b6000602082019050919050565b600082825260208201905092915050565b600082825260208201905092915050565b600081905092915050565b600082825260208201905092915050565b600061274282612809565b915061274d83612809565b9250827fffffffffffffffffffffffffffffffffffffffffffffffffffffffffffffffff03821115612782576127816128e7565b5b828201905092915050565b6000612798826127e9565b9050919050565b60006127aa826127e9565b9050919050565b60008115159050919050565b60007fffffffff0000000000000000000000000000000000000000000000000000000082169050919050565b600073ffffffffffffffffffffffffffffffffffffffff82169050919050565b6000819050919050565b60006bffffffffffffffffffffffff82169050919050565b82818337600083830152505050565b60005b8381101561285857808201518184015260208101905061283d565b83811115612867576000848401525b50505050565b61287682612945565b810181811067ffffffffffffffff8211171561289557612894612916565b5b80604052505050565b60006128a982612809565b91507fffffffffffffffffffffffffffffffffffffffffffffffffffffffffffffffff8214156128dc576128db6128e7565b5b600182019050919050565b7f4e487b7100000000000000000000000000000000000000000000000000000000600052601160045260246000fd5b7f4e487b7100000000000000000000000000000000000000000000000000000000600052604160045260246000fd5b6000601f19601f8301169050919050565b7f4f776e61626c653a206e6577206f776e657220697320746865207a65726f206160008201527f6464726573730000000000000000000000000000000000000000000000000000602082015250565b7f5472616e73666572206661696c65640000000000000000000000000000000000600082015250565b7f636c61696d656527732070656e64696e6720636c61696d73206c696d6974207260008201527f6561636865640000000000000000000000000000000000000000000000000000602082015250565b7f4f776e61626c653a2063616c6c6572206973206e6f7420746865206f776e6572600082015250565b50565b7f5265656e7472616e637947756172643a207265656e7472616e742063616c6c00600082015250565b612a7b8161278d565b8114612a8657600080fd5b50565b612a928161279f565b8114612a9d57600080fd5b50565b612aa981612809565b8114612ab457600080fd5b50565b612ac081612813565b8114612acb57600080fd5b5056fea2646970667358221220402745d685cb8615bd22f394c1741e686929da2c92afa0dcd712c44828a4967064736f6c63430008020033",
  "linkReferences": {},
  "deployedLinkReferences": {}
}